{
	"workspace/2_Banking.sol": {
		"BankingSystem": {
			"abi": [
				{
					"inputs": [
						{
							"internalType": "uint256",
							"name": "",
							"type": "uint256"
						}
					],
					"name": "addressIndex",
					"outputs": [
						{
							"internalType": "address",
							"name": "",
							"type": "address"
						}
					],
					"stateMutability": "view",
					"type": "function"
				},
				{
					"inputs": [
						{
							"internalType": "address",
							"name": "",
							"type": "address"
						}
					],
					"name": "balanceLedger",
					"outputs": [
						{
							"internalType": "uint256",
							"name": "",
							"type": "uint256"
						}
					],
					"stateMutability": "view",
					"type": "function"
				},
				{
					"inputs": [],
					"name": "deposit",
					"outputs": [],
					"stateMutability": "payable",
					"type": "function"
				},
				{
					"inputs": [],
					"name": "getBalance",
					"outputs": [
						{
							"internalType": "uint256",
							"name": "",
							"type": "uint256"
						}
					],
					"stateMutability": "view",
					"type": "function"
				},
				{
					"inputs": [],
					"name": "minDeposit",
					"outputs": [
						{
							"internalType": "address",
							"name": "",
							"type": "address"
						}
					],
					"stateMutability": "view",
					"type": "function"
				},
				{
					"inputs": [
						{
							"internalType": "address",
							"name": "_to",
							"type": "address"
						},
						{
							"internalType": "uint256",
							"name": "_amount",
							"type": "uint256"
						}
					],
					"name": "transfer",
					"outputs": [],
					"stateMutability": "nonpayable",
					"type": "function"
				},
				{
					"inputs": [],
					"name": "userCount",
					"outputs": [
						{
							"internalType": "uint256",
							"name": "",
							"type": "uint256"
						}
					],
					"stateMutability": "view",
					"type": "function"
				},
				{
					"inputs": [
						{
							"internalType": "uint256",
							"name": "_amount",
							"type": "uint256"
						}
					],
					"name": "withdraw",
					"outputs": [],
					"stateMutability": "nonpayable",
					"type": "function"
				}
			],
			"devdoc": {
				"kind": "dev",
				"methods": {},
				"version": 1
			},
			"evm": {
				"assembly": "    /* \"workspace/2_Banking.sol\":60:2075  contract BankingSystem {... */\n  mstore(0x40, 0x80)\n  callvalue\n  dup1\n  iszero\n  tag_1\n  jumpi\n  revert(0x00, 0x00)\ntag_1:\n  pop\n  dataSize(sub_0)\n  dup1\n  dataOffset(sub_0)\n  0x00\n  codecopy\n  0x00\n  return\nstop\n\nsub_0: assembly {\n        /* \"workspace/2_Banking.sol\":60:2075  contract BankingSystem {... */\n      mstore(0x40, 0x80)\n      jumpi(tag_1, lt(calldatasize, 0x04))\n      shr(0xe0, calldataload(0x00))\n      dup1\n      0x65c8acb0\n      gt\n      tag_10\n      jumpi\n      dup1\n      0x65c8acb0\n      eq\n      tag_6\n      jumpi\n      dup1\n      0xa9059cbb\n      eq\n      tag_7\n      jumpi\n      dup1\n      0xcc1a2865\n      eq\n      tag_8\n      jumpi\n      dup1\n      0xd0e30db0\n      eq\n      tag_9\n      jumpi\n      jump(tag_1)\n    tag_10:\n      dup1\n      0x07973ccf\n      eq\n      tag_2\n      jumpi\n      dup1\n      0x12065fe0\n      eq\n      tag_3\n      jumpi\n      dup1\n      0x2e1a7d4d\n      eq\n      tag_4\n      jumpi\n      dup1\n      0x41b3d185\n      eq\n      tag_5\n      jumpi\n    tag_1:\n      revert(0x00, 0x00)\n        /* \"workspace/2_Banking.sol\":329:350  uint public userCount */\n    tag_2:\n      callvalue\n      dup1\n      iszero\n      tag_11\n      jumpi\n      revert(0x00, 0x00)\n    tag_11:\n      pop\n      tag_12\n      tag_13\n      jump\t// in\n    tag_12:\n      mload(0x40)\n      tag_14\n      swap2\n      swap1\n      tag_15\n      jump\t// in\n    tag_14:\n      mload(0x40)\n      dup1\n      swap2\n      sub\n      swap1\n      return\n        /* \"workspace/2_Banking.sol\":699:800  function getBalance() public view returns (uint) {... */\n    tag_3:\n      callvalue\n      dup1\n      iszero\n      tag_16\n      jumpi\n      revert(0x00, 0x00)\n    tag_16:\n      pop\n      tag_17\n      tag_18\n      jump\t// in\n    tag_17:\n      mload(0x40)\n      tag_19\n      swap2\n      swap1\n      tag_15\n      jump\t// in\n    tag_19:\n      mload(0x40)\n      dup1\n      swap2\n      sub\n      swap1\n      return\n        /* \"workspace/2_Banking.sol\":862:1313  function withdraw(uint _amount) public {... */\n    tag_4:\n      callvalue\n      dup1\n      iszero\n      tag_20\n      jumpi\n      revert(0x00, 0x00)\n    tag_20:\n      pop\n      tag_21\n      0x04\n      dup1\n      calldatasize\n      sub\n      dup2\n      add\n      swap1\n      tag_22\n      swap2\n      swap1\n      tag_23\n      jump\t// in\n    tag_22:\n      tag_24\n      jump\t// in\n    tag_21:\n      stop\n        /* \"workspace/2_Banking.sol\":1690:2072  function minDeposit() public view returns (address) {... */\n    tag_5:\n      callvalue\n      dup1\n      iszero\n      tag_25\n      jumpi\n      revert(0x00, 0x00)\n    tag_25:\n      pop\n      tag_26\n      tag_27\n      jump\t// in\n    tag_26:\n      mload(0x40)\n      tag_28\n      swap2\n      swap1\n      tag_29\n      jump\t// in\n    tag_28:\n      mload(0x40)\n      dup1\n      swap2\n      sub\n      swap1\n      return\n        /* \"workspace/2_Banking.sol\":163:208  mapping(address => uint) public balanceLedger */\n    tag_6:\n      callvalue\n      dup1\n      iszero\n      tag_30\n      jumpi\n      revert(0x00, 0x00)\n    tag_30:\n      pop\n      tag_31\n      0x04\n      dup1\n      calldatasize\n      sub\n      dup2\n      add\n      swap1\n      tag_32\n      swap2\n      swap1\n      tag_33\n      jump\t// in\n    tag_32:\n      tag_34\n      jump\t// in\n    tag_31:\n      mload(0x40)\n      tag_35\n      swap2\n      swap1\n      tag_15\n      jump\t// in\n    tag_35:\n      mload(0x40)\n      dup1\n      swap2\n      sub\n      swap1\n      return\n        /* \"workspace/2_Banking.sol\":1390:1616  function transfer(address _to, uint _amount) public {... */\n    tag_7:\n      callvalue\n      dup1\n      iszero\n      tag_36\n      jumpi\n      revert(0x00, 0x00)\n    tag_36:\n      pop\n      tag_37\n      0x04\n      dup1\n      calldatasize\n      sub\n      dup2\n      add\n      swap1\n      tag_38\n      swap2\n      swap1\n      tag_39\n      jump\t// in\n    tag_38:\n      tag_40\n      jump\t// in\n    tag_37:\n      stop\n        /* \"workspace/2_Banking.sol\":277:321  mapping(uint => address) public addressIndex */\n    tag_8:\n      callvalue\n      dup1\n      iszero\n      tag_41\n      jumpi\n      revert(0x00, 0x00)\n    tag_41:\n      pop\n      tag_42\n      0x04\n      dup1\n      calldatasize\n      sub\n      dup2\n      add\n      swap1\n      tag_43\n      swap2\n      swap1\n      tag_23\n      jump\t// in\n    tag_43:\n      tag_44\n      jump\t// in\n    tag_42:\n      mload(0x40)\n      tag_45\n      swap2\n      swap1\n      tag_29\n      jump\t// in\n    tag_45:\n      mload(0x40)\n      dup1\n      swap2\n      sub\n      swap1\n      return\n        /* \"workspace/2_Banking.sol\":414:641  function deposit() public payable {... */\n    tag_9:\n      tag_46\n      tag_47\n      jump\t// in\n    tag_46:\n      stop\n        /* \"workspace/2_Banking.sol\":329:350  uint public userCount */\n    tag_13:\n      sload(0x02)\n      dup2\n      jump\t// out\n        /* \"workspace/2_Banking.sol\":699:800  function getBalance() public view returns (uint) {... */\n    tag_18:\n        /* \"workspace/2_Banking.sol\":742:746  uint */\n      0x00\n        /* \"workspace/2_Banking.sol\":766:779  balanceLedger */\n      0x00\n        /* \"workspace/2_Banking.sol\":766:791  balanceLedger[msg.sender] */\n      0x00\n        /* \"workspace/2_Banking.sol\":780:790  msg.sender */\n      caller\n        /* \"workspace/2_Banking.sol\":766:791  balanceLedger[msg.sender] */\n      0xffffffffffffffffffffffffffffffffffffffff\n      and\n      0xffffffffffffffffffffffffffffffffffffffff\n      and\n      dup2\n      mstore\n      0x20\n      add\n      swap1\n      dup2\n      mstore\n      0x20\n      add\n      0x00\n      keccak256\n      sload\n        /* \"workspace/2_Banking.sol\":759:791  return balanceLedger[msg.sender] */\n      swap1\n      pop\n        /* \"workspace/2_Banking.sol\":699:800  function getBalance() public view returns (uint) {... */\n      swap1\n      jump\t// out\n        /* \"workspace/2_Banking.sol\":862:1313  function withdraw(uint _amount) public {... */\n    tag_24:\n        /* \"workspace/2_Banking.sol\":949:956  _amount */\n      dup1\n        /* \"workspace/2_Banking.sol\":920:933  balanceLedger */\n      0x00\n        /* \"workspace/2_Banking.sol\":920:945  balanceLedger[msg.sender] */\n      0x00\n        /* \"workspace/2_Banking.sol\":934:944  msg.sender */\n      caller\n        /* \"workspace/2_Banking.sol\":920:945  balanceLedger[msg.sender] */\n      0xffffffffffffffffffffffffffffffffffffffff\n      and\n      0xffffffffffffffffffffffffffffffffffffffff\n      and\n      dup2\n      mstore\n      0x20\n      add\n      swap1\n      dup2\n      mstore\n      0x20\n      add\n      0x00\n      keccak256\n      sload\n        /* \"workspace/2_Banking.sol\":920:956  balanceLedger[msg.sender] >= _amount */\n      lt\n      iszero\n        /* \"workspace/2_Banking.sol\":912:979  require(balanceLedger[msg.sender] >= _amount, \"Insufficient funds\") */\n      tag_50\n      jumpi\n      mload(0x40)\n      0x08c379a000000000000000000000000000000000000000000000000000000000\n      dup2\n      mstore\n      0x04\n      add\n      tag_51\n      swap1\n      tag_52\n      jump\t// in\n    tag_51:\n      mload(0x40)\n      dup1\n      swap2\n      sub\n      swap1\n      revert\n    tag_50:\n        /* \"workspace/2_Banking.sol\":1098:1105  _amount */\n      dup1\n        /* \"workspace/2_Banking.sol\":1069:1082  balanceLedger */\n      0x00\n        /* \"workspace/2_Banking.sol\":1069:1094  balanceLedger[msg.sender] */\n      0x00\n        /* \"workspace/2_Banking.sol\":1083:1093  msg.sender */\n      caller\n        /* \"workspace/2_Banking.sol\":1069:1094  balanceLedger[msg.sender] */\n      0xffffffffffffffffffffffffffffffffffffffff\n      and\n      0xffffffffffffffffffffffffffffffffffffffff\n      and\n      dup2\n      mstore\n      0x20\n      add\n      swap1\n      dup2\n      mstore\n      0x20\n      add\n      0x00\n      keccak256\n      0x00\n        /* \"workspace/2_Banking.sol\":1069:1105  balanceLedger[msg.sender] -= _amount */\n      dup3\n      dup3\n      sload\n      tag_53\n      swap2\n      swap1\n      tag_54\n      jump\t// in\n    tag_53:\n      swap3\n      pop\n      pop\n      dup2\n      swap1\n      sstore\n      pop\n        /* \"workspace/2_Banking.sol\":1195:1207  bool success */\n      0x00\n        /* \"workspace/2_Banking.sol\":1221:1231  msg.sender */\n      caller\n        /* \"workspace/2_Banking.sol\":1213:1237  payable(msg.sender).call */\n      0xffffffffffffffffffffffffffffffffffffffff\n      and\n        /* \"workspace/2_Banking.sol\":1245:1252  _amount */\n      dup3\n        /* \"workspace/2_Banking.sol\":1213:1257  payable(msg.sender).call{value: _amount}(\"\") */\n      mload(0x40)\n      tag_55\n      swap1\n      tag_56\n      jump\t// in\n    tag_55:\n      0x00\n      mload(0x40)\n      dup1\n      dup4\n      sub\n      dup2\n      dup6\n      dup8\n      gas\n      call\n      swap3\n      pop\n      pop\n      pop\n      returndatasize\n      dup1\n      0x00\n      dup2\n      eq\n      tag_59\n      jumpi\n      mload(0x40)\n      swap2\n      pop\n      and(add(returndatasize, 0x3f), not(0x1f))\n      dup3\n      add\n      0x40\n      mstore\n      returndatasize\n      dup3\n      mstore\n      returndatasize\n      0x00\n      0x20\n      dup5\n      add\n      returndatacopy\n      jump(tag_58)\n    tag_59:\n      0x60\n      swap2\n      pop\n    tag_58:\n      pop\n        /* \"workspace/2_Banking.sol\":1194:1257  (bool success, ) = payable(msg.sender).call{value: _amount}(\"\") */\n      pop\n      swap1\n      pop\n        /* \"workspace/2_Banking.sol\":1276:1283  success */\n      dup1\n        /* \"workspace/2_Banking.sol\":1268:1305  require(success, \"Withdrawal failed\") */\n      tag_60\n      jumpi\n      mload(0x40)\n      0x08c379a000000000000000000000000000000000000000000000000000000000\n      dup2\n      mstore\n      0x04\n      add\n      tag_61\n      swap1\n      tag_62\n      jump\t// in\n    tag_61:\n      mload(0x40)\n      dup1\n      swap2\n      sub\n      swap1\n      revert\n    tag_60:\n        /* \"workspace/2_Banking.sol\":901:1313  {... */\n      pop\n        /* \"workspace/2_Banking.sol\":862:1313  function withdraw(uint _amount) public {... */\n      pop\n      jump\t// out\n        /* \"workspace/2_Banking.sol\":1690:2072  function minDeposit() public view returns (address) {... */\n    tag_27:\n        /* \"workspace/2_Banking.sol\":1733:1740  address */\n      0x00\n        /* \"workspace/2_Banking.sol\":1770:1771  0 */\n      0x00\n        /* \"workspace/2_Banking.sol\":1757:1766  userCount */\n      sload(0x02)\n        /* \"workspace/2_Banking.sol\":1757:1771  userCount == 0 */\n      sub\n        /* \"workspace/2_Banking.sol\":1753:1790  if (userCount == 0) return address(0) */\n      tag_64\n      jumpi\n        /* \"workspace/2_Banking.sol\":1788:1789  0 */\n      0x00\n        /* \"workspace/2_Banking.sol\":1773:1790  return address(0) */\n      swap1\n      pop\n      jump(tag_63)\n        /* \"workspace/2_Banking.sol\":1753:1790  if (userCount == 0) return address(0) */\n    tag_64:\n        /* \"workspace/2_Banking.sol\":1811:1826  address minUser */\n      0x00\n        /* \"workspace/2_Banking.sol\":1829:1841  addressIndex */\n      0x01\n        /* \"workspace/2_Banking.sol\":1829:1844  addressIndex[1] */\n      0x00\n        /* \"workspace/2_Banking.sol\":1842:1843  1 */\n      0x01\n        /* \"workspace/2_Banking.sol\":1829:1844  addressIndex[1] */\n      dup2\n      mstore\n      0x20\n      add\n      swap1\n      dup2\n      mstore\n      0x20\n      add\n      0x00\n      keccak256\n      0x00\n      swap1\n      sload\n      swap1\n      0x0100\n      exp\n      swap1\n      div\n      0xffffffffffffffffffffffffffffffffffffffff\n      and\n        /* \"workspace/2_Banking.sol\":1811:1844  address minUser = addressIndex[1] */\n      swap1\n      pop\n        /* \"workspace/2_Banking.sol\":1860:1866  uint i */\n      0x00\n        /* \"workspace/2_Banking.sol\":1869:1870  2 */\n      0x02\n        /* \"workspace/2_Banking.sol\":1860:1870  uint i = 2 */\n      swap1\n      pop\n        /* \"workspace/2_Banking.sol\":1855:2040  for (uint i = 2; i <= userCount; i++) {... */\n    tag_65:\n        /* \"workspace/2_Banking.sol\":1877:1886  userCount */\n      sload(0x02)\n        /* \"workspace/2_Banking.sol\":1872:1873  i */\n      dup2\n        /* \"workspace/2_Banking.sol\":1872:1886  i <= userCount */\n      gt\n        /* \"workspace/2_Banking.sol\":1855:2040  for (uint i = 2; i <= userCount; i++) {... */\n      tag_66\n      jumpi\n        /* \"workspace/2_Banking.sol\":1945:1958  balanceLedger */\n      0x00\n        /* \"workspace/2_Banking.sol\":1945:1967  balanceLedger[minUser] */\n      0x00\n        /* \"workspace/2_Banking.sol\":1959:1966  minUser */\n      dup4\n        /* \"workspace/2_Banking.sol\":1945:1967  balanceLedger[minUser] */\n      0xffffffffffffffffffffffffffffffffffffffff\n      and\n      0xffffffffffffffffffffffffffffffffffffffff\n      and\n      dup2\n      mstore\n      0x20\n      add\n      swap1\n      dup2\n      mstore\n      0x20\n      add\n      0x00\n      keccak256\n      sload\n        /* \"workspace/2_Banking.sol\":1912:1925  balanceLedger */\n      0x00\n        /* \"workspace/2_Banking.sol\":1912:1942  balanceLedger[addressIndex[i]] */\n      0x00\n        /* \"workspace/2_Banking.sol\":1926:1938  addressIndex */\n      0x01\n        /* \"workspace/2_Banking.sol\":1926:1941  addressIndex[i] */\n      0x00\n        /* \"workspace/2_Banking.sol\":1939:1940  i */\n      dup6\n        /* \"workspace/2_Banking.sol\":1926:1941  addressIndex[i] */\n      dup2\n      mstore\n      0x20\n      add\n      swap1\n      dup2\n      mstore\n      0x20\n      add\n      0x00\n      keccak256\n      0x00\n      swap1\n      sload\n      swap1\n      0x0100\n      exp\n      swap1\n      div\n      0xffffffffffffffffffffffffffffffffffffffff\n      and\n        /* \"workspace/2_Banking.sol\":1912:1942  balanceLedger[addressIndex[i]] */\n      0xffffffffffffffffffffffffffffffffffffffff\n      and\n      0xffffffffffffffffffffffffffffffffffffffff\n      and\n      dup2\n      mstore\n      0x20\n      add\n      swap1\n      dup2\n      mstore\n      0x20\n      add\n      0x00\n      keccak256\n      sload\n        /* \"workspace/2_Banking.sol\":1912:1967  balanceLedger[addressIndex[i]] < balanceLedger[minUser] */\n      lt\n        /* \"workspace/2_Banking.sol\":1908:2029  if (balanceLedger[addressIndex[i]] < balanceLedger[minUser]) {... */\n      iszero\n      tag_68\n      jumpi\n        /* \"workspace/2_Banking.sol\":1998:2010  addressIndex */\n      0x01\n        /* \"workspace/2_Banking.sol\":1998:2013  addressIndex[i] */\n      0x00\n        /* \"workspace/2_Banking.sol\":2011:2012  i */\n      dup3\n        /* \"workspace/2_Banking.sol\":1998:2013  addressIndex[i] */\n      dup2\n      mstore\n      0x20\n      add\n      swap1\n      dup2\n      mstore\n      0x20\n      add\n      0x00\n      keccak256\n      0x00\n      swap1\n      sload\n      swap1\n      0x0100\n      exp\n      swap1\n      div\n      0xffffffffffffffffffffffffffffffffffffffff\n      and\n        /* \"workspace/2_Banking.sol\":1988:2013  minUser = addressIndex[i] */\n      swap2\n      pop\n        /* \"workspace/2_Banking.sol\":1908:2029  if (balanceLedger[addressIndex[i]] < balanceLedger[minUser]) {... */\n    tag_68:\n        /* \"workspace/2_Banking.sol\":1888:1891  i++ */\n      dup1\n      dup1\n      tag_69\n      swap1\n      tag_70\n      jump\t// in\n    tag_69:\n      swap2\n      pop\n      pop\n        /* \"workspace/2_Banking.sol\":1855:2040  for (uint i = 2; i <= userCount; i++) {... */\n      jump(tag_65)\n    tag_66:\n      pop\n        /* \"workspace/2_Banking.sol\":2057:2064  minUser */\n      dup1\n        /* \"workspace/2_Banking.sol\":2050:2064  return minUser */\n      swap2\n      pop\n      pop\n        /* \"workspace/2_Banking.sol\":1690:2072  function minDeposit() public view returns (address) {... */\n    tag_63:\n      swap1\n      jump\t// out\n        /* \"workspace/2_Banking.sol\":163:208  mapping(address => uint) public balanceLedger */\n    tag_34:\n      mstore(0x20, 0x00)\n      dup1\n      0x00\n      mstore\n      keccak256(0x00, 0x40)\n      0x00\n      swap2\n      pop\n      swap1\n      pop\n      sload\n      dup2\n      jump\t// out\n        /* \"workspace/2_Banking.sol\":1390:1616  function transfer(address _to, uint _amount) public {... */\n    tag_40:\n        /* \"workspace/2_Banking.sol\":1490:1497  _amount */\n      dup1\n        /* \"workspace/2_Banking.sol\":1461:1474  balanceLedger */\n      0x00\n        /* \"workspace/2_Banking.sol\":1461:1486  balanceLedger[msg.sender] */\n      0x00\n        /* \"workspace/2_Banking.sol\":1475:1485  msg.sender */\n      caller\n        /* \"workspace/2_Banking.sol\":1461:1486  balanceLedger[msg.sender] */\n      0xffffffffffffffffffffffffffffffffffffffff\n      and\n      0xffffffffffffffffffffffffffffffffffffffff\n      and\n      dup2\n      mstore\n      0x20\n      add\n      swap1\n      dup2\n      mstore\n      0x20\n      add\n      0x00\n      keccak256\n      sload\n        /* \"workspace/2_Banking.sol\":1461:1497  balanceLedger[msg.sender] >= _amount */\n      lt\n      iszero\n        /* \"workspace/2_Banking.sol\":1453:1520  require(balanceLedger[msg.sender] >= _amount, \"Insufficient funds\") */\n      tag_72\n      jumpi\n      mload(0x40)\n      0x08c379a000000000000000000000000000000000000000000000000000000000\n      dup2\n      mstore\n      0x04\n      add\n      tag_73\n      swap1\n      tag_52\n      jump\t// in\n    tag_73:\n      mload(0x40)\n      dup1\n      swap2\n      sub\n      swap1\n      revert\n    tag_72:\n        /* \"workspace/2_Banking.sol\":1561:1568  _amount */\n      dup1\n        /* \"workspace/2_Banking.sol\":1532:1545  balanceLedger */\n      0x00\n        /* \"workspace/2_Banking.sol\":1532:1557  balanceLedger[msg.sender] */\n      0x00\n        /* \"workspace/2_Banking.sol\":1546:1556  msg.sender */\n      caller\n        /* \"workspace/2_Banking.sol\":1532:1557  balanceLedger[msg.sender] */\n      0xffffffffffffffffffffffffffffffffffffffff\n      and\n      0xffffffffffffffffffffffffffffffffffffffff\n      and\n      dup2\n      mstore\n      0x20\n      add\n      swap1\n      dup2\n      mstore\n      0x20\n      add\n      0x00\n      keccak256\n      0x00\n        /* \"workspace/2_Banking.sol\":1532:1568  balanceLedger[msg.sender] -= _amount */\n      dup3\n      dup3\n      sload\n      tag_74\n      swap2\n      swap1\n      tag_54\n      jump\t// in\n    tag_74:\n      swap3\n      pop\n      pop\n      dup2\n      swap1\n      sstore\n      pop\n        /* \"workspace/2_Banking.sol\":1601:1608  _amount */\n      dup1\n        /* \"workspace/2_Banking.sol\":1579:1592  balanceLedger */\n      0x00\n        /* \"workspace/2_Banking.sol\":1579:1597  balanceLedger[_to] */\n      0x00\n        /* \"workspace/2_Banking.sol\":1593:1596  _to */\n      dup5\n        /* \"workspace/2_Banking.sol\":1579:1597  balanceLedger[_to] */\n      0xffffffffffffffffffffffffffffffffffffffff\n      and\n      0xffffffffffffffffffffffffffffffffffffffff\n      and\n      dup2\n      mstore\n      0x20\n      add\n      swap1\n      dup2\n      mstore\n      0x20\n      add\n      0x00\n      keccak256\n      0x00\n        /* \"workspace/2_Banking.sol\":1579:1608  balanceLedger[_to] += _amount */\n      dup3\n      dup3\n      sload\n      tag_75\n      swap2\n      swap1\n      tag_76\n      jump\t// in\n    tag_75:\n      swap3\n      pop\n      pop\n      dup2\n      swap1\n      sstore\n      pop\n        /* \"workspace/2_Banking.sol\":1390:1616  function transfer(address _to, uint _amount) public {... */\n      pop\n      pop\n      jump\t// out\n        /* \"workspace/2_Banking.sol\":277:321  mapping(uint => address) public addressIndex */\n    tag_44:\n      mstore(0x20, 0x01)\n      dup1\n      0x00\n      mstore\n      keccak256(0x00, 0x40)\n      0x00\n      swap2\n      pop\n      sload\n      swap1\n      0x0100\n      exp\n      swap1\n      div\n      0xffffffffffffffffffffffffffffffffffffffff\n      and\n      dup2\n      jump\t// out\n        /* \"workspace/2_Banking.sol\":414:641  function deposit() public payable {... */\n    tag_47:\n        /* \"workspace/2_Banking.sol\":492:493  0 */\n      0x00\n        /* \"workspace/2_Banking.sol\":463:476  balanceLedger */\n      0x00\n        /* \"workspace/2_Banking.sol\":463:488  balanceLedger[msg.sender] */\n      0x00\n        /* \"workspace/2_Banking.sol\":477:487  msg.sender */\n      caller\n        /* \"workspace/2_Banking.sol\":463:488  balanceLedger[msg.sender] */\n      0xffffffffffffffffffffffffffffffffffffffff\n      and\n      0xffffffffffffffffffffffffffffffffffffffff\n      and\n      dup2\n      mstore\n      0x20\n      add\n      swap1\n      dup2\n      mstore\n      0x20\n      add\n      0x00\n      keccak256\n      sload\n        /* \"workspace/2_Banking.sol\":463:493  balanceLedger[msg.sender] == 0 */\n      sub\n        /* \"workspace/2_Banking.sol\":459:585  if (balanceLedger[msg.sender] == 0) {... */\n      tag_78\n      jumpi\n        /* \"workspace/2_Banking.sol\":510:519  userCount */\n      0x02\n      0x00\n        /* \"workspace/2_Banking.sol\":510:521  userCount++ */\n      dup2\n      sload\n      dup1\n      swap3\n      swap2\n      swap1\n      tag_79\n      swap1\n      tag_70\n      jump\t// in\n    tag_79:\n      swap2\n      swap1\n      pop\n      sstore\n      pop\n        /* \"workspace/2_Banking.sol\":562:572  msg.sender */\n      caller\n        /* \"workspace/2_Banking.sol\":536:548  addressIndex */\n      0x01\n        /* \"workspace/2_Banking.sol\":536:559  addressIndex[userCount] */\n      0x00\n        /* \"workspace/2_Banking.sol\":549:558  userCount */\n      sload(0x02)\n        /* \"workspace/2_Banking.sol\":536:559  addressIndex[userCount] */\n      dup2\n      mstore\n      0x20\n      add\n      swap1\n      dup2\n      mstore\n      0x20\n      add\n      0x00\n      keccak256\n      0x00\n        /* \"workspace/2_Banking.sol\":536:572  addressIndex[userCount] = msg.sender */\n      0x0100\n      exp\n      dup2\n      sload\n      dup2\n      0xffffffffffffffffffffffffffffffffffffffff\n      mul\n      not\n      and\n      swap1\n      dup4\n      0xffffffffffffffffffffffffffffffffffffffff\n      and\n      mul\n      or\n      swap1\n      sstore\n      pop\n        /* \"workspace/2_Banking.sol\":459:585  if (balanceLedger[msg.sender] == 0) {... */\n    tag_78:\n        /* \"workspace/2_Banking.sol\":624:633  msg.value */\n      callvalue\n        /* \"workspace/2_Banking.sol\":595:608  balanceLedger */\n      0x00\n        /* \"workspace/2_Banking.sol\":595:620  balanceLedger[msg.sender] */\n      0x00\n        /* \"workspace/2_Banking.sol\":609:619  msg.sender */\n      caller\n        /* \"workspace/2_Banking.sol\":595:620  balanceLedger[msg.sender] */\n      0xffffffffffffffffffffffffffffffffffffffff\n      and\n      0xffffffffffffffffffffffffffffffffffffffff\n      and\n      dup2\n      mstore\n      0x20\n      add\n      swap1\n      dup2\n      mstore\n      0x20\n      add\n      0x00\n      keccak256\n      0x00\n        /* \"workspace/2_Banking.sol\":595:633  balanceLedger[msg.sender] += msg.value */\n      dup3\n      dup3\n      sload\n      tag_80\n      swap2\n      swap1\n      tag_76\n      jump\t// in\n    tag_80:\n      swap3\n      pop\n      pop\n      dup2\n      swap1\n      sstore\n      pop\n        /* \"workspace/2_Banking.sol\":414:641  function deposit() public payable {... */\n      jump\t// out\n        /* \"#utility.yul\":7:84   */\n    tag_81:\n        /* \"#utility.yul\":44:51   */\n      0x00\n        /* \"#utility.yul\":73:78   */\n      dup2\n        /* \"#utility.yul\":62:78   */\n      swap1\n      pop\n        /* \"#utility.yul\":7:84   */\n      swap2\n      swap1\n      pop\n      jump\t// out\n        /* \"#utility.yul\":90:208   */\n    tag_82:\n        /* \"#utility.yul\":177:201   */\n      tag_105\n        /* \"#utility.yul\":195:200   */\n      dup2\n        /* \"#utility.yul\":177:201   */\n      tag_81\n      jump\t// in\n    tag_105:\n        /* \"#utility.yul\":172:175   */\n      dup3\n        /* \"#utility.yul\":165:202   */\n      mstore\n        /* \"#utility.yul\":90:208   */\n      pop\n      pop\n      jump\t// out\n        /* \"#utility.yul\":214:436   */\n    tag_15:\n        /* \"#utility.yul\":307:311   */\n      0x00\n        /* \"#utility.yul\":345:347   */\n      0x20\n        /* \"#utility.yul\":334:343   */\n      dup3\n        /* \"#utility.yul\":330:348   */\n      add\n        /* \"#utility.yul\":322:348   */\n      swap1\n      pop\n        /* \"#utility.yul\":358:429   */\n      tag_107\n        /* \"#utility.yul\":426:427   */\n      0x00\n        /* \"#utility.yul\":415:424   */\n      dup4\n        /* \"#utility.yul\":411:428   */\n      add\n        /* \"#utility.yul\":402:408   */\n      dup5\n        /* \"#utility.yul\":358:429   */\n      tag_82\n      jump\t// in\n    tag_107:\n        /* \"#utility.yul\":214:436   */\n      swap3\n      swap2\n      pop\n      pop\n      jump\t// out\n        /* \"#utility.yul\":523:640   */\n    tag_84:\n        /* \"#utility.yul\":632:633   */\n      0x00\n        /* \"#utility.yul\":629:630   */\n      0x00\n        /* \"#utility.yul\":622:634   */\n      revert\n        /* \"#utility.yul\":769:891   */\n    tag_86:\n        /* \"#utility.yul\":842:866   */\n      tag_112\n        /* \"#utility.yul\":860:865   */\n      dup2\n        /* \"#utility.yul\":842:866   */\n      tag_81\n      jump\t// in\n    tag_112:\n        /* \"#utility.yul\":835:840   */\n      dup2\n        /* \"#utility.yul\":832:867   */\n      eq\n        /* \"#utility.yul\":822:885   */\n      tag_113\n      jumpi\n        /* \"#utility.yul\":881:882   */\n      0x00\n        /* \"#utility.yul\":878:879   */\n      0x00\n        /* \"#utility.yul\":871:883   */\n      revert\n        /* \"#utility.yul\":822:885   */\n    tag_113:\n        /* \"#utility.yul\":769:891   */\n      pop\n      jump\t// out\n        /* \"#utility.yul\":897:1036   */\n    tag_87:\n        /* \"#utility.yul\":943:948   */\n      0x00\n        /* \"#utility.yul\":981:987   */\n      dup2\n        /* \"#utility.yul\":968:988   */\n      calldataload\n        /* \"#utility.yul\":959:988   */\n      swap1\n      pop\n        /* \"#utility.yul\":997:1030   */\n      tag_115\n        /* \"#utility.yul\":1024:1029   */\n      dup2\n        /* \"#utility.yul\":997:1030   */\n      tag_86\n      jump\t// in\n    tag_115:\n        /* \"#utility.yul\":897:1036   */\n      swap3\n      swap2\n      pop\n      pop\n      jump\t// out\n        /* \"#utility.yul\":1042:1371   */\n    tag_23:\n        /* \"#utility.yul\":1101:1107   */\n      0x00\n        /* \"#utility.yul\":1150:1152   */\n      0x20\n        /* \"#utility.yul\":1138:1147   */\n      dup3\n        /* \"#utility.yul\":1129:1136   */\n      dup5\n        /* \"#utility.yul\":1125:1148   */\n      sub\n        /* \"#utility.yul\":1121:1153   */\n      slt\n        /* \"#utility.yul\":1118:1237   */\n      iszero\n      tag_117\n      jumpi\n        /* \"#utility.yul\":1156:1235   */\n      tag_118\n      tag_84\n      jump\t// in\n    tag_118:\n        /* \"#utility.yul\":1118:1237   */\n    tag_117:\n        /* \"#utility.yul\":1276:1277   */\n      0x00\n        /* \"#utility.yul\":1301:1354   */\n      tag_119\n        /* \"#utility.yul\":1346:1353   */\n      dup5\n        /* \"#utility.yul\":1337:1343   */\n      dup3\n        /* \"#utility.yul\":1326:1335   */\n      dup6\n        /* \"#utility.yul\":1322:1344   */\n      add\n        /* \"#utility.yul\":1301:1354   */\n      tag_87\n      jump\t// in\n    tag_119:\n        /* \"#utility.yul\":1291:1354   */\n      swap2\n      pop\n        /* \"#utility.yul\":1247:1364   */\n      pop\n        /* \"#utility.yul\":1042:1371   */\n      swap3\n      swap2\n      pop\n      pop\n      jump\t// out\n        /* \"#utility.yul\":1377:1503   */\n    tag_88:\n        /* \"#utility.yul\":1414:1421   */\n      0x00\n        /* \"#utility.yul\":1454:1496   */\n      0xffffffffffffffffffffffffffffffffffffffff\n        /* \"#utility.yul\":1447:1452   */\n      dup3\n        /* \"#utility.yul\":1443:1497   */\n      and\n        /* \"#utility.yul\":1432:1497   */\n      swap1\n      pop\n        /* \"#utility.yul\":1377:1503   */\n      swap2\n      swap1\n      pop\n      jump\t// out\n        /* \"#utility.yul\":1509:1605   */\n    tag_89:\n        /* \"#utility.yul\":1546:1553   */\n      0x00\n        /* \"#utility.yul\":1575:1599   */\n      tag_122\n        /* \"#utility.yul\":1593:1598   */\n      dup3\n        /* \"#utility.yul\":1575:1599   */\n      tag_88\n      jump\t// in\n    tag_122:\n        /* \"#utility.yul\":1564:1599   */\n      swap1\n      pop\n        /* \"#utility.yul\":1509:1605   */\n      swap2\n      swap1\n      pop\n      jump\t// out\n        /* \"#utility.yul\":1611:1729   */\n    tag_90:\n        /* \"#utility.yul\":1698:1722   */\n      tag_124\n        /* \"#utility.yul\":1716:1721   */\n      dup2\n        /* \"#utility.yul\":1698:1722   */\n      tag_89\n      jump\t// in\n    tag_124:\n        /* \"#utility.yul\":1693:1696   */\n      dup3\n        /* \"#utility.yul\":1686:1723   */\n      mstore\n        /* \"#utility.yul\":1611:1729   */\n      pop\n      pop\n      jump\t// out\n        /* \"#utility.yul\":1735:1957   */\n    tag_29:\n        /* \"#utility.yul\":1828:1832   */\n      0x00\n        /* \"#utility.yul\":1866:1868   */\n      0x20\n        /* \"#utility.yul\":1855:1864   */\n      dup3\n        /* \"#utility.yul\":1851:1869   */\n      add\n        /* \"#utility.yul\":1843:1869   */\n      swap1\n      pop\n        /* \"#utility.yul\":1879:1950   */\n      tag_126\n        /* \"#utility.yul\":1947:1948   */\n      0x00\n        /* \"#utility.yul\":1936:1945   */\n      dup4\n        /* \"#utility.yul\":1932:1949   */\n      add\n        /* \"#utility.yul\":1923:1929   */\n      dup5\n        /* \"#utility.yul\":1879:1950   */\n      tag_90\n      jump\t// in\n    tag_126:\n        /* \"#utility.yul\":1735:1957   */\n      swap3\n      swap2\n      pop\n      pop\n      jump\t// out\n        /* \"#utility.yul\":1963:2085   */\n    tag_91:\n        /* \"#utility.yul\":2036:2060   */\n      tag_128\n        /* \"#utility.yul\":2054:2059   */\n      dup2\n        /* \"#utility.yul\":2036:2060   */\n      tag_89\n      jump\t// in\n    tag_128:\n        /* \"#utility.yul\":2029:2034   */\n      dup2\n        /* \"#utility.yul\":2026:2061   */\n      eq\n        /* \"#utility.yul\":2016:2079   */\n      tag_129\n      jumpi\n        /* \"#utility.yul\":2075:2076   */\n      0x00\n        /* \"#utility.yul\":2072:2073   */\n      0x00\n        /* \"#utility.yul\":2065:2077   */\n      revert\n        /* \"#utility.yul\":2016:2079   */\n    tag_129:\n        /* \"#utility.yul\":1963:2085   */\n      pop\n      jump\t// out\n        /* \"#utility.yul\":2091:2230   */\n    tag_92:\n        /* \"#utility.yul\":2137:2142   */\n      0x00\n        /* \"#utility.yul\":2175:2181   */\n      dup2\n        /* \"#utility.yul\":2162:2182   */\n      calldataload\n        /* \"#utility.yul\":2153:2182   */\n      swap1\n      pop\n        /* \"#utility.yul\":2191:2224   */\n      tag_131\n        /* \"#utility.yul\":2218:2223   */\n      dup2\n        /* \"#utility.yul\":2191:2224   */\n      tag_91\n      jump\t// in\n    tag_131:\n        /* \"#utility.yul\":2091:2230   */\n      swap3\n      swap2\n      pop\n      pop\n      jump\t// out\n        /* \"#utility.yul\":2236:2565   */\n    tag_33:\n        /* \"#utility.yul\":2295:2301   */\n      0x00\n        /* \"#utility.yul\":2344:2346   */\n      0x20\n        /* \"#utility.yul\":2332:2341   */\n      dup3\n        /* \"#utility.yul\":2323:2330   */\n      dup5\n        /* \"#utility.yul\":2319:2342   */\n      sub\n        /* \"#utility.yul\":2315:2347   */\n      slt\n        /* \"#utility.yul\":2312:2431   */\n      iszero\n      tag_133\n      jumpi\n        /* \"#utility.yul\":2350:2429   */\n      tag_134\n      tag_84\n      jump\t// in\n    tag_134:\n        /* \"#utility.yul\":2312:2431   */\n    tag_133:\n        /* \"#utility.yul\":2470:2471   */\n      0x00\n        /* \"#utility.yul\":2495:2548   */\n      tag_135\n        /* \"#utility.yul\":2540:2547   */\n      dup5\n        /* \"#utility.yul\":2531:2537   */\n      dup3\n        /* \"#utility.yul\":2520:2529   */\n      dup6\n        /* \"#utility.yul\":2516:2538   */\n      add\n        /* \"#utility.yul\":2495:2548   */\n      tag_92\n      jump\t// in\n    tag_135:\n        /* \"#utility.yul\":2485:2548   */\n      swap2\n      pop\n        /* \"#utility.yul\":2441:2558   */\n      pop\n        /* \"#utility.yul\":2236:2565   */\n      swap3\n      swap2\n      pop\n      pop\n      jump\t// out\n        /* \"#utility.yul\":2571:3045   */\n    tag_39:\n        /* \"#utility.yul\":2639:2645   */\n      0x00\n        /* \"#utility.yul\":2647:2653   */\n      0x00\n        /* \"#utility.yul\":2696:2698   */\n      0x40\n        /* \"#utility.yul\":2684:2693   */\n      dup4\n        /* \"#utility.yul\":2675:2682   */\n      dup6\n        /* \"#utility.yul\":2671:2694   */\n      sub\n        /* \"#utility.yul\":2667:2699   */\n      slt\n        /* \"#utility.yul\":2664:2783   */\n      iszero\n      tag_137\n      jumpi\n        /* \"#utility.yul\":2702:2781   */\n      tag_138\n      tag_84\n      jump\t// in\n    tag_138:\n        /* \"#utility.yul\":2664:2783   */\n    tag_137:\n        /* \"#utility.yul\":2822:2823   */\n      0x00\n        /* \"#utility.yul\":2847:2900   */\n      tag_139\n        /* \"#utility.yul\":2892:2899   */\n      dup6\n        /* \"#utility.yul\":2883:2889   */\n      dup3\n        /* \"#utility.yul\":2872:2881   */\n      dup7\n        /* \"#utility.yul\":2868:2890   */\n      add\n        /* \"#utility.yul\":2847:2900   */\n      tag_92\n      jump\t// in\n    tag_139:\n        /* \"#utility.yul\":2837:2900   */\n      swap3\n      pop\n        /* \"#utility.yul\":2793:2910   */\n      pop\n        /* \"#utility.yul\":2949:2951   */\n      0x20\n        /* \"#utility.yul\":2975:3028   */\n      tag_140\n        /* \"#utility.yul\":3020:3027   */\n      dup6\n        /* \"#utility.yul\":3011:3017   */\n      dup3\n        /* \"#utility.yul\":3000:3009   */\n      dup7\n        /* \"#utility.yul\":2996:3018   */\n      add\n        /* \"#utility.yul\":2975:3028   */\n      tag_87\n      jump\t// in\n    tag_140:\n        /* \"#utility.yul\":2965:3028   */\n      swap2\n      pop\n        /* \"#utility.yul\":2920:3038   */\n      pop\n        /* \"#utility.yul\":2571:3045   */\n      swap3\n      pop\n      swap3\n      swap1\n      pop\n      jump\t// out\n        /* \"#utility.yul\":3051:3220   */\n    tag_93:\n        /* \"#utility.yul\":3135:3146   */\n      0x00\n        /* \"#utility.yul\":3169:3175   */\n      dup3\n        /* \"#utility.yul\":3164:3167   */\n      dup3\n        /* \"#utility.yul\":3157:3176   */\n      mstore\n        /* \"#utility.yul\":3209:3213   */\n      0x20\n        /* \"#utility.yul\":3204:3207   */\n      dup3\n        /* \"#utility.yul\":3200:3214   */\n      add\n        /* \"#utility.yul\":3185:3214   */\n      swap1\n      pop\n        /* \"#utility.yul\":3051:3220   */\n      swap3\n      swap2\n      pop\n      pop\n      jump\t// out\n        /* \"#utility.yul\":3226:3394   */\n    tag_94:\n        /* \"#utility.yul\":3366:3386   */\n      0x496e73756666696369656e742066756e64730000000000000000000000000000\n        /* \"#utility.yul\":3362:3363   */\n      0x00\n        /* \"#utility.yul\":3354:3360   */\n      dup3\n        /* \"#utility.yul\":3350:3364   */\n      add\n        /* \"#utility.yul\":3343:3387   */\n      mstore\n        /* \"#utility.yul\":3226:3394   */\n      pop\n      jump\t// out\n        /* \"#utility.yul\":3400:3766   */\n    tag_95:\n        /* \"#utility.yul\":3542:3545   */\n      0x00\n        /* \"#utility.yul\":3563:3630   */\n      tag_144\n        /* \"#utility.yul\":3627:3629   */\n      0x12\n        /* \"#utility.yul\":3622:3625   */\n      dup4\n        /* \"#utility.yul\":3563:3630   */\n      tag_93\n      jump\t// in\n    tag_144:\n        /* \"#utility.yul\":3556:3630   */\n      swap2\n      pop\n        /* \"#utility.yul\":3639:3732   */\n      tag_145\n        /* \"#utility.yul\":3728:3731   */\n      dup3\n        /* \"#utility.yul\":3639:3732   */\n      tag_94\n      jump\t// in\n    tag_145:\n        /* \"#utility.yul\":3757:3759   */\n      0x20\n        /* \"#utility.yul\":3752:3755   */\n      dup3\n        /* \"#utility.yul\":3748:3760   */\n      add\n        /* \"#utility.yul\":3741:3760   */\n      swap1\n      pop\n        /* \"#utility.yul\":3400:3766   */\n      swap2\n      swap1\n      pop\n      jump\t// out\n        /* \"#utility.yul\":3772:4191   */\n    tag_52:\n        /* \"#utility.yul\":3938:3942   */\n      0x00\n        /* \"#utility.yul\":3976:3978   */\n      0x20\n        /* \"#utility.yul\":3965:3974   */\n      dup3\n        /* \"#utility.yul\":3961:3979   */\n      add\n        /* \"#utility.yul\":3953:3979   */\n      swap1\n      pop\n        /* \"#utility.yul\":4025:4034   */\n      dup2\n        /* \"#utility.yul\":4019:4023   */\n      dup2\n        /* \"#utility.yul\":4015:4035   */\n      sub\n        /* \"#utility.yul\":4011:4012   */\n      0x00\n        /* \"#utility.yul\":4000:4009   */\n      dup4\n        /* \"#utility.yul\":3996:4013   */\n      add\n        /* \"#utility.yul\":3989:4036   */\n      mstore\n        /* \"#utility.yul\":4053:4184   */\n      tag_147\n        /* \"#utility.yul\":4179:4183   */\n      dup2\n        /* \"#utility.yul\":4053:4184   */\n      tag_95\n      jump\t// in\n    tag_147:\n        /* \"#utility.yul\":4045:4184   */\n      swap1\n      pop\n        /* \"#utility.yul\":3772:4191   */\n      swap2\n      swap1\n      pop\n      jump\t// out\n        /* \"#utility.yul\":4197:4377   */\n    tag_96:\n        /* \"#utility.yul\":4245:4322   */\n      0x4e487b7100000000000000000000000000000000000000000000000000000000\n        /* \"#utility.yul\":4242:4243   */\n      0x00\n        /* \"#utility.yul\":4235:4323   */\n      mstore\n        /* \"#utility.yul\":4342:4346   */\n      0x11\n        /* \"#utility.yul\":4339:4340   */\n      0x04\n        /* \"#utility.yul\":4332:4347   */\n      mstore\n        /* \"#utility.yul\":4366:4370   */\n      0x24\n        /* \"#utility.yul\":4363:4364   */\n      0x00\n        /* \"#utility.yul\":4356:4371   */\n      revert\n        /* \"#utility.yul\":4383:4577   */\n    tag_54:\n        /* \"#utility.yul\":4423:4427   */\n      0x00\n        /* \"#utility.yul\":4443:4463   */\n      tag_150\n        /* \"#utility.yul\":4461:4462   */\n      dup3\n        /* \"#utility.yul\":4443:4463   */\n      tag_81\n      jump\t// in\n    tag_150:\n        /* \"#utility.yul\":4438:4463   */\n      swap2\n      pop\n        /* \"#utility.yul\":4477:4497   */\n      tag_151\n        /* \"#utility.yul\":4495:4496   */\n      dup4\n        /* \"#utility.yul\":4477:4497   */\n      tag_81\n      jump\t// in\n    tag_151:\n        /* \"#utility.yul\":4472:4497   */\n      swap3\n      pop\n        /* \"#utility.yul\":4521:4522   */\n      dup3\n        /* \"#utility.yul\":4518:4519   */\n      dup3\n        /* \"#utility.yul\":4514:4523   */\n      sub\n        /* \"#utility.yul\":4506:4523   */\n      swap1\n      pop\n        /* \"#utility.yul\":4545:4546   */\n      dup2\n        /* \"#utility.yul\":4539:4543   */\n      dup2\n        /* \"#utility.yul\":4536:4547   */\n      gt\n        /* \"#utility.yul\":4533:4570   */\n      iszero\n      tag_152\n      jumpi\n        /* \"#utility.yul\":4550:4568   */\n      tag_153\n      tag_96\n      jump\t// in\n    tag_153:\n        /* \"#utility.yul\":4533:4570   */\n    tag_152:\n        /* \"#utility.yul\":4383:4577   */\n      swap3\n      swap2\n      pop\n      pop\n      jump\t// out\n        /* \"#utility.yul\":4583:4730   */\n    tag_97:\n        /* \"#utility.yul\":4684:4695   */\n      0x00\n        /* \"#utility.yul\":4721:4724   */\n      dup2\n        /* \"#utility.yul\":4706:4724   */\n      swap1\n      pop\n        /* \"#utility.yul\":4583:4730   */\n      swap3\n      swap2\n      pop\n      pop\n      jump\t// out\n        /* \"#utility.yul\":4736:4850   */\n    tag_98:\n      pop\n      jump\t// out\n        /* \"#utility.yul\":4856:5254   */\n    tag_99:\n        /* \"#utility.yul\":5015:5018   */\n      0x00\n        /* \"#utility.yul\":5036:5119   */\n      tag_157\n        /* \"#utility.yul\":5117:5118   */\n      0x00\n        /* \"#utility.yul\":5112:5115   */\n      dup4\n        /* \"#utility.yul\":5036:5119   */\n      tag_97\n      jump\t// in\n    tag_157:\n        /* \"#utility.yul\":5029:5119   */\n      swap2\n      pop\n        /* \"#utility.yul\":5128:5221   */\n      tag_158\n        /* \"#utility.yul\":5217:5220   */\n      dup3\n        /* \"#utility.yul\":5128:5221   */\n      tag_98\n      jump\t// in\n    tag_158:\n        /* \"#utility.yul\":5246:5247   */\n      0x00\n        /* \"#utility.yul\":5241:5244   */\n      dup3\n        /* \"#utility.yul\":5237:5248   */\n      add\n        /* \"#utility.yul\":5230:5248   */\n      swap1\n      pop\n        /* \"#utility.yul\":4856:5254   */\n      swap2\n      swap1\n      pop\n      jump\t// out\n        /* \"#utility.yul\":5260:5639   */\n    tag_56:\n        /* \"#utility.yul\":5444:5447   */\n      0x00\n        /* \"#utility.yul\":5466:5613   */\n      tag_160\n        /* \"#utility.yul\":5609:5612   */\n      dup3\n        /* \"#utility.yul\":5466:5613   */\n      tag_99\n      jump\t// in\n    tag_160:\n        /* \"#utility.yul\":5459:5613   */\n      swap2\n      pop\n        /* \"#utility.yul\":5630:5633   */\n      dup2\n        /* \"#utility.yul\":5623:5633   */\n      swap1\n      pop\n        /* \"#utility.yul\":5260:5639   */\n      swap2\n      swap1\n      pop\n      jump\t// out\n        /* \"#utility.yul\":5645:5812   */\n    tag_100:\n        /* \"#utility.yul\":5785:5804   */\n      0x5769746864726177616c206661696c6564000000000000000000000000000000\n        /* \"#utility.yul\":5781:5782   */\n      0x00\n        /* \"#utility.yul\":5773:5779   */\n      dup3\n        /* \"#utility.yul\":5769:5783   */\n      add\n        /* \"#utility.yul\":5762:5805   */\n      mstore\n        /* \"#utility.yul\":5645:5812   */\n      pop\n      jump\t// out\n        /* \"#utility.yul\":5818:6184   */\n    tag_101:\n        /* \"#utility.yul\":5960:5963   */\n      0x00\n        /* \"#utility.yul\":5981:6048   */\n      tag_163\n        /* \"#utility.yul\":6045:6047   */\n      0x11\n        /* \"#utility.yul\":6040:6043   */\n      dup4\n        /* \"#utility.yul\":5981:6048   */\n      tag_93\n      jump\t// in\n    tag_163:\n        /* \"#utility.yul\":5974:6048   */\n      swap2\n      pop\n        /* \"#utility.yul\":6057:6150   */\n      tag_164\n        /* \"#utility.yul\":6146:6149   */\n      dup3\n        /* \"#utility.yul\":6057:6150   */\n      tag_100\n      jump\t// in\n    tag_164:\n        /* \"#utility.yul\":6175:6177   */\n      0x20\n        /* \"#utility.yul\":6170:6173   */\n      dup3\n        /* \"#utility.yul\":6166:6178   */\n      add\n        /* \"#utility.yul\":6159:6178   */\n      swap1\n      pop\n        /* \"#utility.yul\":5818:6184   */\n      swap2\n      swap1\n      pop\n      jump\t// out\n        /* \"#utility.yul\":6190:6609   */\n    tag_62:\n        /* \"#utility.yul\":6356:6360   */\n      0x00\n        /* \"#utility.yul\":6394:6396   */\n      0x20\n        /* \"#utility.yul\":6383:6392   */\n      dup3\n        /* \"#utility.yul\":6379:6397   */\n      add\n        /* \"#utility.yul\":6371:6397   */\n      swap1\n      pop\n        /* \"#utility.yul\":6443:6452   */\n      dup2\n        /* \"#utility.yul\":6437:6441   */\n      dup2\n        /* \"#utility.yul\":6433:6453   */\n      sub\n        /* \"#utility.yul\":6429:6430   */\n      0x00\n        /* \"#utility.yul\":6418:6427   */\n      dup4\n        /* \"#utility.yul\":6414:6431   */\n      add\n        /* \"#utility.yul\":6407:6454   */\n      mstore\n        /* \"#utility.yul\":6471:6602   */\n      tag_166\n        /* \"#utility.yul\":6597:6601   */\n      dup2\n        /* \"#utility.yul\":6471:6602   */\n      tag_101\n      jump\t// in\n    tag_166:\n        /* \"#utility.yul\":6463:6602   */\n      swap1\n      pop\n        /* \"#utility.yul\":6190:6609   */\n      swap2\n      swap1\n      pop\n      jump\t// out\n        /* \"#utility.yul\":6615:6848   */\n    tag_70:\n        /* \"#utility.yul\":6654:6657   */\n      0x00\n        /* \"#utility.yul\":6677:6701   */\n      tag_168\n        /* \"#utility.yul\":6695:6700   */\n      dup3\n        /* \"#utility.yul\":6677:6701   */\n      tag_81\n      jump\t// in\n    tag_168:\n        /* \"#utility.yul\":6668:6701   */\n      swap2\n      pop\n        /* \"#utility.yul\":6723:6789   */\n      0xffffffffffffffffffffffffffffffffffffffffffffffffffffffffffffffff\n        /* \"#utility.yul\":6716:6721   */\n      dup3\n        /* \"#utility.yul\":6713:6790   */\n      sub\n        /* \"#utility.yul\":6710:6813   */\n      tag_169\n      jumpi\n        /* \"#utility.yul\":6793:6811   */\n      tag_170\n      tag_96\n      jump\t// in\n    tag_170:\n        /* \"#utility.yul\":6710:6813   */\n    tag_169:\n        /* \"#utility.yul\":6840:6841   */\n      0x01\n        /* \"#utility.yul\":6833:6838   */\n      dup3\n        /* \"#utility.yul\":6829:6842   */\n      add\n        /* \"#utility.yul\":6822:6842   */\n      swap1\n      pop\n        /* \"#utility.yul\":6615:6848   */\n      swap2\n      swap1\n      pop\n      jump\t// out\n        /* \"#utility.yul\":6854:7045   */\n    tag_76:\n        /* \"#utility.yul\":6894:6897   */\n      0x00\n        /* \"#utility.yul\":6913:6933   */\n      tag_172\n        /* \"#utility.yul\":6931:6932   */\n      dup3\n        /* \"#utility.yul\":6913:6933   */\n      tag_81\n      jump\t// in\n    tag_172:\n        /* \"#utility.yul\":6908:6933   */\n      swap2\n      pop\n        /* \"#utility.yul\":6947:6967   */\n      tag_173\n        /* \"#utility.yul\":6965:6966   */\n      dup4\n        /* \"#utility.yul\":6947:6967   */\n      tag_81\n      jump\t// in\n    tag_173:\n        /* \"#utility.yul\":6942:6967   */\n      swap3\n      pop\n        /* \"#utility.yul\":6990:6991   */\n      dup3\n        /* \"#utility.yul\":6987:6988   */\n      dup3\n        /* \"#utility.yul\":6983:6992   */\n      add\n        /* \"#utility.yul\":6976:6992   */\n      swap1\n      pop\n        /* \"#utility.yul\":7011:7014   */\n      dup1\n        /* \"#utility.yul\":7008:7009   */\n      dup3\n        /* \"#utility.yul\":7005:7015   */\n      gt\n        /* \"#utility.yul\":7002:7038   */\n      iszero\n      tag_174\n      jumpi\n        /* \"#utility.yul\":7018:7036   */\n      tag_175\n      tag_96\n      jump\t// in\n    tag_175:\n        /* \"#utility.yul\":7002:7038   */\n    tag_174:\n        /* \"#utility.yul\":6854:7045   */\n      swap3\n      swap2\n      pop\n      pop\n      jump\t// out\n\n    auxdata: 0xa2646970667358221220ea7c72d29674e85457e7f6f3c3802819df43fbc7f93597566950b960070b7fac64736f6c634300081f0033\n}\n",
				"bytecode": {
					"linkReferences": {},
					"object": "6080604052348015600e575f5ffd5b50610afb8061001c5f395ff3fe60806040526004361061007a575f3560e01c806365c8acb01161004d57806365c8acb014610124578063a9059cbb14610160578063cc1a286514610188578063d0e30db0146101c45761007a565b806307973ccf1461007e57806312065fe0146100a85780632e1a7d4d146100d257806341b3d185146100fa575b5f5ffd5b348015610089575f5ffd5b506100926101ce565b60405161009f919061076d565b60405180910390f35b3480156100b3575f5ffd5b506100bc6101d4565b6040516100c9919061076d565b60405180910390f35b3480156100dd575f5ffd5b506100f860048036038101906100f391906107b4565b610217565b005b348015610105575f5ffd5b5061010e610394565b60405161011b919061081e565b60405180910390f35b34801561012f575f5ffd5b5061014a60048036038101906101459190610861565b6104ea565b604051610157919061076d565b60405180910390f35b34801561016b575f5ffd5b506101866004803603810190610181919061088c565b6104fe565b005b348015610193575f5ffd5b506101ae60048036038101906101a991906107b4565b610625565b6040516101bb919061081e565b60405180910390f35b6101cc610655565b005b60025481565b5f5f5f3373ffffffffffffffffffffffffffffffffffffffff1673ffffffffffffffffffffffffffffffffffffffff1681526020019081526020015f2054905090565b805f5f3373ffffffffffffffffffffffffffffffffffffffff1673ffffffffffffffffffffffffffffffffffffffff1681526020019081526020015f20541015610296576040517f08c379a000000000000000000000000000000000000000000000000000000000815260040161028d90610924565b60405180910390fd5b805f5f3373ffffffffffffffffffffffffffffffffffffffff1673ffffffffffffffffffffffffffffffffffffffff1681526020019081526020015f205f8282546102e1919061096f565b925050819055505f3373ffffffffffffffffffffffffffffffffffffffff168260405161030d906109cf565b5f6040518083038185875af1925050503d805f8114610347576040519150601f19603f3d011682016040523d82523d5f602084013e61034c565b606091505b5050905080610390576040517f08c379a000000000000000000000000000000000000000000000000000000000815260040161038790610a2d565b60405180910390fd5b5050565b5f5f600254036103a6575f90506104e7565b5f60015f600181526020019081526020015f205f9054906101000a900473ffffffffffffffffffffffffffffffffffffffff1690505f600290505b60025481116104e1575f5f8373ffffffffffffffffffffffffffffffffffffffff1673ffffffffffffffffffffffffffffffffffffffff1681526020019081526020015f20545f5f60015f8581526020019081526020015f205f9054906101000a900473ffffffffffffffffffffffffffffffffffffffff1673ffffffffffffffffffffffffffffffffffffffff1673ffffffffffffffffffffffffffffffffffffffff1681526020019081526020015f205410156104ce5760015f8281526020019081526020015f205f9054906101000a900473ffffffffffffffffffffffffffffffffffffffff1691505b80806104d990610a4b565b9150506103e1565b50809150505b90565b5f602052805f5260405f205f915090505481565b805f5f3373ffffffffffffffffffffffffffffffffffffffff1673ffffffffffffffffffffffffffffffffffffffff1681526020019081526020015f2054101561057d576040517f08c379a000000000000000000000000000000000000000000000000000000000815260040161057490610924565b60405180910390fd5b805f5f3373ffffffffffffffffffffffffffffffffffffffff1673ffffffffffffffffffffffffffffffffffffffff1681526020019081526020015f205f8282546105c8919061096f565b92505081905550805f5f8473ffffffffffffffffffffffffffffffffffffffff1673ffffffffffffffffffffffffffffffffffffffff1681526020019081526020015f205f82825461061a9190610a92565b925050819055505050565b6001602052805f5260405f205f915054906101000a900473ffffffffffffffffffffffffffffffffffffffff1681565b5f5f5f3373ffffffffffffffffffffffffffffffffffffffff1673ffffffffffffffffffffffffffffffffffffffff1681526020019081526020015f2054036107015760025f8154809291906106aa90610a4b565b91905055503360015f60025481526020019081526020015f205f6101000a81548173ffffffffffffffffffffffffffffffffffffffff021916908373ffffffffffffffffffffffffffffffffffffffff1602179055505b345f5f3373ffffffffffffffffffffffffffffffffffffffff1673ffffffffffffffffffffffffffffffffffffffff1681526020019081526020015f205f82825461074c9190610a92565b92505081905550565b5f819050919050565b61076781610755565b82525050565b5f6020820190506107805f83018461075e565b92915050565b5f5ffd5b61079381610755565b811461079d575f5ffd5b50565b5f813590506107ae8161078a565b92915050565b5f602082840312156107c9576107c8610786565b5b5f6107d6848285016107a0565b91505092915050565b5f73ffffffffffffffffffffffffffffffffffffffff82169050919050565b5f610808826107df565b9050919050565b610818816107fe565b82525050565b5f6020820190506108315f83018461080f565b92915050565b610840816107fe565b811461084a575f5ffd5b50565b5f8135905061085b81610837565b92915050565b5f6020828403121561087657610875610786565b5b5f6108838482850161084d565b91505092915050565b5f5f604083850312156108a2576108a1610786565b5b5f6108af8582860161084d565b92505060206108c0858286016107a0565b9150509250929050565b5f82825260208201905092915050565b7f496e73756666696369656e742066756e647300000000000000000000000000005f82015250565b5f61090e6012836108ca565b9150610919826108da565b602082019050919050565b5f6020820190508181035f83015261093b81610902565b9050919050565b7f4e487b71000000000000000000000000000000000000000000000000000000005f52601160045260245ffd5b5f61097982610755565b915061098483610755565b925082820390508181111561099c5761099b610942565b5b92915050565b5f81905092915050565b50565b5f6109ba5f836109a2565b91506109c5826109ac565b5f82019050919050565b5f6109d9826109af565b9150819050919050565b7f5769746864726177616c206661696c65640000000000000000000000000000005f82015250565b5f610a176011836108ca565b9150610a22826109e3565b602082019050919050565b5f6020820190508181035f830152610a4481610a0b565b9050919050565b5f610a5582610755565b91507fffffffffffffffffffffffffffffffffffffffffffffffffffffffffffffffff8203610a8757610a86610942565b5b600182019050919050565b5f610a9c82610755565b9150610aa783610755565b9250828201905080821115610abf57610abe610942565b5b9291505056fea2646970667358221220ea7c72d29674e85457e7f6f3c3802819df43fbc7f93597566950b960070b7fac64736f6c634300081f0033",
					"opcodes": "PUSH1 0x80 PUSH1 0x40 MSTORE CALLVALUE DUP1 ISZERO PUSH1 0xE JUMPI PUSH0 PUSH0 REVERT JUMPDEST POP PUSH2 0xAFB DUP1 PUSH2 0x1C PUSH0 CODECOPY PUSH0 RETURN INVALID PUSH1 0x80 PUSH1 0x40 MSTORE PUSH1 0x4 CALLDATASIZE LT PUSH2 0x7A JUMPI PUSH0 CALLDATALOAD PUSH1 0xE0 SHR DUP1 PUSH4 0x65C8ACB0 GT PUSH2 0x4D JUMPI DUP1 PUSH4 0x65C8ACB0 EQ PUSH2 0x124 JUMPI DUP1 PUSH4 0xA9059CBB EQ PUSH2 0x160 JUMPI DUP1 PUSH4 0xCC1A2865 EQ PUSH2 0x188 JUMPI DUP1 PUSH4 0xD0E30DB0 EQ PUSH2 0x1C4 JUMPI PUSH2 0x7A JUMP JUMPDEST DUP1 PUSH4 0x7973CCF EQ PUSH2 0x7E JUMPI DUP1 PUSH4 0x12065FE0 EQ PUSH2 0xA8 JUMPI DUP1 PUSH4 0x2E1A7D4D EQ PUSH2 0xD2 JUMPI DUP1 PUSH4 0x41B3D185 EQ PUSH2 0xFA JUMPI JUMPDEST PUSH0 PUSH0 REVERT JUMPDEST CALLVALUE DUP1 ISZERO PUSH2 0x89 JUMPI PUSH0 PUSH0 REVERT JUMPDEST POP PUSH2 0x92 PUSH2 0x1CE JUMP JUMPDEST PUSH1 0x40 MLOAD PUSH2 0x9F SWAP2 SWAP1 PUSH2 0x76D JUMP JUMPDEST PUSH1 0x40 MLOAD DUP1 SWAP2 SUB SWAP1 RETURN JUMPDEST CALLVALUE DUP1 ISZERO PUSH2 0xB3 JUMPI PUSH0 PUSH0 REVERT JUMPDEST POP PUSH2 0xBC PUSH2 0x1D4 JUMP JUMPDEST PUSH1 0x40 MLOAD PUSH2 0xC9 SWAP2 SWAP1 PUSH2 0x76D JUMP JUMPDEST PUSH1 0x40 MLOAD DUP1 SWAP2 SUB SWAP1 RETURN JUMPDEST CALLVALUE DUP1 ISZERO PUSH2 0xDD JUMPI PUSH0 PUSH0 REVERT JUMPDEST POP PUSH2 0xF8 PUSH1 0x4 DUP1 CALLDATASIZE SUB DUP2 ADD SWAP1 PUSH2 0xF3 SWAP2 SWAP1 PUSH2 0x7B4 JUMP JUMPDEST PUSH2 0x217 JUMP JUMPDEST STOP JUMPDEST CALLVALUE DUP1 ISZERO PUSH2 0x105 JUMPI PUSH0 PUSH0 REVERT JUMPDEST POP PUSH2 0x10E PUSH2 0x394 JUMP JUMPDEST PUSH1 0x40 MLOAD PUSH2 0x11B SWAP2 SWAP1 PUSH2 0x81E JUMP JUMPDEST PUSH1 0x40 MLOAD DUP1 SWAP2 SUB SWAP1 RETURN JUMPDEST CALLVALUE DUP1 ISZERO PUSH2 0x12F JUMPI PUSH0 PUSH0 REVERT JUMPDEST POP PUSH2 0x14A PUSH1 0x4 DUP1 CALLDATASIZE SUB DUP2 ADD SWAP1 PUSH2 0x145 SWAP2 SWAP1 PUSH2 0x861 JUMP JUMPDEST PUSH2 0x4EA JUMP JUMPDEST PUSH1 0x40 MLOAD PUSH2 0x157 SWAP2 SWAP1 PUSH2 0x76D JUMP JUMPDEST PUSH1 0x40 MLOAD DUP1 SWAP2 SUB SWAP1 RETURN JUMPDEST CALLVALUE DUP1 ISZERO PUSH2 0x16B JUMPI PUSH0 PUSH0 REVERT JUMPDEST POP PUSH2 0x186 PUSH1 0x4 DUP1 CALLDATASIZE SUB DUP2 ADD SWAP1 PUSH2 0x181 SWAP2 SWAP1 PUSH2 0x88C JUMP JUMPDEST PUSH2 0x4FE JUMP JUMPDEST STOP JUMPDEST CALLVALUE DUP1 ISZERO PUSH2 0x193 JUMPI PUSH0 PUSH0 REVERT JUMPDEST POP PUSH2 0x1AE PUSH1 0x4 DUP1 CALLDATASIZE SUB DUP2 ADD SWAP1 PUSH2 0x1A9 SWAP2 SWAP1 PUSH2 0x7B4 JUMP JUMPDEST PUSH2 0x625 JUMP JUMPDEST PUSH1 0x40 MLOAD PUSH2 0x1BB SWAP2 SWAP1 PUSH2 0x81E JUMP JUMPDEST PUSH1 0x40 MLOAD DUP1 SWAP2 SUB SWAP1 RETURN JUMPDEST PUSH2 0x1CC PUSH2 0x655 JUMP JUMPDEST STOP JUMPDEST PUSH1 0x2 SLOAD DUP2 JUMP JUMPDEST PUSH0 PUSH0 PUSH0 CALLER PUSH20 0xFFFFFFFFFFFFFFFFFFFFFFFFFFFFFFFFFFFFFFFF AND PUSH20 0xFFFFFFFFFFFFFFFFFFFFFFFFFFFFFFFFFFFFFFFF AND DUP2 MSTORE PUSH1 0x20 ADD SWAP1 DUP2 MSTORE PUSH1 0x20 ADD PUSH0 KECCAK256 SLOAD SWAP1 POP SWAP1 JUMP JUMPDEST DUP1 PUSH0 PUSH0 CALLER PUSH20 0xFFFFFFFFFFFFFFFFFFFFFFFFFFFFFFFFFFFFFFFF AND PUSH20 0xFFFFFFFFFFFFFFFFFFFFFFFFFFFFFFFFFFFFFFFF AND DUP2 MSTORE PUSH1 0x20 ADD SWAP1 DUP2 MSTORE PUSH1 0x20 ADD PUSH0 KECCAK256 SLOAD LT ISZERO PUSH2 0x296 JUMPI PUSH1 0x40 MLOAD PUSH32 0x8C379A000000000000000000000000000000000000000000000000000000000 DUP2 MSTORE PUSH1 0x4 ADD PUSH2 0x28D SWAP1 PUSH2 0x924 JUMP JUMPDEST PUSH1 0x40 MLOAD DUP1 SWAP2 SUB SWAP1 REVERT JUMPDEST DUP1 PUSH0 PUSH0 CALLER PUSH20 0xFFFFFFFFFFFFFFFFFFFFFFFFFFFFFFFFFFFFFFFF AND PUSH20 0xFFFFFFFFFFFFFFFFFFFFFFFFFFFFFFFFFFFFFFFF AND DUP2 MSTORE PUSH1 0x20 ADD SWAP1 DUP2 MSTORE PUSH1 0x20 ADD PUSH0 KECCAK256 PUSH0 DUP3 DUP3 SLOAD PUSH2 0x2E1 SWAP2 SWAP1 PUSH2 0x96F JUMP JUMPDEST SWAP3 POP POP DUP2 SWAP1 SSTORE POP PUSH0 CALLER PUSH20 0xFFFFFFFFFFFFFFFFFFFFFFFFFFFFFFFFFFFFFFFF AND DUP3 PUSH1 0x40 MLOAD PUSH2 0x30D SWAP1 PUSH2 0x9CF JUMP JUMPDEST PUSH0 PUSH1 0x40 MLOAD DUP1 DUP4 SUB DUP2 DUP6 DUP8 GAS CALL SWAP3 POP POP POP RETURNDATASIZE DUP1 PUSH0 DUP2 EQ PUSH2 0x347 JUMPI PUSH1 0x40 MLOAD SWAP2 POP PUSH1 0x1F NOT PUSH1 0x3F RETURNDATASIZE ADD AND DUP3 ADD PUSH1 0x40 MSTORE RETURNDATASIZE DUP3 MSTORE RETURNDATASIZE PUSH0 PUSH1 0x20 DUP5 ADD RETURNDATACOPY PUSH2 0x34C JUMP JUMPDEST PUSH1 0x60 SWAP2 POP JUMPDEST POP POP SWAP1 POP DUP1 PUSH2 0x390 JUMPI PUSH1 0x40 MLOAD PUSH32 0x8C379A000000000000000000000000000000000000000000000000000000000 DUP2 MSTORE PUSH1 0x4 ADD PUSH2 0x387 SWAP1 PUSH2 0xA2D JUMP JUMPDEST PUSH1 0x40 MLOAD DUP1 SWAP2 SUB SWAP1 REVERT JUMPDEST POP POP JUMP JUMPDEST PUSH0 PUSH0 PUSH1 0x2 SLOAD SUB PUSH2 0x3A6 JUMPI PUSH0 SWAP1 POP PUSH2 0x4E7 JUMP JUMPDEST PUSH0 PUSH1 0x1 PUSH0 PUSH1 0x1 DUP2 MSTORE PUSH1 0x20 ADD SWAP1 DUP2 MSTORE PUSH1 0x20 ADD PUSH0 KECCAK256 PUSH0 SWAP1 SLOAD SWAP1 PUSH2 0x100 EXP SWAP1 DIV PUSH20 0xFFFFFFFFFFFFFFFFFFFFFFFFFFFFFFFFFFFFFFFF AND SWAP1 POP PUSH0 PUSH1 0x2 SWAP1 POP JUMPDEST PUSH1 0x2 SLOAD DUP2 GT PUSH2 0x4E1 JUMPI PUSH0 PUSH0 DUP4 PUSH20 0xFFFFFFFFFFFFFFFFFFFFFFFFFFFFFFFFFFFFFFFF AND PUSH20 0xFFFFFFFFFFFFFFFFFFFFFFFFFFFFFFFFFFFFFFFF AND DUP2 MSTORE PUSH1 0x20 ADD SWAP1 DUP2 MSTORE PUSH1 0x20 ADD PUSH0 KECCAK256 SLOAD PUSH0 PUSH0 PUSH1 0x1 PUSH0 DUP6 DUP2 MSTORE PUSH1 0x20 ADD SWAP1 DUP2 MSTORE PUSH1 0x20 ADD PUSH0 KECCAK256 PUSH0 SWAP1 SLOAD SWAP1 PUSH2 0x100 EXP SWAP1 DIV PUSH20 0xFFFFFFFFFFFFFFFFFFFFFFFFFFFFFFFFFFFFFFFF AND PUSH20 0xFFFFFFFFFFFFFFFFFFFFFFFFFFFFFFFFFFFFFFFF AND PUSH20 0xFFFFFFFFFFFFFFFFFFFFFFFFFFFFFFFFFFFFFFFF AND DUP2 MSTORE PUSH1 0x20 ADD SWAP1 DUP2 MSTORE PUSH1 0x20 ADD PUSH0 KECCAK256 SLOAD LT ISZERO PUSH2 0x4CE JUMPI PUSH1 0x1 PUSH0 DUP3 DUP2 MSTORE PUSH1 0x20 ADD SWAP1 DUP2 MSTORE PUSH1 0x20 ADD PUSH0 KECCAK256 PUSH0 SWAP1 SLOAD SWAP1 PUSH2 0x100 EXP SWAP1 DIV PUSH20 0xFFFFFFFFFFFFFFFFFFFFFFFFFFFFFFFFFFFFFFFF AND SWAP2 POP JUMPDEST DUP1 DUP1 PUSH2 0x4D9 SWAP1 PUSH2 0xA4B JUMP JUMPDEST SWAP2 POP POP PUSH2 0x3E1 JUMP JUMPDEST POP DUP1 SWAP2 POP POP JUMPDEST SWAP1 JUMP JUMPDEST PUSH0 PUSH1 0x20 MSTORE DUP1 PUSH0 MSTORE PUSH1 0x40 PUSH0 KECCAK256 PUSH0 SWAP2 POP SWAP1 POP SLOAD DUP2 JUMP JUMPDEST DUP1 PUSH0 PUSH0 CALLER PUSH20 0xFFFFFFFFFFFFFFFFFFFFFFFFFFFFFFFFFFFFFFFF AND PUSH20 0xFFFFFFFFFFFFFFFFFFFFFFFFFFFFFFFFFFFFFFFF AND DUP2 MSTORE PUSH1 0x20 ADD SWAP1 DUP2 MSTORE PUSH1 0x20 ADD PUSH0 KECCAK256 SLOAD LT ISZERO PUSH2 0x57D JUMPI PUSH1 0x40 MLOAD PUSH32 0x8C379A000000000000000000000000000000000000000000000000000000000 DUP2 MSTORE PUSH1 0x4 ADD PUSH2 0x574 SWAP1 PUSH2 0x924 JUMP JUMPDEST PUSH1 0x40 MLOAD DUP1 SWAP2 SUB SWAP1 REVERT JUMPDEST DUP1 PUSH0 PUSH0 CALLER PUSH20 0xFFFFFFFFFFFFFFFFFFFFFFFFFFFFFFFFFFFFFFFF AND PUSH20 0xFFFFFFFFFFFFFFFFFFFFFFFFFFFFFFFFFFFFFFFF AND DUP2 MSTORE PUSH1 0x20 ADD SWAP1 DUP2 MSTORE PUSH1 0x20 ADD PUSH0 KECCAK256 PUSH0 DUP3 DUP3 SLOAD PUSH2 0x5C8 SWAP2 SWAP1 PUSH2 0x96F JUMP JUMPDEST SWAP3 POP POP DUP2 SWAP1 SSTORE POP DUP1 PUSH0 PUSH0 DUP5 PUSH20 0xFFFFFFFFFFFFFFFFFFFFFFFFFFFFFFFFFFFFFFFF AND PUSH20 0xFFFFFFFFFFFFFFFFFFFFFFFFFFFFFFFFFFFFFFFF AND DUP2 MSTORE PUSH1 0x20 ADD SWAP1 DUP2 MSTORE PUSH1 0x20 ADD PUSH0 KECCAK256 PUSH0 DUP3 DUP3 SLOAD PUSH2 0x61A SWAP2 SWAP1 PUSH2 0xA92 JUMP JUMPDEST SWAP3 POP POP DUP2 SWAP1 SSTORE POP POP POP JUMP JUMPDEST PUSH1 0x1 PUSH1 0x20 MSTORE DUP1 PUSH0 MSTORE PUSH1 0x40 PUSH0 KECCAK256 PUSH0 SWAP2 POP SLOAD SWAP1 PUSH2 0x100 EXP SWAP1 DIV PUSH20 0xFFFFFFFFFFFFFFFFFFFFFFFFFFFFFFFFFFFFFFFF AND DUP2 JUMP JUMPDEST PUSH0 PUSH0 PUSH0 CALLER PUSH20 0xFFFFFFFFFFFFFFFFFFFFFFFFFFFFFFFFFFFFFFFF AND PUSH20 0xFFFFFFFFFFFFFFFFFFFFFFFFFFFFFFFFFFFFFFFF AND DUP2 MSTORE PUSH1 0x20 ADD SWAP1 DUP2 MSTORE PUSH1 0x20 ADD PUSH0 KECCAK256 SLOAD SUB PUSH2 0x701 JUMPI PUSH1 0x2 PUSH0 DUP2 SLOAD DUP1 SWAP3 SWAP2 SWAP1 PUSH2 0x6AA SWAP1 PUSH2 0xA4B JUMP JUMPDEST SWAP2 SWAP1 POP SSTORE POP CALLER PUSH1 0x1 PUSH0 PUSH1 0x2 SLOAD DUP2 MSTORE PUSH1 0x20 ADD SWAP1 DUP2 MSTORE PUSH1 0x20 ADD PUSH0 KECCAK256 PUSH0 PUSH2 0x100 EXP DUP2 SLOAD DUP2 PUSH20 0xFFFFFFFFFFFFFFFFFFFFFFFFFFFFFFFFFFFFFFFF MUL NOT AND SWAP1 DUP4 PUSH20 0xFFFFFFFFFFFFFFFFFFFFFFFFFFFFFFFFFFFFFFFF AND MUL OR SWAP1 SSTORE POP JUMPDEST CALLVALUE PUSH0 PUSH0 CALLER PUSH20 0xFFFFFFFFFFFFFFFFFFFFFFFFFFFFFFFFFFFFFFFF AND PUSH20 0xFFFFFFFFFFFFFFFFFFFFFFFFFFFFFFFFFFFFFFFF AND DUP2 MSTORE PUSH1 0x20 ADD SWAP1 DUP2 MSTORE PUSH1 0x20 ADD PUSH0 KECCAK256 PUSH0 DUP3 DUP3 SLOAD PUSH2 0x74C SWAP2 SWAP1 PUSH2 0xA92 JUMP JUMPDEST SWAP3 POP POP DUP2 SWAP1 SSTORE POP JUMP JUMPDEST PUSH0 DUP2 SWAP1 POP SWAP2 SWAP1 POP JUMP JUMPDEST PUSH2 0x767 DUP2 PUSH2 0x755 JUMP JUMPDEST DUP3 MSTORE POP POP JUMP JUMPDEST PUSH0 PUSH1 0x20 DUP3 ADD SWAP1 POP PUSH2 0x780 PUSH0 DUP4 ADD DUP5 PUSH2 0x75E JUMP JUMPDEST SWAP3 SWAP2 POP POP JUMP JUMPDEST PUSH0 PUSH0 REVERT JUMPDEST PUSH2 0x793 DUP2 PUSH2 0x755 JUMP JUMPDEST DUP2 EQ PUSH2 0x79D JUMPI PUSH0 PUSH0 REVERT JUMPDEST POP JUMP JUMPDEST PUSH0 DUP2 CALLDATALOAD SWAP1 POP PUSH2 0x7AE DUP2 PUSH2 0x78A JUMP JUMPDEST SWAP3 SWAP2 POP POP JUMP JUMPDEST PUSH0 PUSH1 0x20 DUP3 DUP5 SUB SLT ISZERO PUSH2 0x7C9 JUMPI PUSH2 0x7C8 PUSH2 0x786 JUMP JUMPDEST JUMPDEST PUSH0 PUSH2 0x7D6 DUP5 DUP3 DUP6 ADD PUSH2 0x7A0 JUMP JUMPDEST SWAP2 POP POP SWAP3 SWAP2 POP POP JUMP JUMPDEST PUSH0 PUSH20 0xFFFFFFFFFFFFFFFFFFFFFFFFFFFFFFFFFFFFFFFF DUP3 AND SWAP1 POP SWAP2 SWAP1 POP JUMP JUMPDEST PUSH0 PUSH2 0x808 DUP3 PUSH2 0x7DF JUMP JUMPDEST SWAP1 POP SWAP2 SWAP1 POP JUMP JUMPDEST PUSH2 0x818 DUP2 PUSH2 0x7FE JUMP JUMPDEST DUP3 MSTORE POP POP JUMP JUMPDEST PUSH0 PUSH1 0x20 DUP3 ADD SWAP1 POP PUSH2 0x831 PUSH0 DUP4 ADD DUP5 PUSH2 0x80F JUMP JUMPDEST SWAP3 SWAP2 POP POP JUMP JUMPDEST PUSH2 0x840 DUP2 PUSH2 0x7FE JUMP JUMPDEST DUP2 EQ PUSH2 0x84A JUMPI PUSH0 PUSH0 REVERT JUMPDEST POP JUMP JUMPDEST PUSH0 DUP2 CALLDATALOAD SWAP1 POP PUSH2 0x85B DUP2 PUSH2 0x837 JUMP JUMPDEST SWAP3 SWAP2 POP POP JUMP JUMPDEST PUSH0 PUSH1 0x20 DUP3 DUP5 SUB SLT ISZERO PUSH2 0x876 JUMPI PUSH2 0x875 PUSH2 0x786 JUMP JUMPDEST JUMPDEST PUSH0 PUSH2 0x883 DUP5 DUP3 DUP6 ADD PUSH2 0x84D JUMP JUMPDEST SWAP2 POP POP SWAP3 SWAP2 POP POP JUMP JUMPDEST PUSH0 PUSH0 PUSH1 0x40 DUP4 DUP6 SUB SLT ISZERO PUSH2 0x8A2 JUMPI PUSH2 0x8A1 PUSH2 0x786 JUMP JUMPDEST JUMPDEST PUSH0 PUSH2 0x8AF DUP6 DUP3 DUP7 ADD PUSH2 0x84D JUMP JUMPDEST SWAP3 POP POP PUSH1 0x20 PUSH2 0x8C0 DUP6 DUP3 DUP7 ADD PUSH2 0x7A0 JUMP JUMPDEST SWAP2 POP POP SWAP3 POP SWAP3 SWAP1 POP JUMP JUMPDEST PUSH0 DUP3 DUP3 MSTORE PUSH1 0x20 DUP3 ADD SWAP1 POP SWAP3 SWAP2 POP POP JUMP JUMPDEST PUSH32 0x496E73756666696369656E742066756E64730000000000000000000000000000 PUSH0 DUP3 ADD MSTORE POP JUMP JUMPDEST PUSH0 PUSH2 0x90E PUSH1 0x12 DUP4 PUSH2 0x8CA JUMP JUMPDEST SWAP2 POP PUSH2 0x919 DUP3 PUSH2 0x8DA JUMP JUMPDEST PUSH1 0x20 DUP3 ADD SWAP1 POP SWAP2 SWAP1 POP JUMP JUMPDEST PUSH0 PUSH1 0x20 DUP3 ADD SWAP1 POP DUP2 DUP2 SUB PUSH0 DUP4 ADD MSTORE PUSH2 0x93B DUP2 PUSH2 0x902 JUMP JUMPDEST SWAP1 POP SWAP2 SWAP1 POP JUMP JUMPDEST PUSH32 0x4E487B7100000000000000000000000000000000000000000000000000000000 PUSH0 MSTORE PUSH1 0x11 PUSH1 0x4 MSTORE PUSH1 0x24 PUSH0 REVERT JUMPDEST PUSH0 PUSH2 0x979 DUP3 PUSH2 0x755 JUMP JUMPDEST SWAP2 POP PUSH2 0x984 DUP4 PUSH2 0x755 JUMP JUMPDEST SWAP3 POP DUP3 DUP3 SUB SWAP1 POP DUP2 DUP2 GT ISZERO PUSH2 0x99C JUMPI PUSH2 0x99B PUSH2 0x942 JUMP JUMPDEST JUMPDEST SWAP3 SWAP2 POP POP JUMP JUMPDEST PUSH0 DUP2 SWAP1 POP SWAP3 SWAP2 POP POP JUMP JUMPDEST POP JUMP JUMPDEST PUSH0 PUSH2 0x9BA PUSH0 DUP4 PUSH2 0x9A2 JUMP JUMPDEST SWAP2 POP PUSH2 0x9C5 DUP3 PUSH2 0x9AC JUMP JUMPDEST PUSH0 DUP3 ADD SWAP1 POP SWAP2 SWAP1 POP JUMP JUMPDEST PUSH0 PUSH2 0x9D9 DUP3 PUSH2 0x9AF JUMP JUMPDEST SWAP2 POP DUP2 SWAP1 POP SWAP2 SWAP1 POP JUMP JUMPDEST PUSH32 0x5769746864726177616C206661696C6564000000000000000000000000000000 PUSH0 DUP3 ADD MSTORE POP JUMP JUMPDEST PUSH0 PUSH2 0xA17 PUSH1 0x11 DUP4 PUSH2 0x8CA JUMP JUMPDEST SWAP2 POP PUSH2 0xA22 DUP3 PUSH2 0x9E3 JUMP JUMPDEST PUSH1 0x20 DUP3 ADD SWAP1 POP SWAP2 SWAP1 POP JUMP JUMPDEST PUSH0 PUSH1 0x20 DUP3 ADD SWAP1 POP DUP2 DUP2 SUB PUSH0 DUP4 ADD MSTORE PUSH2 0xA44 DUP2 PUSH2 0xA0B JUMP JUMPDEST SWAP1 POP SWAP2 SWAP1 POP JUMP JUMPDEST PUSH0 PUSH2 0xA55 DUP3 PUSH2 0x755 JUMP JUMPDEST SWAP2 POP PUSH32 0xFFFFFFFFFFFFFFFFFFFFFFFFFFFFFFFFFFFFFFFFFFFFFFFFFFFFFFFFFFFFFFFF DUP3 SUB PUSH2 0xA87 JUMPI PUSH2 0xA86 PUSH2 0x942 JUMP JUMPDEST JUMPDEST PUSH1 0x1 DUP3 ADD SWAP1 POP SWAP2 SWAP1 POP JUMP JUMPDEST PUSH0 PUSH2 0xA9C DUP3 PUSH2 0x755 JUMP JUMPDEST SWAP2 POP PUSH2 0xAA7 DUP4 PUSH2 0x755 JUMP JUMPDEST SWAP3 POP DUP3 DUP3 ADD SWAP1 POP DUP1 DUP3 GT ISZERO PUSH2 0xABF JUMPI PUSH2 0xABE PUSH2 0x942 JUMP JUMPDEST JUMPDEST SWAP3 SWAP2 POP POP JUMP INVALID LOG2 PUSH5 0x6970667358 0x22 SLT KECCAK256 0xEA PUSH29 0x72D29674E85457E7F6F3C3802819DF43FBC7F93597566950B960070B7F 0xAC PUSH5 0x736F6C6343 STOP ADDMOD 0x1F STOP CALLER "
				},
				"gasEstimates": {
					"creation": {
						"codeDepositCost": "562200",
						"executionCost": "592",
						"totalCost": "562792"
					},
					"external": {
						"addressIndex(uint256)": "2871",
						"balanceLedger(address)": "2801",
						"deposit()": "infinite",
						"getBalance()": "2541",
						"minDeposit()": "infinite",
						"transfer(address,uint256)": "infinite",
						"userCount()": "2426",
						"withdraw(uint256)": "infinite"
					}
				},
				"methodIdentifiers": {
					"addressIndex(uint256)": "cc1a2865",
					"balanceLedger(address)": "65c8acb0",
					"deposit()": "d0e30db0",
					"getBalance()": "12065fe0",
					"minDeposit()": "41b3d185",
					"transfer(address,uint256)": "a9059cbb",
					"userCount()": "07973ccf",
					"withdraw(uint256)": "2e1a7d4d"
				}
			},
			"storageLayout": {
				"storage": [
					{
						"astId": 5,
						"contract": "workspace/2_Banking.sol:BankingSystem",
						"label": "balanceLedger",
						"offset": 0,
						"slot": "0",
						"type": "t_mapping(t_address,t_uint256)"
					},
					{
						"astId": 9,
						"contract": "workspace/2_Banking.sol:BankingSystem",
						"label": "addressIndex",
						"offset": 0,
						"slot": "1",
						"type": "t_mapping(t_uint256,t_address)"
					},
					{
						"astId": 11,
						"contract": "workspace/2_Banking.sol:BankingSystem",
						"label": "userCount",
						"offset": 0,
						"slot": "2",
						"type": "t_uint256"
					}
				],
				"types": {
					"t_address": {
						"encoding": "inplace",
						"label": "address",
						"numberOfBytes": "20"
					},
					"t_mapping(t_address,t_uint256)": {
						"encoding": "mapping",
						"key": "t_address",
						"label": "mapping(address => uint256)",
						"numberOfBytes": "32",
						"value": "t_uint256"
					},
					"t_mapping(t_uint256,t_address)": {
						"encoding": "mapping",
						"key": "t_uint256",
						"label": "mapping(uint256 => address)",
						"numberOfBytes": "32",
						"value": "t_address"
					},
					"t_uint256": {
						"encoding": "inplace",
						"label": "uint256",
						"numberOfBytes": "32"
					}
				}
			},
			"userdoc": {
				"kind": "user",
				"methods": {},
				"version": 1
			}
		}
	}
}