{
	"workspace/3_IoT.sol": {
		"IoTMarketplace": {
			"abi": [
				{
					"inputs": [
						{
							"internalType": "uint256",
							"name": "_id",
							"type": "uint256"
						}
					],
					"name": "buyDataAccess",
					"outputs": [],
					"stateMutability": "payable",
					"type": "function"
				},
				{
					"inputs": [
						{
							"internalType": "uint256",
							"name": "_id",
							"type": "uint256"
						}
					],
					"name": "deactivateDevice",
					"outputs": [],
					"stateMutability": "nonpayable",
					"type": "function"
				},
				{
					"inputs": [
						{
							"internalType": "uint256",
							"name": "",
							"type": "uint256"
						}
					],
					"name": "devices",
					"outputs": [
						{
							"internalType": "uint256",
							"name": "id",
							"type": "uint256"
						},
						{
							"internalType": "string",
							"name": "deviceType",
							"type": "string"
						},
						{
							"internalType": "uint256",
							"name": "price",
							"type": "uint256"
						},
						{
							"internalType": "bool",
							"name": "isActive",
							"type": "bool"
						},
						{
							"internalType": "address",
							"name": "owner",
							"type": "address"
						}
					],
					"stateMutability": "view",
					"type": "function"
				},
				{
					"inputs": [
						{
							"internalType": "uint256",
							"name": "_id",
							"type": "uint256"
						}
					],
					"name": "getDeviceData",
					"outputs": [
						{
							"internalType": "string",
							"name": "",
							"type": "string"
						},
						{
							"internalType": "uint256",
							"name": "",
							"type": "uint256"
						},
						{
							"internalType": "bool",
							"name": "",
							"type": "bool"
						}
					],
					"stateMutability": "view",
					"type": "function"
				},
				{
					"inputs": [
						{
							"internalType": "address",
							"name": "",
							"type": "address"
						},
						{
							"internalType": "uint256",
							"name": "",
							"type": "uint256"
						}
					],
					"name": "hasAccess",
					"outputs": [
						{
							"internalType": "bool",
							"name": "",
							"type": "bool"
						}
					],
					"stateMutability": "view",
					"type": "function"
				},
				{
					"inputs": [
						{
							"internalType": "uint256",
							"name": "_id",
							"type": "uint256"
						},
						{
							"internalType": "string",
							"name": "_type",
							"type": "string"
						},
						{
							"internalType": "uint256",
							"name": "_price",
							"type": "uint256"
						}
					],
					"name": "registerDevice",
					"outputs": [],
					"stateMutability": "nonpayable",
					"type": "function"
				},
				{
					"inputs": [
						{
							"internalType": "address",
							"name": "",
							"type": "address"
						},
						{
							"internalType": "uint256",
							"name": "",
							"type": "uint256"
						}
					],
					"name": "userDevices",
					"outputs": [
						{
							"internalType": "uint256",
							"name": "",
							"type": "uint256"
						}
					],
					"stateMutability": "view",
					"type": "function"
				}
			],
			"devdoc": {
				"kind": "dev",
				"methods": {},
				"version": 1
			},
			"evm": {
				"assembly": "    /* \"workspace/3_IoT.sol\":60:2455  contract IoTMarketplace {... */\n  mstore(0x40, 0x80)\n  callvalue\n  dup1\n  iszero\n  tag_1\n  jumpi\n  revert(0x00, 0x00)\ntag_1:\n  pop\n  dataSize(sub_0)\n  dup1\n  dataOffset(sub_0)\n  0x00\n  codecopy\n  0x00\n  return\nstop\n\nsub_0: assembly {\n        /* \"workspace/3_IoT.sol\":60:2455  contract IoTMarketplace {... */\n      mstore(0x40, 0x80)\n      jumpi(tag_1, lt(calldatasize, 0x04))\n      shr(0xe0, calldataload(0x00))\n      dup1\n      0xc6530e41\n      gt\n      tag_9\n      jumpi\n      dup1\n      0xc6530e41\n      eq\n      tag_5\n      jumpi\n      dup1\n      0xd5928be9\n      eq\n      tag_6\n      jumpi\n      dup1\n      0xd96cabfa\n      eq\n      tag_7\n      jumpi\n      dup1\n      0xf39e65f7\n      eq\n      tag_8\n      jumpi\n      jump(tag_1)\n    tag_9:\n      dup1\n      0x10ff8e31\n      eq\n      tag_2\n      jumpi\n      dup1\n      0x2be8df7d\n      eq\n      tag_3\n      jumpi\n      dup1\n      0x7c3780a7\n      eq\n      tag_4\n      jumpi\n    tag_1:\n      revert(0x00, 0x00)\n        /* \"workspace/3_IoT.sol\":287:325  mapping(uint => Device) public devices */\n    tag_2:\n      callvalue\n      dup1\n      iszero\n      tag_10\n      jumpi\n      revert(0x00, 0x00)\n    tag_10:\n      pop\n      tag_11\n      0x04\n      dup1\n      calldatasize\n      sub\n      dup2\n      add\n      swap1\n      tag_12\n      swap2\n      swap1\n      tag_13\n      jump\t// in\n    tag_12:\n      tag_14\n      jump\t// in\n    tag_11:\n      mload(0x40)\n      tag_15\n      swap6\n      swap5\n      swap4\n      swap3\n      swap2\n      swap1\n      tag_16\n      jump\t// in\n    tag_15:\n      mload(0x40)\n      dup1\n      swap2\n      sub\n      swap1\n      return\n        /* \"workspace/3_IoT.sol\":2208:2452  function deactivateDevice(uint _id) public {... */\n    tag_3:\n      callvalue\n      dup1\n      iszero\n      tag_17\n      jumpi\n      revert(0x00, 0x00)\n    tag_17:\n      pop\n      tag_18\n      0x04\n      dup1\n      calldatasize\n      sub\n      dup2\n      add\n      swap1\n      tag_19\n      swap2\n      swap1\n      tag_13\n      jump\t// in\n    tag_19:\n      tag_20\n      jump\t// in\n    tag_18:\n      stop\n        /* \"workspace/3_IoT.sol\":1232:2131  function buyDataAccess(uint _id) public payable {... */\n    tag_4:\n      tag_21\n      0x04\n      dup1\n      calldatasize\n      sub\n      dup2\n      add\n      swap1\n      tag_22\n      swap2\n      swap1\n      tag_13\n      jump\t// in\n    tag_22:\n      tag_23\n      jump\t// in\n    tag_21:\n      stop\n        /* \"workspace/3_IoT.sol\":489:547  mapping(address => mapping(uint => bool)) public hasAccess */\n    tag_5:\n      callvalue\n      dup1\n      iszero\n      tag_24\n      jumpi\n      revert(0x00, 0x00)\n    tag_24:\n      pop\n      tag_25\n      0x04\n      dup1\n      calldatasize\n      sub\n      dup2\n      add\n      swap1\n      tag_26\n      swap2\n      swap1\n      tag_27\n      jump\t// in\n    tag_26:\n      tag_28\n      jump\t// in\n    tag_25:\n      mload(0x40)\n      tag_29\n      swap2\n      swap1\n      tag_30\n      jump\t// in\n    tag_29:\n      mload(0x40)\n      dup1\n      swap2\n      sub\n      swap1\n      return\n        /* \"workspace/3_IoT.sol\":396:441  mapping(address => uint[]) public userDevices */\n    tag_6:\n      callvalue\n      dup1\n      iszero\n      tag_31\n      jumpi\n      revert(0x00, 0x00)\n    tag_31:\n      pop\n      tag_32\n      0x04\n      dup1\n      calldatasize\n      sub\n      dup2\n      add\n      swap1\n      tag_33\n      swap2\n      swap1\n      tag_27\n      jump\t// in\n    tag_33:\n      tag_34\n      jump\t// in\n    tag_32:\n      mload(0x40)\n      tag_35\n      swap2\n      swap1\n      tag_36\n      jump\t// in\n    tag_35:\n      mload(0x40)\n      dup1\n      swap2\n      sub\n      swap1\n      return\n        /* \"workspace/3_IoT.sol\":989:1174  function getDeviceData(uint _id) public view returns (string memory, uint, bool) {... */\n    tag_7:\n      callvalue\n      dup1\n      iszero\n      tag_37\n      jumpi\n      revert(0x00, 0x00)\n    tag_37:\n      pop\n      tag_38\n      0x04\n      dup1\n      calldatasize\n      sub\n      dup2\n      add\n      swap1\n      tag_39\n      swap2\n      swap1\n      tag_13\n      jump\t// in\n    tag_39:\n      tag_40\n      jump\t// in\n    tag_38:\n      mload(0x40)\n      tag_41\n      swap4\n      swap3\n      swap2\n      swap1\n      tag_42\n      jump\t// in\n    tag_41:\n      mload(0x40)\n      dup1\n      swap2\n      sub\n      swap1\n      return\n        /* \"workspace/3_IoT.sol\":630:913  function registerDevice(uint _id, string memory _type, uint _price) public {... */\n    tag_8:\n      callvalue\n      dup1\n      iszero\n      tag_43\n      jumpi\n      revert(0x00, 0x00)\n    tag_43:\n      pop\n      tag_44\n      0x04\n      dup1\n      calldatasize\n      sub\n      dup2\n      add\n      swap1\n      tag_45\n      swap2\n      swap1\n      tag_46\n      jump\t// in\n    tag_45:\n      tag_47\n      jump\t// in\n    tag_44:\n      stop\n        /* \"workspace/3_IoT.sol\":287:325  mapping(uint => Device) public devices */\n    tag_14:\n      mstore(0x20, 0x00)\n      dup1\n      0x00\n      mstore\n      keccak256(0x00, 0x40)\n      0x00\n      swap2\n      pop\n      swap1\n      pop\n      dup1\n      0x00\n      add\n      sload\n      swap1\n      dup1\n      0x01\n      add\n      dup1\n      sload\n      tag_48\n      swap1\n      tag_49\n      jump\t// in\n    tag_48:\n      dup1\n      0x1f\n      add\n      0x20\n      dup1\n      swap2\n      div\n      mul\n      0x20\n      add\n      mload(0x40)\n      swap1\n      dup2\n      add\n      0x40\n      mstore\n      dup1\n      swap3\n      swap2\n      swap1\n      dup2\n      dup2\n      mstore\n      0x20\n      add\n      dup3\n      dup1\n      sload\n      tag_50\n      swap1\n      tag_49\n      jump\t// in\n    tag_50:\n      dup1\n      iszero\n      tag_51\n      jumpi\n      dup1\n      0x1f\n      lt\n      tag_52\n      jumpi\n      0x0100\n      dup1\n      dup4\n      sload\n      div\n      mul\n      dup4\n      mstore\n      swap2\n      0x20\n      add\n      swap2\n      jump(tag_51)\n    tag_52:\n      dup3\n      add\n      swap2\n      swap1\n      0x00\n      mstore\n      keccak256(0x00, 0x20)\n      swap1\n    tag_53:\n      dup2\n      sload\n      dup2\n      mstore\n      swap1\n      0x01\n      add\n      swap1\n      0x20\n      add\n      dup1\n      dup4\n      gt\n      tag_53\n      jumpi\n      dup3\n      swap1\n      sub\n      0x1f\n      and\n      dup3\n      add\n      swap2\n    tag_51:\n      pop\n      pop\n      pop\n      pop\n      pop\n      swap1\n      dup1\n      0x02\n      add\n      sload\n      swap1\n      dup1\n      0x03\n      add\n      0x00\n      swap1\n      sload\n      swap1\n      0x0100\n      exp\n      swap1\n      div\n      0xff\n      and\n      swap1\n      dup1\n      0x03\n      add\n      0x01\n      swap1\n      sload\n      swap1\n      0x0100\n      exp\n      swap1\n      div\n      0xffffffffffffffffffffffffffffffffffffffff\n      and\n      swap1\n      pop\n      dup6\n      jump\t// out\n        /* \"workspace/3_IoT.sol\":2208:2452  function deactivateDevice(uint _id) public {... */\n    tag_20:\n        /* \"workspace/3_IoT.sol\":2354:2361  devices */\n      0x00\n        /* \"workspace/3_IoT.sol\":2354:2366  devices[_id] */\n      0x00\n        /* \"workspace/3_IoT.sol\":2362:2365  _id */\n      dup3\n        /* \"workspace/3_IoT.sol\":2354:2366  devices[_id] */\n      dup2\n      mstore\n      0x20\n      add\n      swap1\n      dup2\n      mstore\n      0x20\n      add\n      0x00\n      keccak256\n        /* \"workspace/3_IoT.sol\":2354:2372  devices[_id].owner */\n      0x03\n      add\n      0x01\n      swap1\n      sload\n      swap1\n      0x0100\n      exp\n      swap1\n      div\n      0xffffffffffffffffffffffffffffffffffffffff\n      and\n        /* \"workspace/3_IoT.sol\":2340:2372  msg.sender == devices[_id].owner */\n      0xffffffffffffffffffffffffffffffffffffffff\n      and\n        /* \"workspace/3_IoT.sol\":2340:2350  msg.sender */\n      caller\n        /* \"workspace/3_IoT.sol\":2340:2372  msg.sender == devices[_id].owner */\n      0xffffffffffffffffffffffffffffffffffffffff\n      and\n      eq\n        /* \"workspace/3_IoT.sol\":2332:2402  require(msg.sender == devices[_id].owner, \"Only owner can deactivate\") */\n      tag_55\n      jumpi\n      mload(0x40)\n      0x08c379a000000000000000000000000000000000000000000000000000000000\n      dup2\n      mstore\n      0x04\n      add\n      tag_56\n      swap1\n      tag_57\n      jump\t// in\n    tag_56:\n      mload(0x40)\n      dup1\n      swap2\n      sub\n      swap1\n      revert\n    tag_55:\n        /* \"workspace/3_IoT.sol\":2438:2443  false */\n      0x00\n        /* \"workspace/3_IoT.sol\":2414:2421  devices */\n      0x00\n        /* \"workspace/3_IoT.sol\":2414:2426  devices[_id] */\n      0x00\n        /* \"workspace/3_IoT.sol\":2422:2425  _id */\n      dup4\n        /* \"workspace/3_IoT.sol\":2414:2426  devices[_id] */\n      dup2\n      mstore\n      0x20\n      add\n      swap1\n      dup2\n      mstore\n      0x20\n      add\n      0x00\n      keccak256\n        /* \"workspace/3_IoT.sol\":2414:2435  devices[_id].isActive */\n      0x03\n      add\n      0x00\n        /* \"workspace/3_IoT.sol\":2414:2443  devices[_id].isActive = false */\n      0x0100\n      exp\n      dup2\n      sload\n      dup2\n      0xff\n      mul\n      not\n      and\n      swap1\n      dup4\n      iszero\n      iszero\n      mul\n      or\n      swap1\n      sstore\n      pop\n        /* \"workspace/3_IoT.sol\":2208:2452  function deactivateDevice(uint _id) public {... */\n      pop\n      jump\t// out\n        /* \"workspace/3_IoT.sol\":1232:2131  function buyDataAccess(uint _id) public payable {... */\n    tag_23:\n        /* \"workspace/3_IoT.sol\":1291:1307  Device storage d */\n      0x00\n        /* \"workspace/3_IoT.sol\":1310:1317  devices */\n      0x00\n        /* \"workspace/3_IoT.sol\":1310:1322  devices[_id] */\n      0x00\n        /* \"workspace/3_IoT.sol\":1318:1321  _id */\n      dup4\n        /* \"workspace/3_IoT.sol\":1310:1322  devices[_id] */\n      dup2\n      mstore\n      0x20\n      add\n      swap1\n      dup2\n      mstore\n      0x20\n      add\n      0x00\n      keccak256\n        /* \"workspace/3_IoT.sol\":1291:1322  Device storage d = devices[_id] */\n      swap1\n      pop\n        /* \"workspace/3_IoT.sol\":1341:1342  d */\n      dup1\n        /* \"workspace/3_IoT.sol\":1341:1351  d.isActive */\n      0x03\n      add\n      0x00\n      swap1\n      sload\n      swap1\n      0x0100\n      exp\n      swap1\n      div\n      0xff\n      and\n        /* \"workspace/3_IoT.sol\":1333:1373  require(d.isActive, \"Device not active\") */\n      tag_59\n      jumpi\n      mload(0x40)\n      0x08c379a000000000000000000000000000000000000000000000000000000000\n      dup2\n      mstore\n      0x04\n      add\n      tag_60\n      swap1\n      tag_61\n      jump\t// in\n    tag_60:\n      mload(0x40)\n      dup1\n      swap2\n      sub\n      swap1\n      revert\n    tag_59:\n        /* \"workspace/3_IoT.sol\":1465:1466  d */\n      dup1\n        /* \"workspace/3_IoT.sol\":1465:1472  d.price */\n      0x02\n      add\n      sload\n        /* \"workspace/3_IoT.sol\":1452:1461  msg.value */\n      callvalue\n        /* \"workspace/3_IoT.sol\":1452:1472  msg.value >= d.price */\n      lt\n      iszero\n        /* \"workspace/3_IoT.sol\":1444:1495  require(msg.value >= d.price, \"Insufficient funds\") */\n      tag_62\n      jumpi\n      mload(0x40)\n      0x08c379a000000000000000000000000000000000000000000000000000000000\n      dup2\n      mstore\n      0x04\n      add\n      tag_63\n      swap1\n      tag_64\n      jump\t// in\n    tag_63:\n      mload(0x40)\n      dup1\n      swap2\n      sub\n      swap1\n      revert\n    tag_62:\n        /* \"workspace/3_IoT.sol\":1613:1617  true */\n      0x01\n        /* \"workspace/3_IoT.sol\":1584:1593  hasAccess */\n      0x02\n        /* \"workspace/3_IoT.sol\":1584:1605  hasAccess[msg.sender] */\n      0x00\n        /* \"workspace/3_IoT.sol\":1594:1604  msg.sender */\n      caller\n        /* \"workspace/3_IoT.sol\":1584:1605  hasAccess[msg.sender] */\n      0xffffffffffffffffffffffffffffffffffffffff\n      and\n      0xffffffffffffffffffffffffffffffffffffffff\n      and\n      dup2\n      mstore\n      0x20\n      add\n      swap1\n      dup2\n      mstore\n      0x20\n      add\n      0x00\n      keccak256\n        /* \"workspace/3_IoT.sol\":1584:1610  hasAccess[msg.sender][_id] */\n      0x00\n        /* \"workspace/3_IoT.sol\":1606:1609  _id */\n      dup5\n        /* \"workspace/3_IoT.sol\":1584:1610  hasAccess[msg.sender][_id] */\n      dup2\n      mstore\n      0x20\n      add\n      swap1\n      dup2\n      mstore\n      0x20\n      add\n      0x00\n      keccak256\n      0x00\n        /* \"workspace/3_IoT.sol\":1584:1617  hasAccess[msg.sender][_id] = true */\n      0x0100\n      exp\n      dup2\n      sload\n      dup2\n      0xff\n      mul\n      not\n      and\n      swap1\n      dup4\n      iszero\n      iszero\n      mul\n      or\n      swap1\n      sstore\n      pop\n        /* \"workspace/3_IoT.sol\":1707:1719  bool success */\n      0x00\n        /* \"workspace/3_IoT.sol\":1733:1734  d */\n      dup2\n        /* \"workspace/3_IoT.sol\":1733:1740  d.owner */\n      0x03\n      add\n      0x01\n      swap1\n      sload\n      swap1\n      0x0100\n      exp\n      swap1\n      div\n      0xffffffffffffffffffffffffffffffffffffffff\n      and\n        /* \"workspace/3_IoT.sol\":1725:1746  payable(d.owner).call */\n      0xffffffffffffffffffffffffffffffffffffffff\n      and\n        /* \"workspace/3_IoT.sol\":1754:1755  d */\n      dup3\n        /* \"workspace/3_IoT.sol\":1754:1761  d.price */\n      0x02\n      add\n      sload\n        /* \"workspace/3_IoT.sol\":1725:1766  payable(d.owner).call{value: d.price}(\"\") */\n      mload(0x40)\n      tag_65\n      swap1\n      tag_66\n      jump\t// in\n    tag_65:\n      0x00\n      mload(0x40)\n      dup1\n      dup4\n      sub\n      dup2\n      dup6\n      dup8\n      gas\n      call\n      swap3\n      pop\n      pop\n      pop\n      returndatasize\n      dup1\n      0x00\n      dup2\n      eq\n      tag_69\n      jumpi\n      mload(0x40)\n      swap2\n      pop\n      and(add(returndatasize, 0x3f), not(0x1f))\n      dup3\n      add\n      0x40\n      mstore\n      returndatasize\n      dup3\n      mstore\n      returndatasize\n      0x00\n      0x20\n      dup5\n      add\n      returndatacopy\n      jump(tag_68)\n    tag_69:\n      0x60\n      swap2\n      pop\n    tag_68:\n      pop\n        /* \"workspace/3_IoT.sol\":1706:1766  (bool success, ) = payable(d.owner).call{value: d.price}(\"\") */\n      pop\n      swap1\n      pop\n        /* \"workspace/3_IoT.sol\":1785:1792  success */\n      dup1\n        /* \"workspace/3_IoT.sol\":1777:1821  require(success, \"Transfer to owner failed\") */\n      tag_70\n      jumpi\n      mload(0x40)\n      0x08c379a000000000000000000000000000000000000000000000000000000000\n      dup2\n      mstore\n      0x04\n      add\n      tag_71\n      swap1\n      tag_72\n      jump\t// in\n    tag_71:\n      mload(0x40)\n      dup1\n      swap2\n      sub\n      swap1\n      revert\n    tag_70:\n        /* \"workspace/3_IoT.sol\":1906:1907  d */\n      dup2\n        /* \"workspace/3_IoT.sol\":1906:1913  d.price */\n      0x02\n      add\n      sload\n        /* \"workspace/3_IoT.sol\":1894:1903  msg.value */\n      callvalue\n        /* \"workspace/3_IoT.sol\":1894:1913  msg.value > d.price */\n      gt\n        /* \"workspace/3_IoT.sol\":1890:2124  if (msg.value > d.price) {... */\n      iszero\n      tag_73\n      jumpi\n        /* \"workspace/3_IoT.sol\":1930:1947  uint refundAmount */\n      0x00\n        /* \"workspace/3_IoT.sol\":1962:1963  d */\n      dup3\n        /* \"workspace/3_IoT.sol\":1962:1969  d.price */\n      0x02\n      add\n      sload\n        /* \"workspace/3_IoT.sol\":1950:1959  msg.value */\n      callvalue\n        /* \"workspace/3_IoT.sol\":1950:1969  msg.value - d.price */\n      tag_74\n      swap2\n      swap1\n      tag_75\n      jump\t// in\n    tag_74:\n        /* \"workspace/3_IoT.sol\":1930:1969  uint refundAmount = msg.value - d.price */\n      swap1\n      pop\n        /* \"workspace/3_IoT.sol\":1985:2003  bool refundSuccess */\n      0x00\n        /* \"workspace/3_IoT.sol\":2017:2027  msg.sender */\n      caller\n        /* \"workspace/3_IoT.sol\":2009:2033  payable(msg.sender).call */\n      0xffffffffffffffffffffffffffffffffffffffff\n      and\n        /* \"workspace/3_IoT.sol\":2041:2053  refundAmount */\n      dup3\n        /* \"workspace/3_IoT.sol\":2009:2058  payable(msg.sender).call{value: refundAmount}(\"\") */\n      mload(0x40)\n      tag_76\n      swap1\n      tag_66\n      jump\t// in\n    tag_76:\n      0x00\n      mload(0x40)\n      dup1\n      dup4\n      sub\n      dup2\n      dup6\n      dup8\n      gas\n      call\n      swap3\n      pop\n      pop\n      pop\n      returndatasize\n      dup1\n      0x00\n      dup2\n      eq\n      tag_79\n      jumpi\n      mload(0x40)\n      swap2\n      pop\n      and(add(returndatasize, 0x3f), not(0x1f))\n      dup3\n      add\n      0x40\n      mstore\n      returndatasize\n      dup3\n      mstore\n      returndatasize\n      0x00\n      0x20\n      dup5\n      add\n      returndatacopy\n      jump(tag_78)\n    tag_79:\n      0x60\n      swap2\n      pop\n    tag_78:\n      pop\n        /* \"workspace/3_IoT.sol\":1984:2058  (bool refundSuccess, ) = payable(msg.sender).call{value: refundAmount}(\"\") */\n      pop\n      swap1\n      pop\n        /* \"workspace/3_IoT.sol\":2081:2094  refundSuccess */\n      dup1\n        /* \"workspace/3_IoT.sol\":2073:2112  require(refundSuccess, \"Refund failed\") */\n      tag_80\n      jumpi\n      mload(0x40)\n      0x08c379a000000000000000000000000000000000000000000000000000000000\n      dup2\n      mstore\n      0x04\n      add\n      tag_81\n      swap1\n      tag_82\n      jump\t// in\n    tag_81:\n      mload(0x40)\n      dup1\n      swap2\n      sub\n      swap1\n      revert\n    tag_80:\n        /* \"workspace/3_IoT.sol\":1915:2124  {... */\n      pop\n      pop\n        /* \"workspace/3_IoT.sol\":1890:2124  if (msg.value > d.price) {... */\n    tag_73:\n        /* \"workspace/3_IoT.sol\":1280:2131  {... */\n      pop\n      pop\n        /* \"workspace/3_IoT.sol\":1232:2131  function buyDataAccess(uint _id) public payable {... */\n      pop\n      jump\t// out\n        /* \"workspace/3_IoT.sol\":489:547  mapping(address => mapping(uint => bool)) public hasAccess */\n    tag_28:\n      mstore(0x20, 0x02)\n      dup2\n      0x00\n      mstore\n      mstore(0x20, keccak256(0x00, 0x40))\n      dup1\n      0x00\n      mstore\n      keccak256(0x00, 0x40)\n      0x00\n      swap2\n      pop\n      swap2\n      pop\n      swap1\n      sload\n      swap1\n      0x0100\n      exp\n      swap1\n      div\n      0xff\n      and\n      dup2\n      jump\t// out\n        /* \"workspace/3_IoT.sol\":396:441  mapping(address => uint[]) public userDevices */\n    tag_34:\n      mstore(0x20, 0x01)\n      dup2\n      0x00\n      mstore\n      keccak256(0x00, 0x40)\n      dup2\n      dup2\n      sload\n      dup2\n      lt\n      tag_83\n      jumpi\n      0x00\n      dup1\n      revert\n    tag_83:\n      swap1\n      0x00\n      mstore\n      keccak256(0x00, 0x20)\n      add\n      0x00\n      swap2\n      pop\n      swap2\n      pop\n      pop\n      sload\n      dup2\n      jump\t// out\n        /* \"workspace/3_IoT.sol\":989:1174  function getDeviceData(uint _id) public view returns (string memory, uint, bool) {... */\n    tag_40:\n        /* \"workspace/3_IoT.sol\":1043:1056  string memory */\n      0x60\n        /* \"workspace/3_IoT.sol\":1058:1062  uint */\n      0x00\n        /* \"workspace/3_IoT.sol\":1064:1068  bool */\n      0x00\n        /* \"workspace/3_IoT.sol\":1081:1097  Device storage d */\n      0x00\n        /* \"workspace/3_IoT.sol\":1100:1107  devices */\n      0x00\n        /* \"workspace/3_IoT.sol\":1100:1112  devices[_id] */\n      0x00\n        /* \"workspace/3_IoT.sol\":1108:1111  _id */\n      dup7\n        /* \"workspace/3_IoT.sol\":1100:1112  devices[_id] */\n      dup2\n      mstore\n      0x20\n      add\n      swap1\n      dup2\n      mstore\n      0x20\n      add\n      0x00\n      keccak256\n        /* \"workspace/3_IoT.sol\":1081:1112  Device storage d = devices[_id] */\n      swap1\n      pop\n        /* \"workspace/3_IoT.sol\":1131:1132  d */\n      dup1\n        /* \"workspace/3_IoT.sol\":1131:1143  d.deviceType */\n      0x01\n      add\n        /* \"workspace/3_IoT.sol\":1145:1146  d */\n      dup2\n        /* \"workspace/3_IoT.sol\":1145:1152  d.price */\n      0x02\n      add\n      sload\n        /* \"workspace/3_IoT.sol\":1154:1155  d */\n      dup3\n        /* \"workspace/3_IoT.sol\":1154:1164  d.isActive */\n      0x03\n      add\n      0x00\n      swap1\n      sload\n      swap1\n      0x0100\n      exp\n      swap1\n      div\n      0xff\n      and\n        /* \"workspace/3_IoT.sol\":1123:1165  return (d.deviceType, d.price, d.isActive) */\n      dup3\n      dup1\n      sload\n      tag_86\n      swap1\n      tag_49\n      jump\t// in\n    tag_86:\n      dup1\n      0x1f\n      add\n      0x20\n      dup1\n      swap2\n      div\n      mul\n      0x20\n      add\n      mload(0x40)\n      swap1\n      dup2\n      add\n      0x40\n      mstore\n      dup1\n      swap3\n      swap2\n      swap1\n      dup2\n      dup2\n      mstore\n      0x20\n      add\n      dup3\n      dup1\n      sload\n      tag_87\n      swap1\n      tag_49\n      jump\t// in\n    tag_87:\n      dup1\n      iszero\n      tag_88\n      jumpi\n      dup1\n      0x1f\n      lt\n      tag_89\n      jumpi\n      0x0100\n      dup1\n      dup4\n      sload\n      div\n      mul\n      dup4\n      mstore\n      swap2\n      0x20\n      add\n      swap2\n      jump(tag_88)\n    tag_89:\n      dup3\n      add\n      swap2\n      swap1\n      0x00\n      mstore\n      keccak256(0x00, 0x20)\n      swap1\n    tag_90:\n      dup2\n      sload\n      dup2\n      mstore\n      swap1\n      0x01\n      add\n      swap1\n      0x20\n      add\n      dup1\n      dup4\n      gt\n      tag_90\n      jumpi\n      dup3\n      swap1\n      sub\n      0x1f\n      and\n      dup3\n      add\n      swap2\n    tag_88:\n      pop\n      pop\n      pop\n      pop\n      pop\n      swap3\n      pop\n      swap4\n      pop\n      swap4\n      pop\n      swap4\n      pop\n      pop\n        /* \"workspace/3_IoT.sol\":989:1174  function getDeviceData(uint _id) public view returns (string memory, uint, bool) {... */\n      swap2\n      swap4\n      swap1\n      swap3\n      pop\n      jump\t// out\n        /* \"workspace/3_IoT.sol\":630:913  function registerDevice(uint _id, string memory _type, uint _price) public {... */\n    tag_47:\n        /* \"workspace/3_IoT.sol\":816:860  Device(_id, _type, _price, true, msg.sender) */\n      mload(0x40)\n      dup1\n      0xa0\n      add\n      0x40\n      mstore\n      dup1\n        /* \"workspace/3_IoT.sol\":823:826  _id */\n      dup5\n        /* \"workspace/3_IoT.sol\":816:860  Device(_id, _type, _price, true, msg.sender) */\n      dup2\n      mstore\n      0x20\n      add\n        /* \"workspace/3_IoT.sol\":828:833  _type */\n      dup4\n        /* \"workspace/3_IoT.sol\":816:860  Device(_id, _type, _price, true, msg.sender) */\n      dup2\n      mstore\n      0x20\n      add\n        /* \"workspace/3_IoT.sol\":835:841  _price */\n      dup3\n        /* \"workspace/3_IoT.sol\":816:860  Device(_id, _type, _price, true, msg.sender) */\n      dup2\n      mstore\n      0x20\n      add\n        /* \"workspace/3_IoT.sol\":843:847  true */\n      0x01\n        /* \"workspace/3_IoT.sol\":816:860  Device(_id, _type, _price, true, msg.sender) */\n      iszero\n      iszero\n      dup2\n      mstore\n      0x20\n      add\n        /* \"workspace/3_IoT.sol\":849:859  msg.sender */\n      caller\n        /* \"workspace/3_IoT.sol\":816:860  Device(_id, _type, _price, true, msg.sender) */\n      0xffffffffffffffffffffffffffffffffffffffff\n      and\n      dup2\n      mstore\n      pop\n        /* \"workspace/3_IoT.sol\":801:808  devices */\n      0x00\n        /* \"workspace/3_IoT.sol\":801:813  devices[_id] */\n      0x00\n        /* \"workspace/3_IoT.sol\":809:812  _id */\n      dup6\n        /* \"workspace/3_IoT.sol\":801:813  devices[_id] */\n      dup2\n      mstore\n      0x20\n      add\n      swap1\n      dup2\n      mstore\n      0x20\n      add\n      0x00\n      keccak256\n        /* \"workspace/3_IoT.sol\":801:860  devices[_id] = Device(_id, _type, _price, true, msg.sender) */\n      0x00\n      dup3\n      add\n      mload\n      dup2\n      0x00\n      add\n      sstore\n      0x20\n      dup3\n      add\n      mload\n      dup2\n      0x01\n      add\n      swap1\n      dup2\n      tag_92\n      swap2\n      swap1\n      tag_93\n      jump\t// in\n    tag_92:\n      pop\n      0x40\n      dup3\n      add\n      mload\n      dup2\n      0x02\n      add\n      sstore\n      0x60\n      dup3\n      add\n      mload\n      dup2\n      0x03\n      add\n      exp(0x0100, 0x00)\n      dup2\n      sload\n      dup2\n      0xff\n      mul\n      not\n      and\n      swap1\n      dup4\n      iszero\n      iszero\n      mul\n      or\n      swap1\n      sstore\n      pop\n      0x80\n      dup3\n      add\n      mload\n      dup2\n      0x03\n      add\n      exp(0x0100, 0x01)\n      dup2\n      sload\n      dup2\n      0xffffffffffffffffffffffffffffffffffffffff\n      mul\n      not\n      and\n      swap1\n      dup4\n      0xffffffffffffffffffffffffffffffffffffffff\n      and\n      mul\n      or\n      swap1\n      sstore\n      pop\n      swap1\n      pop\n      pop\n        /* \"workspace/3_IoT.sol\":872:883  userDevices */\n      0x01\n        /* \"workspace/3_IoT.sol\":872:895  userDevices[msg.sender] */\n      0x00\n        /* \"workspace/3_IoT.sol\":884:894  msg.sender */\n      caller\n        /* \"workspace/3_IoT.sol\":872:895  userDevices[msg.sender] */\n      0xffffffffffffffffffffffffffffffffffffffff\n      and\n      0xffffffffffffffffffffffffffffffffffffffff\n      and\n      dup2\n      mstore\n      0x20\n      add\n      swap1\n      dup2\n      mstore\n      0x20\n      add\n      0x00\n      keccak256\n        /* \"workspace/3_IoT.sol\":901:904  _id */\n      dup4\n        /* \"workspace/3_IoT.sol\":872:905  userDevices[msg.sender].push(_id) */\n      swap1\n      dup1\n      0x01\n      dup2\n      sload\n      add\n      dup1\n      dup3\n      sstore\n      dup1\n      swap2\n      pop\n      pop\n      0x01\n      swap1\n      sub\n      swap1\n      0x00\n      mstore\n      keccak256(0x00, 0x20)\n      add\n      0x00\n      swap1\n      swap2\n      swap1\n      swap2\n      swap1\n      swap2\n      pop\n      sstore\n        /* \"workspace/3_IoT.sol\":630:913  function registerDevice(uint _id, string memory _type, uint _price) public {... */\n      pop\n      pop\n      pop\n      jump\t// out\n        /* \"#utility.yul\":7:82   */\n    tag_95:\n        /* \"#utility.yul\":40:46   */\n      0x00\n        /* \"#utility.yul\":73:75   */\n      0x40\n        /* \"#utility.yul\":67:76   */\n      mload\n        /* \"#utility.yul\":57:76   */\n      swap1\n      pop\n        /* \"#utility.yul\":7:82   */\n      swap1\n      jump\t// out\n        /* \"#utility.yul\":88:205   */\n    tag_96:\n        /* \"#utility.yul\":197:198   */\n      0x00\n        /* \"#utility.yul\":194:195   */\n      0x00\n        /* \"#utility.yul\":187:199   */\n      revert\n        /* \"#utility.yul\":211:328   */\n    tag_97:\n        /* \"#utility.yul\":320:321   */\n      0x00\n        /* \"#utility.yul\":317:318   */\n      0x00\n        /* \"#utility.yul\":310:322   */\n      revert\n        /* \"#utility.yul\":334:411   */\n    tag_98:\n        /* \"#utility.yul\":371:378   */\n      0x00\n        /* \"#utility.yul\":400:405   */\n      dup2\n        /* \"#utility.yul\":389:405   */\n      swap1\n      pop\n        /* \"#utility.yul\":334:411   */\n      swap2\n      swap1\n      pop\n      jump\t// out\n        /* \"#utility.yul\":417:539   */\n    tag_99:\n        /* \"#utility.yul\":490:514   */\n      tag_159\n        /* \"#utility.yul\":508:513   */\n      dup2\n        /* \"#utility.yul\":490:514   */\n      tag_98\n      jump\t// in\n    tag_159:\n        /* \"#utility.yul\":483:488   */\n      dup2\n        /* \"#utility.yul\":480:515   */\n      eq\n        /* \"#utility.yul\":470:533   */\n      tag_160\n      jumpi\n        /* \"#utility.yul\":529:530   */\n      0x00\n        /* \"#utility.yul\":526:527   */\n      0x00\n        /* \"#utility.yul\":519:531   */\n      revert\n        /* \"#utility.yul\":470:533   */\n    tag_160:\n        /* \"#utility.yul\":417:539   */\n      pop\n      jump\t// out\n        /* \"#utility.yul\":545:684   */\n    tag_100:\n        /* \"#utility.yul\":591:596   */\n      0x00\n        /* \"#utility.yul\":629:635   */\n      dup2\n        /* \"#utility.yul\":616:636   */\n      calldataload\n        /* \"#utility.yul\":607:636   */\n      swap1\n      pop\n        /* \"#utility.yul\":645:678   */\n      tag_162\n        /* \"#utility.yul\":672:677   */\n      dup2\n        /* \"#utility.yul\":645:678   */\n      tag_99\n      jump\t// in\n    tag_162:\n        /* \"#utility.yul\":545:684   */\n      swap3\n      swap2\n      pop\n      pop\n      jump\t// out\n        /* \"#utility.yul\":690:1019   */\n    tag_13:\n        /* \"#utility.yul\":749:755   */\n      0x00\n        /* \"#utility.yul\":798:800   */\n      0x20\n        /* \"#utility.yul\":786:795   */\n      dup3\n        /* \"#utility.yul\":777:784   */\n      dup5\n        /* \"#utility.yul\":773:796   */\n      sub\n        /* \"#utility.yul\":769:801   */\n      slt\n        /* \"#utility.yul\":766:885   */\n      iszero\n      tag_164\n      jumpi\n        /* \"#utility.yul\":804:883   */\n      tag_165\n      tag_96\n      jump\t// in\n    tag_165:\n        /* \"#utility.yul\":766:885   */\n    tag_164:\n        /* \"#utility.yul\":924:925   */\n      0x00\n        /* \"#utility.yul\":949:1002   */\n      tag_166\n        /* \"#utility.yul\":994:1001   */\n      dup5\n        /* \"#utility.yul\":985:991   */\n      dup3\n        /* \"#utility.yul\":974:983   */\n      dup6\n        /* \"#utility.yul\":970:992   */\n      add\n        /* \"#utility.yul\":949:1002   */\n      tag_100\n      jump\t// in\n    tag_166:\n        /* \"#utility.yul\":939:1002   */\n      swap2\n      pop\n        /* \"#utility.yul\":895:1012   */\n      pop\n        /* \"#utility.yul\":690:1019   */\n      swap3\n      swap2\n      pop\n      pop\n      jump\t// out\n        /* \"#utility.yul\":1025:1143   */\n    tag_101:\n        /* \"#utility.yul\":1112:1136   */\n      tag_168\n        /* \"#utility.yul\":1130:1135   */\n      dup2\n        /* \"#utility.yul\":1112:1136   */\n      tag_98\n      jump\t// in\n    tag_168:\n        /* \"#utility.yul\":1107:1110   */\n      dup3\n        /* \"#utility.yul\":1100:1137   */\n      mstore\n        /* \"#utility.yul\":1025:1143   */\n      pop\n      pop\n      jump\t// out\n        /* \"#utility.yul\":1149:1248   */\n    tag_102:\n        /* \"#utility.yul\":1201:1207   */\n      0x00\n        /* \"#utility.yul\":1235:1240   */\n      dup2\n        /* \"#utility.yul\":1229:1241   */\n      mload\n        /* \"#utility.yul\":1219:1241   */\n      swap1\n      pop\n        /* \"#utility.yul\":1149:1248   */\n      swap2\n      swap1\n      pop\n      jump\t// out\n        /* \"#utility.yul\":1254:1423   */\n    tag_103:\n        /* \"#utility.yul\":1338:1349   */\n      0x00\n        /* \"#utility.yul\":1372:1378   */\n      dup3\n        /* \"#utility.yul\":1367:1370   */\n      dup3\n        /* \"#utility.yul\":1360:1379   */\n      mstore\n        /* \"#utility.yul\":1412:1416   */\n      0x20\n        /* \"#utility.yul\":1407:1410   */\n      dup3\n        /* \"#utility.yul\":1403:1417   */\n      add\n        /* \"#utility.yul\":1388:1417   */\n      swap1\n      pop\n        /* \"#utility.yul\":1254:1423   */\n      swap3\n      swap2\n      pop\n      pop\n      jump\t// out\n        /* \"#utility.yul\":1429:1568   */\n    tag_104:\n        /* \"#utility.yul\":1518:1524   */\n      dup3\n        /* \"#utility.yul\":1513:1516   */\n      dup2\n        /* \"#utility.yul\":1508:1511   */\n      dup4\n        /* \"#utility.yul\":1502:1525   */\n      mcopy\n        /* \"#utility.yul\":1559:1560   */\n      0x00\n        /* \"#utility.yul\":1550:1556   */\n      dup4\n        /* \"#utility.yul\":1545:1548   */\n      dup4\n        /* \"#utility.yul\":1541:1557   */\n      add\n        /* \"#utility.yul\":1534:1561   */\n      mstore\n        /* \"#utility.yul\":1429:1568   */\n      pop\n      pop\n      pop\n      jump\t// out\n        /* \"#utility.yul\":1574:1676   */\n    tag_105:\n        /* \"#utility.yul\":1615:1621   */\n      0x00\n        /* \"#utility.yul\":1666:1668   */\n      0x1f\n        /* \"#utility.yul\":1662:1669   */\n      not\n        /* \"#utility.yul\":1657:1659   */\n      0x1f\n        /* \"#utility.yul\":1650:1655   */\n      dup4\n        /* \"#utility.yul\":1646:1660   */\n      add\n        /* \"#utility.yul\":1642:1670   */\n      and\n        /* \"#utility.yul\":1632:1670   */\n      swap1\n      pop\n        /* \"#utility.yul\":1574:1676   */\n      swap2\n      swap1\n      pop\n      jump\t// out\n        /* \"#utility.yul\":1682:2059   */\n    tag_106:\n        /* \"#utility.yul\":1770:1773   */\n      0x00\n        /* \"#utility.yul\":1798:1837   */\n      tag_174\n        /* \"#utility.yul\":1831:1836   */\n      dup3\n        /* \"#utility.yul\":1798:1837   */\n      tag_102\n      jump\t// in\n    tag_174:\n        /* \"#utility.yul\":1853:1924   */\n      tag_175\n        /* \"#utility.yul\":1917:1923   */\n      dup2\n        /* \"#utility.yul\":1912:1915   */\n      dup6\n        /* \"#utility.yul\":1853:1924   */\n      tag_103\n      jump\t// in\n    tag_175:\n        /* \"#utility.yul\":1846:1924   */\n      swap4\n      pop\n        /* \"#utility.yul\":1933:1998   */\n      tag_176\n        /* \"#utility.yul\":1991:1997   */\n      dup2\n        /* \"#utility.yul\":1986:1989   */\n      dup6\n        /* \"#utility.yul\":1979:1983   */\n      0x20\n        /* \"#utility.yul\":1972:1977   */\n      dup7\n        /* \"#utility.yul\":1968:1984   */\n      add\n        /* \"#utility.yul\":1933:1998   */\n      tag_104\n      jump\t// in\n    tag_176:\n        /* \"#utility.yul\":2023:2052   */\n      tag_177\n        /* \"#utility.yul\":2045:2051   */\n      dup2\n        /* \"#utility.yul\":2023:2052   */\n      tag_105\n      jump\t// in\n    tag_177:\n        /* \"#utility.yul\":2018:2021   */\n      dup5\n        /* \"#utility.yul\":2014:2053   */\n      add\n        /* \"#utility.yul\":2007:2053   */\n      swap2\n      pop\n        /* \"#utility.yul\":1774:2059   */\n      pop\n        /* \"#utility.yul\":1682:2059   */\n      swap3\n      swap2\n      pop\n      pop\n      jump\t// out\n        /* \"#utility.yul\":2065:2155   */\n    tag_107:\n        /* \"#utility.yul\":2099:2106   */\n      0x00\n        /* \"#utility.yul\":2142:2147   */\n      dup2\n        /* \"#utility.yul\":2135:2148   */\n      iszero\n        /* \"#utility.yul\":2128:2149   */\n      iszero\n        /* \"#utility.yul\":2117:2149   */\n      swap1\n      pop\n        /* \"#utility.yul\":2065:2155   */\n      swap2\n      swap1\n      pop\n      jump\t// out\n        /* \"#utility.yul\":2161:2270   */\n    tag_108:\n        /* \"#utility.yul\":2242:2263   */\n      tag_180\n        /* \"#utility.yul\":2257:2262   */\n      dup2\n        /* \"#utility.yul\":2242:2263   */\n      tag_107\n      jump\t// in\n    tag_180:\n        /* \"#utility.yul\":2237:2240   */\n      dup3\n        /* \"#utility.yul\":2230:2264   */\n      mstore\n        /* \"#utility.yul\":2161:2270   */\n      pop\n      pop\n      jump\t// out\n        /* \"#utility.yul\":2276:2402   */\n    tag_109:\n        /* \"#utility.yul\":2313:2320   */\n      0x00\n        /* \"#utility.yul\":2353:2395   */\n      0xffffffffffffffffffffffffffffffffffffffff\n        /* \"#utility.yul\":2346:2351   */\n      dup3\n        /* \"#utility.yul\":2342:2396   */\n      and\n        /* \"#utility.yul\":2331:2396   */\n      swap1\n      pop\n        /* \"#utility.yul\":2276:2402   */\n      swap2\n      swap1\n      pop\n      jump\t// out\n        /* \"#utility.yul\":2408:2504   */\n    tag_110:\n        /* \"#utility.yul\":2445:2452   */\n      0x00\n        /* \"#utility.yul\":2474:2498   */\n      tag_183\n        /* \"#utility.yul\":2492:2497   */\n      dup3\n        /* \"#utility.yul\":2474:2498   */\n      tag_109\n      jump\t// in\n    tag_183:\n        /* \"#utility.yul\":2463:2498   */\n      swap1\n      pop\n        /* \"#utility.yul\":2408:2504   */\n      swap2\n      swap1\n      pop\n      jump\t// out\n        /* \"#utility.yul\":2510:2628   */\n    tag_111:\n        /* \"#utility.yul\":2597:2621   */\n      tag_185\n        /* \"#utility.yul\":2615:2620   */\n      dup2\n        /* \"#utility.yul\":2597:2621   */\n      tag_110\n      jump\t// in\n    tag_185:\n        /* \"#utility.yul\":2592:2595   */\n      dup3\n        /* \"#utility.yul\":2585:2622   */\n      mstore\n        /* \"#utility.yul\":2510:2628   */\n      pop\n      pop\n      jump\t// out\n        /* \"#utility.yul\":2634:3377   */\n    tag_16:\n        /* \"#utility.yul\":2853:2857   */\n      0x00\n        /* \"#utility.yul\":2891:2894   */\n      0xa0\n        /* \"#utility.yul\":2880:2889   */\n      dup3\n        /* \"#utility.yul\":2876:2895   */\n      add\n        /* \"#utility.yul\":2868:2895   */\n      swap1\n      pop\n        /* \"#utility.yul\":2905:2976   */\n      tag_187\n        /* \"#utility.yul\":2973:2974   */\n      0x00\n        /* \"#utility.yul\":2962:2971   */\n      dup4\n        /* \"#utility.yul\":2958:2975   */\n      add\n        /* \"#utility.yul\":2949:2955   */\n      dup9\n        /* \"#utility.yul\":2905:2976   */\n      tag_101\n      jump\t// in\n    tag_187:\n        /* \"#utility.yul\":3023:3032   */\n      dup2\n        /* \"#utility.yul\":3017:3021   */\n      dup2\n        /* \"#utility.yul\":3013:3033   */\n      sub\n        /* \"#utility.yul\":3008:3010   */\n      0x20\n        /* \"#utility.yul\":2997:3006   */\n      dup4\n        /* \"#utility.yul\":2993:3011   */\n      add\n        /* \"#utility.yul\":2986:3034   */\n      mstore\n        /* \"#utility.yul\":3051:3129   */\n      tag_188\n        /* \"#utility.yul\":3124:3128   */\n      dup2\n        /* \"#utility.yul\":3115:3121   */\n      dup8\n        /* \"#utility.yul\":3051:3129   */\n      tag_106\n      jump\t// in\n    tag_188:\n        /* \"#utility.yul\":3043:3129   */\n      swap1\n      pop\n        /* \"#utility.yul\":3139:3211   */\n      tag_189\n        /* \"#utility.yul\":3207:3209   */\n      0x40\n        /* \"#utility.yul\":3196:3205   */\n      dup4\n        /* \"#utility.yul\":3192:3210   */\n      add\n        /* \"#utility.yul\":3183:3189   */\n      dup7\n        /* \"#utility.yul\":3139:3211   */\n      tag_101\n      jump\t// in\n    tag_189:\n        /* \"#utility.yul\":3221:3287   */\n      tag_190\n        /* \"#utility.yul\":3283:3285   */\n      0x60\n        /* \"#utility.yul\":3272:3281   */\n      dup4\n        /* \"#utility.yul\":3268:3286   */\n      add\n        /* \"#utility.yul\":3259:3265   */\n      dup6\n        /* \"#utility.yul\":3221:3287   */\n      tag_108\n      jump\t// in\n    tag_190:\n        /* \"#utility.yul\":3297:3370   */\n      tag_191\n        /* \"#utility.yul\":3365:3368   */\n      0x80\n        /* \"#utility.yul\":3354:3363   */\n      dup4\n        /* \"#utility.yul\":3350:3369   */\n      add\n        /* \"#utility.yul\":3341:3347   */\n      dup5\n        /* \"#utility.yul\":3297:3370   */\n      tag_111\n      jump\t// in\n    tag_191:\n        /* \"#utility.yul\":2634:3377   */\n      swap7\n      swap6\n      pop\n      pop\n      pop\n      pop\n      pop\n      pop\n      jump\t// out\n        /* \"#utility.yul\":3383:3505   */\n    tag_112:\n        /* \"#utility.yul\":3456:3480   */\n      tag_193\n        /* \"#utility.yul\":3474:3479   */\n      dup2\n        /* \"#utility.yul\":3456:3480   */\n      tag_110\n      jump\t// in\n    tag_193:\n        /* \"#utility.yul\":3449:3454   */\n      dup2\n        /* \"#utility.yul\":3446:3481   */\n      eq\n        /* \"#utility.yul\":3436:3499   */\n      tag_194\n      jumpi\n        /* \"#utility.yul\":3495:3496   */\n      0x00\n        /* \"#utility.yul\":3492:3493   */\n      0x00\n        /* \"#utility.yul\":3485:3497   */\n      revert\n        /* \"#utility.yul\":3436:3499   */\n    tag_194:\n        /* \"#utility.yul\":3383:3505   */\n      pop\n      jump\t// out\n        /* \"#utility.yul\":3511:3650   */\n    tag_113:\n        /* \"#utility.yul\":3557:3562   */\n      0x00\n        /* \"#utility.yul\":3595:3601   */\n      dup2\n        /* \"#utility.yul\":3582:3602   */\n      calldataload\n        /* \"#utility.yul\":3573:3602   */\n      swap1\n      pop\n        /* \"#utility.yul\":3611:3644   */\n      tag_196\n        /* \"#utility.yul\":3638:3643   */\n      dup2\n        /* \"#utility.yul\":3611:3644   */\n      tag_112\n      jump\t// in\n    tag_196:\n        /* \"#utility.yul\":3511:3650   */\n      swap3\n      swap2\n      pop\n      pop\n      jump\t// out\n        /* \"#utility.yul\":3656:4130   */\n    tag_27:\n        /* \"#utility.yul\":3724:3730   */\n      0x00\n        /* \"#utility.yul\":3732:3738   */\n      0x00\n        /* \"#utility.yul\":3781:3783   */\n      0x40\n        /* \"#utility.yul\":3769:3778   */\n      dup4\n        /* \"#utility.yul\":3760:3767   */\n      dup6\n        /* \"#utility.yul\":3756:3779   */\n      sub\n        /* \"#utility.yul\":3752:3784   */\n      slt\n        /* \"#utility.yul\":3749:3868   */\n      iszero\n      tag_198\n      jumpi\n        /* \"#utility.yul\":3787:3866   */\n      tag_199\n      tag_96\n      jump\t// in\n    tag_199:\n        /* \"#utility.yul\":3749:3868   */\n    tag_198:\n        /* \"#utility.yul\":3907:3908   */\n      0x00\n        /* \"#utility.yul\":3932:3985   */\n      tag_200\n        /* \"#utility.yul\":3977:3984   */\n      dup6\n        /* \"#utility.yul\":3968:3974   */\n      dup3\n        /* \"#utility.yul\":3957:3966   */\n      dup7\n        /* \"#utility.yul\":3953:3975   */\n      add\n        /* \"#utility.yul\":3932:3985   */\n      tag_113\n      jump\t// in\n    tag_200:\n        /* \"#utility.yul\":3922:3985   */\n      swap3\n      pop\n        /* \"#utility.yul\":3878:3995   */\n      pop\n        /* \"#utility.yul\":4034:4036   */\n      0x20\n        /* \"#utility.yul\":4060:4113   */\n      tag_201\n        /* \"#utility.yul\":4105:4112   */\n      dup6\n        /* \"#utility.yul\":4096:4102   */\n      dup3\n        /* \"#utility.yul\":4085:4094   */\n      dup7\n        /* \"#utility.yul\":4081:4103   */\n      add\n        /* \"#utility.yul\":4060:4113   */\n      tag_100\n      jump\t// in\n    tag_201:\n        /* \"#utility.yul\":4050:4113   */\n      swap2\n      pop\n        /* \"#utility.yul\":4005:4123   */\n      pop\n        /* \"#utility.yul\":3656:4130   */\n      swap3\n      pop\n      swap3\n      swap1\n      pop\n      jump\t// out\n        /* \"#utility.yul\":4136:4346   */\n    tag_30:\n        /* \"#utility.yul\":4223:4227   */\n      0x00\n        /* \"#utility.yul\":4261:4263   */\n      0x20\n        /* \"#utility.yul\":4250:4259   */\n      dup3\n        /* \"#utility.yul\":4246:4264   */\n      add\n        /* \"#utility.yul\":4238:4264   */\n      swap1\n      pop\n        /* \"#utility.yul\":4274:4339   */\n      tag_203\n        /* \"#utility.yul\":4336:4337   */\n      0x00\n        /* \"#utility.yul\":4325:4334   */\n      dup4\n        /* \"#utility.yul\":4321:4338   */\n      add\n        /* \"#utility.yul\":4312:4318   */\n      dup5\n        /* \"#utility.yul\":4274:4339   */\n      tag_108\n      jump\t// in\n    tag_203:\n        /* \"#utility.yul\":4136:4346   */\n      swap3\n      swap2\n      pop\n      pop\n      jump\t// out\n        /* \"#utility.yul\":4352:4574   */\n    tag_36:\n        /* \"#utility.yul\":4445:4449   */\n      0x00\n        /* \"#utility.yul\":4483:4485   */\n      0x20\n        /* \"#utility.yul\":4472:4481   */\n      dup3\n        /* \"#utility.yul\":4468:4486   */\n      add\n        /* \"#utility.yul\":4460:4486   */\n      swap1\n      pop\n        /* \"#utility.yul\":4496:4567   */\n      tag_205\n        /* \"#utility.yul\":4564:4565   */\n      0x00\n        /* \"#utility.yul\":4553:4562   */\n      dup4\n        /* \"#utility.yul\":4549:4566   */\n      add\n        /* \"#utility.yul\":4540:4546   */\n      dup5\n        /* \"#utility.yul\":4496:4567   */\n      tag_101\n      jump\t// in\n    tag_205:\n        /* \"#utility.yul\":4352:4574   */\n      swap3\n      swap2\n      pop\n      pop\n      jump\t// out\n        /* \"#utility.yul\":4580:5101   */\n    tag_42:\n        /* \"#utility.yul\":4743:4747   */\n      0x00\n        /* \"#utility.yul\":4781:4783   */\n      0x60\n        /* \"#utility.yul\":4770:4779   */\n      dup3\n        /* \"#utility.yul\":4766:4784   */\n      add\n        /* \"#utility.yul\":4758:4784   */\n      swap1\n      pop\n        /* \"#utility.yul\":4830:4839   */\n      dup2\n        /* \"#utility.yul\":4824:4828   */\n      dup2\n        /* \"#utility.yul\":4820:4840   */\n      sub\n        /* \"#utility.yul\":4816:4817   */\n      0x00\n        /* \"#utility.yul\":4805:4814   */\n      dup4\n        /* \"#utility.yul\":4801:4818   */\n      add\n        /* \"#utility.yul\":4794:4841   */\n      mstore\n        /* \"#utility.yul\":4858:4936   */\n      tag_207\n        /* \"#utility.yul\":4931:4935   */\n      dup2\n        /* \"#utility.yul\":4922:4928   */\n      dup7\n        /* \"#utility.yul\":4858:4936   */\n      tag_106\n      jump\t// in\n    tag_207:\n        /* \"#utility.yul\":4850:4936   */\n      swap1\n      pop\n        /* \"#utility.yul\":4946:5018   */\n      tag_208\n        /* \"#utility.yul\":5014:5016   */\n      0x20\n        /* \"#utility.yul\":5003:5012   */\n      dup4\n        /* \"#utility.yul\":4999:5017   */\n      add\n        /* \"#utility.yul\":4990:4996   */\n      dup6\n        /* \"#utility.yul\":4946:5018   */\n      tag_101\n      jump\t// in\n    tag_208:\n        /* \"#utility.yul\":5028:5094   */\n      tag_209\n        /* \"#utility.yul\":5090:5092   */\n      0x40\n        /* \"#utility.yul\":5079:5088   */\n      dup4\n        /* \"#utility.yul\":5075:5093   */\n      add\n        /* \"#utility.yul\":5066:5072   */\n      dup5\n        /* \"#utility.yul\":5028:5094   */\n      tag_108\n      jump\t// in\n    tag_209:\n        /* \"#utility.yul\":4580:5101   */\n      swap5\n      swap4\n      pop\n      pop\n      pop\n      pop\n      jump\t// out\n        /* \"#utility.yul\":5107:5224   */\n    tag_114:\n        /* \"#utility.yul\":5216:5217   */\n      0x00\n        /* \"#utility.yul\":5213:5214   */\n      0x00\n        /* \"#utility.yul\":5206:5218   */\n      revert\n        /* \"#utility.yul\":5230:5347   */\n    tag_115:\n        /* \"#utility.yul\":5339:5340   */\n      0x00\n        /* \"#utility.yul\":5336:5337   */\n      0x00\n        /* \"#utility.yul\":5329:5341   */\n      revert\n        /* \"#utility.yul\":5353:5533   */\n    tag_116:\n        /* \"#utility.yul\":5401:5478   */\n      0x4e487b7100000000000000000000000000000000000000000000000000000000\n        /* \"#utility.yul\":5398:5399   */\n      0x00\n        /* \"#utility.yul\":5391:5479   */\n      mstore\n        /* \"#utility.yul\":5498:5502   */\n      0x41\n        /* \"#utility.yul\":5495:5496   */\n      0x04\n        /* \"#utility.yul\":5488:5503   */\n      mstore\n        /* \"#utility.yul\":5522:5526   */\n      0x24\n        /* \"#utility.yul\":5519:5520   */\n      0x00\n        /* \"#utility.yul\":5512:5527   */\n      revert\n        /* \"#utility.yul\":5539:5820   */\n    tag_117:\n        /* \"#utility.yul\":5622:5649   */\n      tag_214\n        /* \"#utility.yul\":5644:5648   */\n      dup3\n        /* \"#utility.yul\":5622:5649   */\n      tag_105\n      jump\t// in\n    tag_214:\n        /* \"#utility.yul\":5614:5620   */\n      dup2\n        /* \"#utility.yul\":5610:5650   */\n      add\n        /* \"#utility.yul\":5752:5758   */\n      dup2\n        /* \"#utility.yul\":5740:5750   */\n      dup2\n        /* \"#utility.yul\":5737:5759   */\n      lt\n        /* \"#utility.yul\":5716:5734   */\n      0xffffffffffffffff\n        /* \"#utility.yul\":5704:5714   */\n      dup3\n        /* \"#utility.yul\":5701:5735   */\n      gt\n        /* \"#utility.yul\":5698:5760   */\n      or\n        /* \"#utility.yul\":5695:5783   */\n      iszero\n      tag_215\n      jumpi\n        /* \"#utility.yul\":5763:5781   */\n      tag_216\n      tag_116\n      jump\t// in\n    tag_216:\n        /* \"#utility.yul\":5695:5783   */\n    tag_215:\n        /* \"#utility.yul\":5803:5813   */\n      dup1\n        /* \"#utility.yul\":5799:5801   */\n      0x40\n        /* \"#utility.yul\":5792:5814   */\n      mstore\n        /* \"#utility.yul\":5582:5820   */\n      pop\n        /* \"#utility.yul\":5539:5820   */\n      pop\n      pop\n      jump\t// out\n        /* \"#utility.yul\":5826:5955   */\n    tag_118:\n        /* \"#utility.yul\":5860:5866   */\n      0x00\n        /* \"#utility.yul\":5887:5907   */\n      tag_218\n      tag_95\n      jump\t// in\n    tag_218:\n        /* \"#utility.yul\":5877:5907   */\n      swap1\n      pop\n        /* \"#utility.yul\":5916:5949   */\n      tag_219\n        /* \"#utility.yul\":5944:5948   */\n      dup3\n        /* \"#utility.yul\":5936:5942   */\n      dup3\n        /* \"#utility.yul\":5916:5949   */\n      tag_117\n      jump\t// in\n    tag_219:\n        /* \"#utility.yul\":5826:5955   */\n      swap2\n      swap1\n      pop\n      jump\t// out\n        /* \"#utility.yul\":5961:6269   */\n    tag_119:\n        /* \"#utility.yul\":6023:6027   */\n      0x00\n        /* \"#utility.yul\":6113:6131   */\n      0xffffffffffffffff\n        /* \"#utility.yul\":6105:6111   */\n      dup3\n        /* \"#utility.yul\":6102:6132   */\n      gt\n        /* \"#utility.yul\":6099:6155   */\n      iszero\n      tag_221\n      jumpi\n        /* \"#utility.yul\":6135:6153   */\n      tag_222\n      tag_116\n      jump\t// in\n    tag_222:\n        /* \"#utility.yul\":6099:6155   */\n    tag_221:\n        /* \"#utility.yul\":6173:6202   */\n      tag_223\n        /* \"#utility.yul\":6195:6201   */\n      dup3\n        /* \"#utility.yul\":6173:6202   */\n      tag_105\n      jump\t// in\n    tag_223:\n        /* \"#utility.yul\":6165:6202   */\n      swap1\n      pop\n        /* \"#utility.yul\":6257:6261   */\n      0x20\n        /* \"#utility.yul\":6251:6255   */\n      dup2\n        /* \"#utility.yul\":6247:6262   */\n      add\n        /* \"#utility.yul\":6239:6262   */\n      swap1\n      pop\n        /* \"#utility.yul\":5961:6269   */\n      swap2\n      swap1\n      pop\n      jump\t// out\n        /* \"#utility.yul\":6275:6423   */\n    tag_120:\n        /* \"#utility.yul\":6373:6379   */\n      dup3\n        /* \"#utility.yul\":6368:6371   */\n      dup2\n        /* \"#utility.yul\":6363:6366   */\n      dup4\n        /* \"#utility.yul\":6350:6380   */\n      calldatacopy\n        /* \"#utility.yul\":6414:6415   */\n      0x00\n        /* \"#utility.yul\":6405:6411   */\n      dup4\n        /* \"#utility.yul\":6400:6403   */\n      dup4\n        /* \"#utility.yul\":6396:6412   */\n      add\n        /* \"#utility.yul\":6389:6416   */\n      mstore\n        /* \"#utility.yul\":6275:6423   */\n      pop\n      pop\n      pop\n      jump\t// out\n        /* \"#utility.yul\":6429:6854   */\n    tag_121:\n        /* \"#utility.yul\":6507:6512   */\n      0x00\n        /* \"#utility.yul\":6532:6598   */\n      tag_226\n        /* \"#utility.yul\":6548:6597   */\n      tag_227\n        /* \"#utility.yul\":6590:6596   */\n      dup5\n        /* \"#utility.yul\":6548:6597   */\n      tag_119\n      jump\t// in\n    tag_227:\n        /* \"#utility.yul\":6532:6598   */\n      tag_118\n      jump\t// in\n    tag_226:\n        /* \"#utility.yul\":6523:6598   */\n      swap1\n      pop\n        /* \"#utility.yul\":6621:6627   */\n      dup3\n        /* \"#utility.yul\":6614:6619   */\n      dup2\n        /* \"#utility.yul\":6607:6628   */\n      mstore\n        /* \"#utility.yul\":6659:6663   */\n      0x20\n        /* \"#utility.yul\":6652:6657   */\n      dup2\n        /* \"#utility.yul\":6648:6664   */\n      add\n        /* \"#utility.yul\":6697:6700   */\n      dup5\n        /* \"#utility.yul\":6688:6694   */\n      dup5\n        /* \"#utility.yul\":6683:6686   */\n      dup5\n        /* \"#utility.yul\":6679:6695   */\n      add\n        /* \"#utility.yul\":6676:6701   */\n      gt\n        /* \"#utility.yul\":6673:6785   */\n      iszero\n      tag_228\n      jumpi\n        /* \"#utility.yul\":6704:6783   */\n      tag_229\n      tag_115\n      jump\t// in\n    tag_229:\n        /* \"#utility.yul\":6673:6785   */\n    tag_228:\n        /* \"#utility.yul\":6794:6848   */\n      tag_230\n        /* \"#utility.yul\":6841:6847   */\n      dup5\n        /* \"#utility.yul\":6836:6839   */\n      dup3\n        /* \"#utility.yul\":6831:6834   */\n      dup6\n        /* \"#utility.yul\":6794:6848   */\n      tag_120\n      jump\t// in\n    tag_230:\n        /* \"#utility.yul\":6513:6854   */\n      pop\n        /* \"#utility.yul\":6429:6854   */\n      swap4\n      swap3\n      pop\n      pop\n      pop\n      jump\t// out\n        /* \"#utility.yul\":6874:7214   */\n    tag_122:\n        /* \"#utility.yul\":6930:6935   */\n      0x00\n        /* \"#utility.yul\":6979:6982   */\n      dup3\n        /* \"#utility.yul\":6972:6976   */\n      0x1f\n        /* \"#utility.yul\":6964:6970   */\n      dup4\n        /* \"#utility.yul\":6960:6977   */\n      add\n        /* \"#utility.yul\":6956:6983   */\n      slt\n        /* \"#utility.yul\":6946:7068   */\n      tag_232\n      jumpi\n        /* \"#utility.yul\":6987:7066   */\n      tag_233\n      tag_114\n      jump\t// in\n    tag_233:\n        /* \"#utility.yul\":6946:7068   */\n    tag_232:\n        /* \"#utility.yul\":7104:7110   */\n      dup2\n        /* \"#utility.yul\":7091:7111   */\n      calldataload\n        /* \"#utility.yul\":7129:7208   */\n      tag_234\n        /* \"#utility.yul\":7204:7207   */\n      dup5\n        /* \"#utility.yul\":7196:7202   */\n      dup3\n        /* \"#utility.yul\":7189:7193   */\n      0x20\n        /* \"#utility.yul\":7181:7187   */\n      dup7\n        /* \"#utility.yul\":7177:7194   */\n      add\n        /* \"#utility.yul\":7129:7208   */\n      tag_121\n      jump\t// in\n    tag_234:\n        /* \"#utility.yul\":7120:7208   */\n      swap2\n      pop\n        /* \"#utility.yul\":6936:7214   */\n      pop\n        /* \"#utility.yul\":6874:7214   */\n      swap3\n      swap2\n      pop\n      pop\n      jump\t// out\n        /* \"#utility.yul\":7220:8019   */\n    tag_46:\n        /* \"#utility.yul\":7307:7313   */\n      0x00\n        /* \"#utility.yul\":7315:7321   */\n      0x00\n        /* \"#utility.yul\":7323:7329   */\n      0x00\n        /* \"#utility.yul\":7372:7374   */\n      0x60\n        /* \"#utility.yul\":7360:7369   */\n      dup5\n        /* \"#utility.yul\":7351:7358   */\n      dup7\n        /* \"#utility.yul\":7347:7370   */\n      sub\n        /* \"#utility.yul\":7343:7375   */\n      slt\n        /* \"#utility.yul\":7340:7459   */\n      iszero\n      tag_236\n      jumpi\n        /* \"#utility.yul\":7378:7457   */\n      tag_237\n      tag_96\n      jump\t// in\n    tag_237:\n        /* \"#utility.yul\":7340:7459   */\n    tag_236:\n        /* \"#utility.yul\":7498:7499   */\n      0x00\n        /* \"#utility.yul\":7523:7576   */\n      tag_238\n        /* \"#utility.yul\":7568:7575   */\n      dup7\n        /* \"#utility.yul\":7559:7565   */\n      dup3\n        /* \"#utility.yul\":7548:7557   */\n      dup8\n        /* \"#utility.yul\":7544:7566   */\n      add\n        /* \"#utility.yul\":7523:7576   */\n      tag_100\n      jump\t// in\n    tag_238:\n        /* \"#utility.yul\":7513:7576   */\n      swap4\n      pop\n        /* \"#utility.yul\":7469:7586   */\n      pop\n        /* \"#utility.yul\":7653:7655   */\n      0x20\n        /* \"#utility.yul\":7642:7651   */\n      dup5\n        /* \"#utility.yul\":7638:7656   */\n      add\n        /* \"#utility.yul\":7625:7657   */\n      calldataload\n        /* \"#utility.yul\":7684:7702   */\n      0xffffffffffffffff\n        /* \"#utility.yul\":7676:7682   */\n      dup2\n        /* \"#utility.yul\":7673:7703   */\n      gt\n        /* \"#utility.yul\":7670:7787   */\n      iszero\n      tag_239\n      jumpi\n        /* \"#utility.yul\":7706:7785   */\n      tag_240\n      tag_97\n      jump\t// in\n    tag_240:\n        /* \"#utility.yul\":7670:7787   */\n    tag_239:\n        /* \"#utility.yul\":7811:7874   */\n      tag_241\n        /* \"#utility.yul\":7866:7873   */\n      dup7\n        /* \"#utility.yul\":7857:7863   */\n      dup3\n        /* \"#utility.yul\":7846:7855   */\n      dup8\n        /* \"#utility.yul\":7842:7864   */\n      add\n        /* \"#utility.yul\":7811:7874   */\n      tag_122\n      jump\t// in\n    tag_241:\n        /* \"#utility.yul\":7801:7874   */\n      swap3\n      pop\n        /* \"#utility.yul\":7596:7884   */\n      pop\n        /* \"#utility.yul\":7923:7925   */\n      0x40\n        /* \"#utility.yul\":7949:8002   */\n      tag_242\n        /* \"#utility.yul\":7994:8001   */\n      dup7\n        /* \"#utility.yul\":7985:7991   */\n      dup3\n        /* \"#utility.yul\":7974:7983   */\n      dup8\n        /* \"#utility.yul\":7970:7992   */\n      add\n        /* \"#utility.yul\":7949:8002   */\n      tag_100\n      jump\t// in\n    tag_242:\n        /* \"#utility.yul\":7939:8002   */\n      swap2\n      pop\n        /* \"#utility.yul\":7894:8012   */\n      pop\n        /* \"#utility.yul\":7220:8019   */\n      swap3\n      pop\n      swap3\n      pop\n      swap3\n      jump\t// out\n        /* \"#utility.yul\":8025:8205   */\n    tag_123:\n        /* \"#utility.yul\":8073:8150   */\n      0x4e487b7100000000000000000000000000000000000000000000000000000000\n        /* \"#utility.yul\":8070:8071   */\n      0x00\n        /* \"#utility.yul\":8063:8151   */\n      mstore\n        /* \"#utility.yul\":8170:8174   */\n      0x22\n        /* \"#utility.yul\":8167:8168   */\n      0x04\n        /* \"#utility.yul\":8160:8175   */\n      mstore\n        /* \"#utility.yul\":8194:8198   */\n      0x24\n        /* \"#utility.yul\":8191:8192   */\n      0x00\n        /* \"#utility.yul\":8184:8199   */\n      revert\n        /* \"#utility.yul\":8211:8531   */\n    tag_49:\n        /* \"#utility.yul\":8255:8261   */\n      0x00\n        /* \"#utility.yul\":8292:8293   */\n      0x02\n        /* \"#utility.yul\":8286:8290   */\n      dup3\n        /* \"#utility.yul\":8282:8294   */\n      div\n        /* \"#utility.yul\":8272:8294   */\n      swap1\n      pop\n        /* \"#utility.yul\":8339:8340   */\n      0x01\n        /* \"#utility.yul\":8333:8337   */\n      dup3\n        /* \"#utility.yul\":8329:8341   */\n      and\n        /* \"#utility.yul\":8360:8378   */\n      dup1\n        /* \"#utility.yul\":8350:8431   */\n      tag_245\n      jumpi\n        /* \"#utility.yul\":8416:8420   */\n      0x7f\n        /* \"#utility.yul\":8408:8414   */\n      dup3\n        /* \"#utility.yul\":8404:8421   */\n      and\n        /* \"#utility.yul\":8394:8421   */\n      swap2\n      pop\n        /* \"#utility.yul\":8350:8431   */\n    tag_245:\n        /* \"#utility.yul\":8478:8480   */\n      0x20\n        /* \"#utility.yul\":8470:8476   */\n      dup3\n        /* \"#utility.yul\":8467:8481   */\n      lt\n        /* \"#utility.yul\":8447:8465   */\n      dup2\n        /* \"#utility.yul\":8444:8482   */\n      sub\n        /* \"#utility.yul\":8441:8525   */\n      tag_246\n      jumpi\n        /* \"#utility.yul\":8497:8515   */\n      tag_247\n      tag_123\n      jump\t// in\n    tag_247:\n        /* \"#utility.yul\":8441:8525   */\n    tag_246:\n        /* \"#utility.yul\":8262:8531   */\n      pop\n        /* \"#utility.yul\":8211:8531   */\n      swap2\n      swap1\n      pop\n      jump\t// out\n        /* \"#utility.yul\":8537:8712   */\n    tag_124:\n        /* \"#utility.yul\":8677:8704   */\n      0x4f6e6c79206f776e65722063616e206465616374697661746500000000000000\n        /* \"#utility.yul\":8673:8674   */\n      0x00\n        /* \"#utility.yul\":8665:8671   */\n      dup3\n        /* \"#utility.yul\":8661:8675   */\n      add\n        /* \"#utility.yul\":8654:8705   */\n      mstore\n        /* \"#utility.yul\":8537:8712   */\n      pop\n      jump\t// out\n        /* \"#utility.yul\":8718:9084   */\n    tag_125:\n        /* \"#utility.yul\":8860:8863   */\n      0x00\n        /* \"#utility.yul\":8881:8948   */\n      tag_250\n        /* \"#utility.yul\":8945:8947   */\n      0x19\n        /* \"#utility.yul\":8940:8943   */\n      dup4\n        /* \"#utility.yul\":8881:8948   */\n      tag_103\n      jump\t// in\n    tag_250:\n        /* \"#utility.yul\":8874:8948   */\n      swap2\n      pop\n        /* \"#utility.yul\":8957:9050   */\n      tag_251\n        /* \"#utility.yul\":9046:9049   */\n      dup3\n        /* \"#utility.yul\":8957:9050   */\n      tag_124\n      jump\t// in\n    tag_251:\n        /* \"#utility.yul\":9075:9077   */\n      0x20\n        /* \"#utility.yul\":9070:9073   */\n      dup3\n        /* \"#utility.yul\":9066:9078   */\n      add\n        /* \"#utility.yul\":9059:9078   */\n      swap1\n      pop\n        /* \"#utility.yul\":8718:9084   */\n      swap2\n      swap1\n      pop\n      jump\t// out\n        /* \"#utility.yul\":9090:9509   */\n    tag_57:\n        /* \"#utility.yul\":9256:9260   */\n      0x00\n        /* \"#utility.yul\":9294:9296   */\n      0x20\n        /* \"#utility.yul\":9283:9292   */\n      dup3\n        /* \"#utility.yul\":9279:9297   */\n      add\n        /* \"#utility.yul\":9271:9297   */\n      swap1\n      pop\n        /* \"#utility.yul\":9343:9352   */\n      dup2\n        /* \"#utility.yul\":9337:9341   */\n      dup2\n        /* \"#utility.yul\":9333:9353   */\n      sub\n        /* \"#utility.yul\":9329:9330   */\n      0x00\n        /* \"#utility.yul\":9318:9327   */\n      dup4\n        /* \"#utility.yul\":9314:9331   */\n      add\n        /* \"#utility.yul\":9307:9354   */\n      mstore\n        /* \"#utility.yul\":9371:9502   */\n      tag_253\n        /* \"#utility.yul\":9497:9501   */\n      dup2\n        /* \"#utility.yul\":9371:9502   */\n      tag_125\n      jump\t// in\n    tag_253:\n        /* \"#utility.yul\":9363:9502   */\n      swap1\n      pop\n        /* \"#utility.yul\":9090:9509   */\n      swap2\n      swap1\n      pop\n      jump\t// out\n        /* \"#utility.yul\":9515:9682   */\n    tag_126:\n        /* \"#utility.yul\":9655:9674   */\n      0x446576696365206e6f7420616374697665000000000000000000000000000000\n        /* \"#utility.yul\":9651:9652   */\n      0x00\n        /* \"#utility.yul\":9643:9649   */\n      dup3\n        /* \"#utility.yul\":9639:9653   */\n      add\n        /* \"#utility.yul\":9632:9675   */\n      mstore\n        /* \"#utility.yul\":9515:9682   */\n      pop\n      jump\t// out\n        /* \"#utility.yul\":9688:10054   */\n    tag_127:\n        /* \"#utility.yul\":9830:9833   */\n      0x00\n        /* \"#utility.yul\":9851:9918   */\n      tag_256\n        /* \"#utility.yul\":9915:9917   */\n      0x11\n        /* \"#utility.yul\":9910:9913   */\n      dup4\n        /* \"#utility.yul\":9851:9918   */\n      tag_103\n      jump\t// in\n    tag_256:\n        /* \"#utility.yul\":9844:9918   */\n      swap2\n      pop\n        /* \"#utility.yul\":9927:10020   */\n      tag_257\n        /* \"#utility.yul\":10016:10019   */\n      dup3\n        /* \"#utility.yul\":9927:10020   */\n      tag_126\n      jump\t// in\n    tag_257:\n        /* \"#utility.yul\":10045:10047   */\n      0x20\n        /* \"#utility.yul\":10040:10043   */\n      dup3\n        /* \"#utility.yul\":10036:10048   */\n      add\n        /* \"#utility.yul\":10029:10048   */\n      swap1\n      pop\n        /* \"#utility.yul\":9688:10054   */\n      swap2\n      swap1\n      pop\n      jump\t// out\n        /* \"#utility.yul\":10060:10479   */\n    tag_61:\n        /* \"#utility.yul\":10226:10230   */\n      0x00\n        /* \"#utility.yul\":10264:10266   */\n      0x20\n        /* \"#utility.yul\":10253:10262   */\n      dup3\n        /* \"#utility.yul\":10249:10267   */\n      add\n        /* \"#utility.yul\":10241:10267   */\n      swap1\n      pop\n        /* \"#utility.yul\":10313:10322   */\n      dup2\n        /* \"#utility.yul\":10307:10311   */\n      dup2\n        /* \"#utility.yul\":10303:10323   */\n      sub\n        /* \"#utility.yul\":10299:10300   */\n      0x00\n        /* \"#utility.yul\":10288:10297   */\n      dup4\n        /* \"#utility.yul\":10284:10301   */\n      add\n        /* \"#utility.yul\":10277:10324   */\n      mstore\n        /* \"#utility.yul\":10341:10472   */\n      tag_259\n        /* \"#utility.yul\":10467:10471   */\n      dup2\n        /* \"#utility.yul\":10341:10472   */\n      tag_127\n      jump\t// in\n    tag_259:\n        /* \"#utility.yul\":10333:10472   */\n      swap1\n      pop\n        /* \"#utility.yul\":10060:10479   */\n      swap2\n      swap1\n      pop\n      jump\t// out\n        /* \"#utility.yul\":10485:10653   */\n    tag_128:\n        /* \"#utility.yul\":10625:10645   */\n      0x496e73756666696369656e742066756e64730000000000000000000000000000\n        /* \"#utility.yul\":10621:10622   */\n      0x00\n        /* \"#utility.yul\":10613:10619   */\n      dup3\n        /* \"#utility.yul\":10609:10623   */\n      add\n        /* \"#utility.yul\":10602:10646   */\n      mstore\n        /* \"#utility.yul\":10485:10653   */\n      pop\n      jump\t// out\n        /* \"#utility.yul\":10659:11025   */\n    tag_129:\n        /* \"#utility.yul\":10801:10804   */\n      0x00\n        /* \"#utility.yul\":10822:10889   */\n      tag_262\n        /* \"#utility.yul\":10886:10888   */\n      0x12\n        /* \"#utility.yul\":10881:10884   */\n      dup4\n        /* \"#utility.yul\":10822:10889   */\n      tag_103\n      jump\t// in\n    tag_262:\n        /* \"#utility.yul\":10815:10889   */\n      swap2\n      pop\n        /* \"#utility.yul\":10898:10991   */\n      tag_263\n        /* \"#utility.yul\":10987:10990   */\n      dup3\n        /* \"#utility.yul\":10898:10991   */\n      tag_128\n      jump\t// in\n    tag_263:\n        /* \"#utility.yul\":11016:11018   */\n      0x20\n        /* \"#utility.yul\":11011:11014   */\n      dup3\n        /* \"#utility.yul\":11007:11019   */\n      add\n        /* \"#utility.yul\":11000:11019   */\n      swap1\n      pop\n        /* \"#utility.yul\":10659:11025   */\n      swap2\n      swap1\n      pop\n      jump\t// out\n        /* \"#utility.yul\":11031:11450   */\n    tag_64:\n        /* \"#utility.yul\":11197:11201   */\n      0x00\n        /* \"#utility.yul\":11235:11237   */\n      0x20\n        /* \"#utility.yul\":11224:11233   */\n      dup3\n        /* \"#utility.yul\":11220:11238   */\n      add\n        /* \"#utility.yul\":11212:11238   */\n      swap1\n      pop\n        /* \"#utility.yul\":11284:11293   */\n      dup2\n        /* \"#utility.yul\":11278:11282   */\n      dup2\n        /* \"#utility.yul\":11274:11294   */\n      sub\n        /* \"#utility.yul\":11270:11271   */\n      0x00\n        /* \"#utility.yul\":11259:11268   */\n      dup4\n        /* \"#utility.yul\":11255:11272   */\n      add\n        /* \"#utility.yul\":11248:11295   */\n      mstore\n        /* \"#utility.yul\":11312:11443   */\n      tag_265\n        /* \"#utility.yul\":11438:11442   */\n      dup2\n        /* \"#utility.yul\":11312:11443   */\n      tag_129\n      jump\t// in\n    tag_265:\n        /* \"#utility.yul\":11304:11443   */\n      swap1\n      pop\n        /* \"#utility.yul\":11031:11450   */\n      swap2\n      swap1\n      pop\n      jump\t// out\n        /* \"#utility.yul\":11456:11603   */\n    tag_130:\n        /* \"#utility.yul\":11557:11568   */\n      0x00\n        /* \"#utility.yul\":11594:11597   */\n      dup2\n        /* \"#utility.yul\":11579:11597   */\n      swap1\n      pop\n        /* \"#utility.yul\":11456:11603   */\n      swap3\n      swap2\n      pop\n      pop\n      jump\t// out\n        /* \"#utility.yul\":11609:11723   */\n    tag_131:\n      pop\n      jump\t// out\n        /* \"#utility.yul\":11729:12127   */\n    tag_132:\n        /* \"#utility.yul\":11888:11891   */\n      0x00\n        /* \"#utility.yul\":11909:11992   */\n      tag_269\n        /* \"#utility.yul\":11990:11991   */\n      0x00\n        /* \"#utility.yul\":11985:11988   */\n      dup4\n        /* \"#utility.yul\":11909:11992   */\n      tag_130\n      jump\t// in\n    tag_269:\n        /* \"#utility.yul\":11902:11992   */\n      swap2\n      pop\n        /* \"#utility.yul\":12001:12094   */\n      tag_270\n        /* \"#utility.yul\":12090:12093   */\n      dup3\n        /* \"#utility.yul\":12001:12094   */\n      tag_131\n      jump\t// in\n    tag_270:\n        /* \"#utility.yul\":12119:12120   */\n      0x00\n        /* \"#utility.yul\":12114:12117   */\n      dup3\n        /* \"#utility.yul\":12110:12121   */\n      add\n        /* \"#utility.yul\":12103:12121   */\n      swap1\n      pop\n        /* \"#utility.yul\":11729:12127   */\n      swap2\n      swap1\n      pop\n      jump\t// out\n        /* \"#utility.yul\":12133:12512   */\n    tag_66:\n        /* \"#utility.yul\":12317:12320   */\n      0x00\n        /* \"#utility.yul\":12339:12486   */\n      tag_272\n        /* \"#utility.yul\":12482:12485   */\n      dup3\n        /* \"#utility.yul\":12339:12486   */\n      tag_132\n      jump\t// in\n    tag_272:\n        /* \"#utility.yul\":12332:12486   */\n      swap2\n      pop\n        /* \"#utility.yul\":12503:12506   */\n      dup2\n        /* \"#utility.yul\":12496:12506   */\n      swap1\n      pop\n        /* \"#utility.yul\":12133:12512   */\n      swap2\n      swap1\n      pop\n      jump\t// out\n        /* \"#utility.yul\":12518:12692   */\n    tag_133:\n        /* \"#utility.yul\":12658:12684   */\n      0x5472616e7366657220746f206f776e6572206661696c65640000000000000000\n        /* \"#utility.yul\":12654:12655   */\n      0x00\n        /* \"#utility.yul\":12646:12652   */\n      dup3\n        /* \"#utility.yul\":12642:12656   */\n      add\n        /* \"#utility.yul\":12635:12685   */\n      mstore\n        /* \"#utility.yul\":12518:12692   */\n      pop\n      jump\t// out\n        /* \"#utility.yul\":12698:13064   */\n    tag_134:\n        /* \"#utility.yul\":12840:12843   */\n      0x00\n        /* \"#utility.yul\":12861:12928   */\n      tag_275\n        /* \"#utility.yul\":12925:12927   */\n      0x18\n        /* \"#utility.yul\":12920:12923   */\n      dup4\n        /* \"#utility.yul\":12861:12928   */\n      tag_103\n      jump\t// in\n    tag_275:\n        /* \"#utility.yul\":12854:12928   */\n      swap2\n      pop\n        /* \"#utility.yul\":12937:13030   */\n      tag_276\n        /* \"#utility.yul\":13026:13029   */\n      dup3\n        /* \"#utility.yul\":12937:13030   */\n      tag_133\n      jump\t// in\n    tag_276:\n        /* \"#utility.yul\":13055:13057   */\n      0x20\n        /* \"#utility.yul\":13050:13053   */\n      dup3\n        /* \"#utility.yul\":13046:13058   */\n      add\n        /* \"#utility.yul\":13039:13058   */\n      swap1\n      pop\n        /* \"#utility.yul\":12698:13064   */\n      swap2\n      swap1\n      pop\n      jump\t// out\n        /* \"#utility.yul\":13070:13489   */\n    tag_72:\n        /* \"#utility.yul\":13236:13240   */\n      0x00\n        /* \"#utility.yul\":13274:13276   */\n      0x20\n        /* \"#utility.yul\":13263:13272   */\n      dup3\n        /* \"#utility.yul\":13259:13277   */\n      add\n        /* \"#utility.yul\":13251:13277   */\n      swap1\n      pop\n        /* \"#utility.yul\":13323:13332   */\n      dup2\n        /* \"#utility.yul\":13317:13321   */\n      dup2\n        /* \"#utility.yul\":13313:13333   */\n      sub\n        /* \"#utility.yul\":13309:13310   */\n      0x00\n        /* \"#utility.yul\":13298:13307   */\n      dup4\n        /* \"#utility.yul\":13294:13311   */\n      add\n        /* \"#utility.yul\":13287:13334   */\n      mstore\n        /* \"#utility.yul\":13351:13482   */\n      tag_278\n        /* \"#utility.yul\":13477:13481   */\n      dup2\n        /* \"#utility.yul\":13351:13482   */\n      tag_134\n      jump\t// in\n    tag_278:\n        /* \"#utility.yul\":13343:13482   */\n      swap1\n      pop\n        /* \"#utility.yul\":13070:13489   */\n      swap2\n      swap1\n      pop\n      jump\t// out\n        /* \"#utility.yul\":13495:13675   */\n    tag_135:\n        /* \"#utility.yul\":13543:13620   */\n      0x4e487b7100000000000000000000000000000000000000000000000000000000\n        /* \"#utility.yul\":13540:13541   */\n      0x00\n        /* \"#utility.yul\":13533:13621   */\n      mstore\n        /* \"#utility.yul\":13640:13644   */\n      0x11\n        /* \"#utility.yul\":13637:13638   */\n      0x04\n        /* \"#utility.yul\":13630:13645   */\n      mstore\n        /* \"#utility.yul\":13664:13668   */\n      0x24\n        /* \"#utility.yul\":13661:13662   */\n      0x00\n        /* \"#utility.yul\":13654:13669   */\n      revert\n        /* \"#utility.yul\":13681:13875   */\n    tag_75:\n        /* \"#utility.yul\":13721:13725   */\n      0x00\n        /* \"#utility.yul\":13741:13761   */\n      tag_281\n        /* \"#utility.yul\":13759:13760   */\n      dup3\n        /* \"#utility.yul\":13741:13761   */\n      tag_98\n      jump\t// in\n    tag_281:\n        /* \"#utility.yul\":13736:13761   */\n      swap2\n      pop\n        /* \"#utility.yul\":13775:13795   */\n      tag_282\n        /* \"#utility.yul\":13793:13794   */\n      dup4\n        /* \"#utility.yul\":13775:13795   */\n      tag_98\n      jump\t// in\n    tag_282:\n        /* \"#utility.yul\":13770:13795   */\n      swap3\n      pop\n        /* \"#utility.yul\":13819:13820   */\n      dup3\n        /* \"#utility.yul\":13816:13817   */\n      dup3\n        /* \"#utility.yul\":13812:13821   */\n      sub\n        /* \"#utility.yul\":13804:13821   */\n      swap1\n      pop\n        /* \"#utility.yul\":13843:13844   */\n      dup2\n        /* \"#utility.yul\":13837:13841   */\n      dup2\n        /* \"#utility.yul\":13834:13845   */\n      gt\n        /* \"#utility.yul\":13831:13868   */\n      iszero\n      tag_283\n      jumpi\n        /* \"#utility.yul\":13848:13866   */\n      tag_284\n      tag_135\n      jump\t// in\n    tag_284:\n        /* \"#utility.yul\":13831:13868   */\n    tag_283:\n        /* \"#utility.yul\":13681:13875   */\n      swap3\n      swap2\n      pop\n      pop\n      jump\t// out\n        /* \"#utility.yul\":13881:14044   */\n    tag_136:\n        /* \"#utility.yul\":14021:14036   */\n      0x526566756e64206661696c656400000000000000000000000000000000000000\n        /* \"#utility.yul\":14017:14018   */\n      0x00\n        /* \"#utility.yul\":14009:14015   */\n      dup3\n        /* \"#utility.yul\":14005:14019   */\n      add\n        /* \"#utility.yul\":13998:14037   */\n      mstore\n        /* \"#utility.yul\":13881:14044   */\n      pop\n      jump\t// out\n        /* \"#utility.yul\":14050:14416   */\n    tag_137:\n        /* \"#utility.yul\":14192:14195   */\n      0x00\n        /* \"#utility.yul\":14213:14280   */\n      tag_287\n        /* \"#utility.yul\":14277:14279   */\n      0x0d\n        /* \"#utility.yul\":14272:14275   */\n      dup4\n        /* \"#utility.yul\":14213:14280   */\n      tag_103\n      jump\t// in\n    tag_287:\n        /* \"#utility.yul\":14206:14280   */\n      swap2\n      pop\n        /* \"#utility.yul\":14289:14382   */\n      tag_288\n        /* \"#utility.yul\":14378:14381   */\n      dup3\n        /* \"#utility.yul\":14289:14382   */\n      tag_136\n      jump\t// in\n    tag_288:\n        /* \"#utility.yul\":14407:14409   */\n      0x20\n        /* \"#utility.yul\":14402:14405   */\n      dup3\n        /* \"#utility.yul\":14398:14410   */\n      add\n        /* \"#utility.yul\":14391:14410   */\n      swap1\n      pop\n        /* \"#utility.yul\":14050:14416   */\n      swap2\n      swap1\n      pop\n      jump\t// out\n        /* \"#utility.yul\":14422:14841   */\n    tag_82:\n        /* \"#utility.yul\":14588:14592   */\n      0x00\n        /* \"#utility.yul\":14626:14628   */\n      0x20\n        /* \"#utility.yul\":14615:14624   */\n      dup3\n        /* \"#utility.yul\":14611:14629   */\n      add\n        /* \"#utility.yul\":14603:14629   */\n      swap1\n      pop\n        /* \"#utility.yul\":14675:14684   */\n      dup2\n        /* \"#utility.yul\":14669:14673   */\n      dup2\n        /* \"#utility.yul\":14665:14685   */\n      sub\n        /* \"#utility.yul\":14661:14662   */\n      0x00\n        /* \"#utility.yul\":14650:14659   */\n      dup4\n        /* \"#utility.yul\":14646:14663   */\n      add\n        /* \"#utility.yul\":14639:14686   */\n      mstore\n        /* \"#utility.yul\":14703:14834   */\n      tag_290\n        /* \"#utility.yul\":14829:14833   */\n      dup2\n        /* \"#utility.yul\":14703:14834   */\n      tag_137\n      jump\t// in\n    tag_290:\n        /* \"#utility.yul\":14695:14834   */\n      swap1\n      pop\n        /* \"#utility.yul\":14422:14841   */\n      swap2\n      swap1\n      pop\n      jump\t// out\n        /* \"#utility.yul\":14847:14988   */\n    tag_138:\n        /* \"#utility.yul\":14896:14900   */\n      0x00\n        /* \"#utility.yul\":14919:14922   */\n      dup2\n        /* \"#utility.yul\":14911:14922   */\n      swap1\n      pop\n        /* \"#utility.yul\":14942:14945   */\n      dup2\n        /* \"#utility.yul\":14939:14940   */\n      0x00\n        /* \"#utility.yul\":14932:14946   */\n      mstore\n        /* \"#utility.yul\":14976:14980   */\n      0x20\n        /* \"#utility.yul\":14973:14974   */\n      0x00\n        /* \"#utility.yul\":14963:14981   */\n      keccak256\n        /* \"#utility.yul\":14955:14981   */\n      swap1\n      pop\n        /* \"#utility.yul\":14847:14988   */\n      swap2\n      swap1\n      pop\n      jump\t// out\n        /* \"#utility.yul\":14994:15087   */\n    tag_139:\n        /* \"#utility.yul\":15031:15037   */\n      0x00\n        /* \"#utility.yul\":15078:15080   */\n      0x20\n        /* \"#utility.yul\":15073:15075   */\n      0x1f\n        /* \"#utility.yul\":15066:15071   */\n      dup4\n        /* \"#utility.yul\":15062:15076   */\n      add\n        /* \"#utility.yul\":15058:15081   */\n      div\n        /* \"#utility.yul\":15048:15081   */\n      swap1\n      pop\n        /* \"#utility.yul\":14994:15087   */\n      swap2\n      swap1\n      pop\n      jump\t// out\n        /* \"#utility.yul\":15093:15200   */\n    tag_140:\n        /* \"#utility.yul\":15137:15145   */\n      0x00\n        /* \"#utility.yul\":15187:15192   */\n      dup3\n        /* \"#utility.yul\":15181:15185   */\n      dup3\n        /* \"#utility.yul\":15177:15193   */\n      shl\n        /* \"#utility.yul\":15156:15193   */\n      swap1\n      pop\n        /* \"#utility.yul\":15093:15200   */\n      swap3\n      swap2\n      pop\n      pop\n      jump\t// out\n        /* \"#utility.yul\":15206:15599   */\n    tag_141:\n        /* \"#utility.yul\":15275:15281   */\n      0x00\n        /* \"#utility.yul\":15325:15326   */\n      0x08\n        /* \"#utility.yul\":15313:15323   */\n      dup4\n        /* \"#utility.yul\":15309:15327   */\n      mul\n        /* \"#utility.yul\":15348:15445   */\n      tag_295\n        /* \"#utility.yul\":15378:15444   */\n      0xffffffffffffffffffffffffffffffffffffffffffffffffffffffffffffffff\n        /* \"#utility.yul\":15367:15376   */\n      dup3\n        /* \"#utility.yul\":15348:15445   */\n      tag_140\n      jump\t// in\n    tag_295:\n        /* \"#utility.yul\":15466:15505   */\n      tag_296\n        /* \"#utility.yul\":15496:15504   */\n      dup7\n        /* \"#utility.yul\":15485:15494   */\n      dup4\n        /* \"#utility.yul\":15466:15505   */\n      tag_140\n      jump\t// in\n    tag_296:\n        /* \"#utility.yul\":15454:15505   */\n      swap6\n      pop\n        /* \"#utility.yul\":15538:15542   */\n      dup1\n        /* \"#utility.yul\":15534:15543   */\n      not\n        /* \"#utility.yul\":15527:15532   */\n      dup5\n        /* \"#utility.yul\":15523:15544   */\n      and\n        /* \"#utility.yul\":15514:15544   */\n      swap4\n      pop\n        /* \"#utility.yul\":15587:15591   */\n      dup1\n        /* \"#utility.yul\":15577:15585   */\n      dup7\n        /* \"#utility.yul\":15573:15592   */\n      and\n        /* \"#utility.yul\":15566:15571   */\n      dup5\n        /* \"#utility.yul\":15563:15593   */\n      or\n        /* \"#utility.yul\":15553:15593   */\n      swap3\n      pop\n        /* \"#utility.yul\":15282:15599   */\n      pop\n      pop\n        /* \"#utility.yul\":15206:15599   */\n      swap4\n      swap3\n      pop\n      pop\n      pop\n      jump\t// out\n        /* \"#utility.yul\":15605:15665   */\n    tag_142:\n        /* \"#utility.yul\":15633:15636   */\n      0x00\n        /* \"#utility.yul\":15654:15659   */\n      dup2\n        /* \"#utility.yul\":15647:15659   */\n      swap1\n      pop\n        /* \"#utility.yul\":15605:15665   */\n      swap2\n      swap1\n      pop\n      jump\t// out\n        /* \"#utility.yul\":15671:15813   */\n    tag_143:\n        /* \"#utility.yul\":15721:15730   */\n      0x00\n        /* \"#utility.yul\":15754:15807   */\n      tag_299\n        /* \"#utility.yul\":15772:15806   */\n      tag_300\n        /* \"#utility.yul\":15781:15805   */\n      tag_301\n        /* \"#utility.yul\":15799:15804   */\n      dup5\n        /* \"#utility.yul\":15781:15805   */\n      tag_98\n      jump\t// in\n    tag_301:\n        /* \"#utility.yul\":15772:15806   */\n      tag_142\n      jump\t// in\n    tag_300:\n        /* \"#utility.yul\":15754:15807   */\n      tag_98\n      jump\t// in\n    tag_299:\n        /* \"#utility.yul\":15741:15807   */\n      swap1\n      pop\n        /* \"#utility.yul\":15671:15813   */\n      swap2\n      swap1\n      pop\n      jump\t// out\n        /* \"#utility.yul\":15819:15894   */\n    tag_144:\n        /* \"#utility.yul\":15862:15865   */\n      0x00\n        /* \"#utility.yul\":15883:15888   */\n      dup2\n        /* \"#utility.yul\":15876:15888   */\n      swap1\n      pop\n        /* \"#utility.yul\":15819:15894   */\n      swap2\n      swap1\n      pop\n      jump\t// out\n        /* \"#utility.yul\":15900:16169   */\n    tag_145:\n        /* \"#utility.yul\":16010:16049   */\n      tag_304\n        /* \"#utility.yul\":16041:16048   */\n      dup4\n        /* \"#utility.yul\":16010:16049   */\n      tag_143\n      jump\t// in\n    tag_304:\n        /* \"#utility.yul\":16071:16162   */\n      tag_305\n        /* \"#utility.yul\":16120:16161   */\n      tag_306\n        /* \"#utility.yul\":16144:16160   */\n      dup3\n        /* \"#utility.yul\":16120:16161   */\n      tag_144\n      jump\t// in\n    tag_306:\n        /* \"#utility.yul\":16112:16118   */\n      dup5\n        /* \"#utility.yul\":16105:16109   */\n      dup5\n        /* \"#utility.yul\":16099:16110   */\n      sload\n        /* \"#utility.yul\":16071:16162   */\n      tag_141\n      jump\t// in\n    tag_305:\n        /* \"#utility.yul\":16065:16069   */\n      dup3\n        /* \"#utility.yul\":16058:16163   */\n      sstore\n        /* \"#utility.yul\":15976:16169   */\n      pop\n        /* \"#utility.yul\":15900:16169   */\n      pop\n      pop\n      pop\n      jump\t// out\n        /* \"#utility.yul\":16175:16248   */\n    tag_146:\n        /* \"#utility.yul\":16220:16223   */\n      0x00\n        /* \"#utility.yul\":16241:16242   */\n      0x00\n        /* \"#utility.yul\":16234:16242   */\n      swap1\n      pop\n        /* \"#utility.yul\":16175:16248   */\n      swap1\n      jump\t// out\n        /* \"#utility.yul\":16254:16443   */\n    tag_147:\n        /* \"#utility.yul\":16331:16363   */\n      tag_309\n      tag_146\n      jump\t// in\n    tag_309:\n        /* \"#utility.yul\":16372:16437   */\n      tag_310\n        /* \"#utility.yul\":16430:16436   */\n      dup2\n        /* \"#utility.yul\":16422:16428   */\n      dup5\n        /* \"#utility.yul\":16416:16420   */\n      dup5\n        /* \"#utility.yul\":16372:16437   */\n      tag_145\n      jump\t// in\n    tag_310:\n        /* \"#utility.yul\":16307:16443   */\n      pop\n        /* \"#utility.yul\":16254:16443   */\n      pop\n      pop\n      jump\t// out\n        /* \"#utility.yul\":16449:16635   */\n    tag_148:\n        /* \"#utility.yul\":16509:16629   */\n    tag_312:\n        /* \"#utility.yul\":16526:16529   */\n      dup2\n        /* \"#utility.yul\":16519:16524   */\n      dup2\n        /* \"#utility.yul\":16516:16530   */\n      lt\n        /* \"#utility.yul\":16509:16629   */\n      iszero\n      tag_314\n      jumpi\n        /* \"#utility.yul\":16580:16619   */\n      tag_315\n        /* \"#utility.yul\":16617:16618   */\n      0x00\n        /* \"#utility.yul\":16610:16615   */\n      dup3\n        /* \"#utility.yul\":16580:16619   */\n      tag_147\n      jump\t// in\n    tag_315:\n        /* \"#utility.yul\":16553:16554   */\n      0x01\n        /* \"#utility.yul\":16546:16551   */\n      dup2\n        /* \"#utility.yul\":16542:16555   */\n      add\n        /* \"#utility.yul\":16533:16555   */\n      swap1\n      pop\n        /* \"#utility.yul\":16509:16629   */\n      jump(tag_312)\n    tag_314:\n        /* \"#utility.yul\":16449:16635   */\n      pop\n      pop\n      jump\t// out\n        /* \"#utility.yul\":16641:17184   */\n    tag_149:\n        /* \"#utility.yul\":16742:16744   */\n      0x1f\n        /* \"#utility.yul\":16737:16740   */\n      dup3\n        /* \"#utility.yul\":16734:16745   */\n      gt\n        /* \"#utility.yul\":16731:17177   */\n      iszero\n      tag_317\n      jumpi\n        /* \"#utility.yul\":16776:16814   */\n      tag_318\n        /* \"#utility.yul\":16808:16813   */\n      dup2\n        /* \"#utility.yul\":16776:16814   */\n      tag_138\n      jump\t// in\n    tag_318:\n        /* \"#utility.yul\":16860:16889   */\n      tag_319\n        /* \"#utility.yul\":16878:16888   */\n      dup5\n        /* \"#utility.yul\":16860:16889   */\n      tag_139\n      jump\t// in\n    tag_319:\n        /* \"#utility.yul\":16850:16858   */\n      dup2\n        /* \"#utility.yul\":16846:16890   */\n      add\n        /* \"#utility.yul\":17043:17045   */\n      0x20\n        /* \"#utility.yul\":17031:17041   */\n      dup6\n        /* \"#utility.yul\":17028:17046   */\n      lt\n        /* \"#utility.yul\":17025:17074   */\n      iszero\n      tag_320\n      jumpi\n        /* \"#utility.yul\":17064:17072   */\n      dup2\n        /* \"#utility.yul\":17049:17072   */\n      swap1\n      pop\n        /* \"#utility.yul\":17025:17074   */\n    tag_320:\n        /* \"#utility.yul\":17087:17167   */\n      tag_321\n        /* \"#utility.yul\":17143:17165   */\n      tag_322\n        /* \"#utility.yul\":17161:17164   */\n      dup6\n        /* \"#utility.yul\":17143:17165   */\n      tag_139\n      jump\t// in\n    tag_322:\n        /* \"#utility.yul\":17133:17141   */\n      dup4\n        /* \"#utility.yul\":17129:17166   */\n      add\n        /* \"#utility.yul\":17116:17127   */\n      dup3\n        /* \"#utility.yul\":17087:17167   */\n      tag_148\n      jump\t// in\n    tag_321:\n        /* \"#utility.yul\":16746:17177   */\n      pop\n      pop\n        /* \"#utility.yul\":16731:17177   */\n    tag_317:\n        /* \"#utility.yul\":16641:17184   */\n      pop\n      pop\n      pop\n      jump\t// out\n        /* \"#utility.yul\":17190:17307   */\n    tag_150:\n        /* \"#utility.yul\":17244:17252   */\n      0x00\n        /* \"#utility.yul\":17294:17299   */\n      dup3\n        /* \"#utility.yul\":17288:17292   */\n      dup3\n        /* \"#utility.yul\":17284:17300   */\n      shr\n        /* \"#utility.yul\":17263:17300   */\n      swap1\n      pop\n        /* \"#utility.yul\":17190:17307   */\n      swap3\n      swap2\n      pop\n      pop\n      jump\t// out\n        /* \"#utility.yul\":17313:17482   */\n    tag_151:\n        /* \"#utility.yul\":17357:17363   */\n      0x00\n        /* \"#utility.yul\":17390:17441   */\n      tag_325\n        /* \"#utility.yul\":17438:17439   */\n      0x00\n        /* \"#utility.yul\":17434:17440   */\n      not\n        /* \"#utility.yul\":17426:17431   */\n      dup5\n        /* \"#utility.yul\":17423:17424   */\n      0x08\n        /* \"#utility.yul\":17419:17432   */\n      mul\n        /* \"#utility.yul\":17390:17441   */\n      tag_150\n      jump\t// in\n    tag_325:\n        /* \"#utility.yul\":17386:17442   */\n      not\n        /* \"#utility.yul\":17471:17475   */\n      dup1\n        /* \"#utility.yul\":17465:17469   */\n      dup4\n        /* \"#utility.yul\":17461:17476   */\n      and\n        /* \"#utility.yul\":17451:17476   */\n      swap2\n      pop\n        /* \"#utility.yul\":17364:17482   */\n      pop\n        /* \"#utility.yul\":17313:17482   */\n      swap3\n      swap2\n      pop\n      pop\n      jump\t// out\n        /* \"#utility.yul\":17487:17782   */\n    tag_152:\n        /* \"#utility.yul\":17563:17567   */\n      0x00\n        /* \"#utility.yul\":17709:17738   */\n      tag_327\n        /* \"#utility.yul\":17734:17737   */\n      dup4\n        /* \"#utility.yul\":17728:17732   */\n      dup4\n        /* \"#utility.yul\":17709:17738   */\n      tag_151\n      jump\t// in\n    tag_327:\n        /* \"#utility.yul\":17701:17738   */\n      swap2\n      pop\n        /* \"#utility.yul\":17771:17774   */\n      dup3\n        /* \"#utility.yul\":17768:17769   */\n      0x02\n        /* \"#utility.yul\":17764:17775   */\n      mul\n        /* \"#utility.yul\":17758:17762   */\n      dup3\n        /* \"#utility.yul\":17755:17776   */\n      or\n        /* \"#utility.yul\":17747:17776   */\n      swap1\n      pop\n        /* \"#utility.yul\":17487:17782   */\n      swap3\n      swap2\n      pop\n      pop\n      jump\t// out\n        /* \"#utility.yul\":17787:19182   */\n    tag_93:\n        /* \"#utility.yul\":17904:17941   */\n      tag_329\n        /* \"#utility.yul\":17937:17940   */\n      dup3\n        /* \"#utility.yul\":17904:17941   */\n      tag_102\n      jump\t// in\n    tag_329:\n        /* \"#utility.yul\":18006:18024   */\n      0xffffffffffffffff\n        /* \"#utility.yul\":17998:18004   */\n      dup2\n        /* \"#utility.yul\":17995:18025   */\n      gt\n        /* \"#utility.yul\":17992:18048   */\n      iszero\n      tag_330\n      jumpi\n        /* \"#utility.yul\":18028:18046   */\n      tag_331\n      tag_116\n      jump\t// in\n    tag_331:\n        /* \"#utility.yul\":17992:18048   */\n    tag_330:\n        /* \"#utility.yul\":18072:18110   */\n      tag_332\n        /* \"#utility.yul\":18104:18108   */\n      dup3\n        /* \"#utility.yul\":18098:18109   */\n      sload\n        /* \"#utility.yul\":18072:18110   */\n      tag_49\n      jump\t// in\n    tag_332:\n        /* \"#utility.yul\":18157:18224   */\n      tag_333\n        /* \"#utility.yul\":18217:18223   */\n      dup3\n        /* \"#utility.yul\":18209:18215   */\n      dup3\n        /* \"#utility.yul\":18203:18207   */\n      dup6\n        /* \"#utility.yul\":18157:18224   */\n      tag_149\n      jump\t// in\n    tag_333:\n        /* \"#utility.yul\":18251:18252   */\n      0x00\n        /* \"#utility.yul\":18275:18279   */\n      0x20\n        /* \"#utility.yul\":18262:18279   */\n      swap1\n      pop\n        /* \"#utility.yul\":18307:18309   */\n      0x1f\n        /* \"#utility.yul\":18299:18305   */\n      dup4\n        /* \"#utility.yul\":18296:18310   */\n      gt\n        /* \"#utility.yul\":18324:18325   */\n      0x01\n        /* \"#utility.yul\":18319:18937   */\n      dup2\n      eq\n      tag_335\n      jumpi\n        /* \"#utility.yul\":18981:18982   */\n      0x00\n        /* \"#utility.yul\":18998:19004   */\n      dup5\n        /* \"#utility.yul\":18995:19072   */\n      iszero\n      tag_336\n      jumpi\n        /* \"#utility.yul\":19047:19056   */\n      dup3\n        /* \"#utility.yul\":19042:19045   */\n      dup8\n        /* \"#utility.yul\":19038:19057   */\n      add\n        /* \"#utility.yul\":19032:19058   */\n      mload\n        /* \"#utility.yul\":19023:19058   */\n      swap1\n      pop\n        /* \"#utility.yul\":18995:19072   */\n    tag_336:\n        /* \"#utility.yul\":19098:19165   */\n      tag_337\n        /* \"#utility.yul\":19158:19164   */\n      dup6\n        /* \"#utility.yul\":19151:19156   */\n      dup3\n        /* \"#utility.yul\":19098:19165   */\n      tag_152\n      jump\t// in\n    tag_337:\n        /* \"#utility.yul\":19092:19096   */\n      dup7\n        /* \"#utility.yul\":19085:19166   */\n      sstore\n        /* \"#utility.yul\":18954:19176   */\n      pop\n        /* \"#utility.yul\":18289:19176   */\n      jump(tag_334)\n        /* \"#utility.yul\":18319:18937   */\n    tag_335:\n        /* \"#utility.yul\":18371:18375   */\n      0x1f\n        /* \"#utility.yul\":18367:18376   */\n      not\n        /* \"#utility.yul\":18359:18365   */\n      dup5\n        /* \"#utility.yul\":18355:18377   */\n      and\n        /* \"#utility.yul\":18405:18442   */\n      tag_338\n        /* \"#utility.yul\":18437:18441   */\n      dup7\n        /* \"#utility.yul\":18405:18442   */\n      tag_138\n      jump\t// in\n    tag_338:\n        /* \"#utility.yul\":18464:18465   */\n      0x00\n        /* \"#utility.yul\":18478:18686   */\n    tag_339:\n        /* \"#utility.yul\":18492:18499   */\n      dup3\n        /* \"#utility.yul\":18489:18490   */\n      dup2\n        /* \"#utility.yul\":18486:18500   */\n      lt\n        /* \"#utility.yul\":18478:18686   */\n      iszero\n      tag_341\n      jumpi\n        /* \"#utility.yul\":18571:18580   */\n      dup5\n        /* \"#utility.yul\":18566:18569   */\n      dup10\n        /* \"#utility.yul\":18562:18581   */\n      add\n        /* \"#utility.yul\":18556:18582   */\n      mload\n        /* \"#utility.yul\":18548:18554   */\n      dup3\n        /* \"#utility.yul\":18541:18583   */\n      sstore\n        /* \"#utility.yul\":18622:18623   */\n      0x01\n        /* \"#utility.yul\":18614:18620   */\n      dup3\n        /* \"#utility.yul\":18610:18624   */\n      add\n        /* \"#utility.yul\":18600:18624   */\n      swap2\n      pop\n        /* \"#utility.yul\":18669:18671   */\n      0x20\n        /* \"#utility.yul\":18658:18667   */\n      dup6\n        /* \"#utility.yul\":18654:18672   */\n      add\n        /* \"#utility.yul\":18641:18672   */\n      swap5\n      pop\n        /* \"#utility.yul\":18515:18519   */\n      0x20\n        /* \"#utility.yul\":18512:18513   */\n      dup2\n        /* \"#utility.yul\":18508:18520   */\n      add\n        /* \"#utility.yul\":18503:18520   */\n      swap1\n      pop\n        /* \"#utility.yul\":18478:18686   */\n      jump(tag_339)\n    tag_341:\n        /* \"#utility.yul\":18714:18720   */\n      dup7\n        /* \"#utility.yul\":18705:18712   */\n      dup4\n        /* \"#utility.yul\":18702:18721   */\n      lt\n        /* \"#utility.yul\":18699:18878   */\n      iszero\n      tag_342\n      jumpi\n        /* \"#utility.yul\":18772:18781   */\n      dup5\n        /* \"#utility.yul\":18767:18770   */\n      dup10\n        /* \"#utility.yul\":18763:18782   */\n      add\n        /* \"#utility.yul\":18757:18783   */\n      mload\n        /* \"#utility.yul\":18815:18863   */\n      tag_343\n        /* \"#utility.yul\":18857:18861   */\n      0x1f\n        /* \"#utility.yul\":18849:18855   */\n      dup10\n        /* \"#utility.yul\":18845:18862   */\n      and\n        /* \"#utility.yul\":18834:18843   */\n      dup3\n        /* \"#utility.yul\":18815:18863   */\n      tag_151\n      jump\t// in\n    tag_343:\n        /* \"#utility.yul\":18807:18813   */\n      dup4\n        /* \"#utility.yul\":18800:18864   */\n      sstore\n        /* \"#utility.yul\":18722:18878   */\n      pop\n        /* \"#utility.yul\":18699:18878   */\n    tag_342:\n        /* \"#utility.yul\":18924:18925   */\n      0x01\n        /* \"#utility.yul\":18920:18921   */\n      0x02\n        /* \"#utility.yul\":18912:18918   */\n      dup9\n        /* \"#utility.yul\":18908:18922   */\n      mul\n        /* \"#utility.yul\":18904:18926   */\n      add\n        /* \"#utility.yul\":18898:18902   */\n      dup9\n        /* \"#utility.yul\":18891:18927   */\n      sstore\n        /* \"#utility.yul\":18326:18937   */\n      pop\n      pop\n      pop\n        /* \"#utility.yul\":18289:19176   */\n    tag_334:\n      pop\n        /* \"#utility.yul\":17879:19182   */\n      pop\n      pop\n      pop\n        /* \"#utility.yul\":17787:19182   */\n      pop\n      pop\n      jump\t// out\n\n    auxdata: 0xa26469706673582212208aebdb317941021597b6ea5a70475f56096b21e3d71327e6b62083671544a55564736f6c634300081f0033\n}\n",
				"bytecode": {
					"linkReferences": {},
					"object": "6080604052348015600e575f5ffd5b506112508061001c5f395ff3fe60806040526004361061006f575f3560e01c8063c6530e411161004d578063c6530e41146100f7578063d5928be914610133578063d96cabfa1461016f578063f39e65f7146101ad5761006f565b806310ff8e31146100735780632be8df7d146100b35780637c3780a7146100db575b5f5ffd5b34801561007e575f5ffd5b50610099600480360381019061009491906108dc565b6101d5565b6040516100aa9594939291906109df565b60405180910390f35b3480156100be575f5ffd5b506100d960048036038101906100d491906108dc565b6102b8565b005b6100f560048036038101906100f091906108dc565b610386565b005b348015610102575f5ffd5b5061011d60048036038101906101189190610a61565b610633565b60405161012a9190610a9f565b60405180910390f35b34801561013e575f5ffd5b5061015960048036038101906101549190610a61565b61065d565b6040516101669190610ab8565b60405180910390f35b34801561017a575f5ffd5b50610195600480360381019061019091906108dc565b610688565b6040516101a493929190610ad1565b60405180910390f35b3480156101b8575f5ffd5b506101d360048036038101906101ce9190610c39565b610751565b005b5f602052805f5260405f205f91509050805f0154908060010180546101f990610cd2565b80601f016020809104026020016040519081016040528092919081815260200182805461022590610cd2565b80156102705780601f1061024757610100808354040283529160200191610270565b820191905f5260205f20905b81548152906001019060200180831161025357829003601f168201915b505050505090806002015490806003015f9054906101000a900460ff16908060030160019054906101000a900473ffffffffffffffffffffffffffffffffffffffff16905085565b5f5f8281526020019081526020015f2060030160019054906101000a900473ffffffffffffffffffffffffffffffffffffffff1673ffffffffffffffffffffffffffffffffffffffff163373ffffffffffffffffffffffffffffffffffffffff1614610359576040517f08c379a000000000000000000000000000000000000000000000000000000000815260040161035090610d4c565b60405180910390fd5b5f5f5f8381526020019081526020015f206003015f6101000a81548160ff02191690831515021790555050565b5f5f5f8381526020019081526020015f209050806003015f9054906101000a900460ff166103e9576040517f08c379a00000000000000000000000000000000000000000000000000000000081526004016103e090610db4565b60405180910390fd5b8060020154341015610430576040517f08c379a000000000000000000000000000000000000000000000000000000000815260040161042790610e1c565b60405180910390fd5b600160025f3373ffffffffffffffffffffffffffffffffffffffff1673ffffffffffffffffffffffffffffffffffffffff1681526020019081526020015f205f8481526020019081526020015f205f6101000a81548160ff0219169083151502179055505f8160030160019054906101000a900473ffffffffffffffffffffffffffffffffffffffff1673ffffffffffffffffffffffffffffffffffffffff1682600201546040516104e190610e67565b5f6040518083038185875af1925050503d805f811461051b576040519150601f19603f3d011682016040523d82523d5f602084013e610520565b606091505b5050905080610564576040517f08c379a000000000000000000000000000000000000000000000000000000000815260040161055b90610ec5565b60405180910390fd5b816002015434111561062e575f8260020154346105819190610f10565b90505f3373ffffffffffffffffffffffffffffffffffffffff16826040516105a890610e67565b5f6040518083038185875af1925050503d805f81146105e2576040519150601f19603f3d011682016040523d82523d5f602084013e6105e7565b606091505b505090508061062b576040517f08c379a000000000000000000000000000000000000000000000000000000000815260040161062290610f8d565b60405180910390fd5b50505b505050565b6002602052815f5260405f20602052805f5260405f205f915091509054906101000a900460ff1681565b6001602052815f5260405f208181548110610676575f80fd5b905f5260205f20015f91509150505481565b60605f5f5f5f5f8681526020019081526020015f209050806001018160020154826003015f9054906101000a900460ff168280546106c590610cd2565b80601f01602080910402602001604051908101604052809291908181526020018280546106f190610cd2565b801561073c5780601f106107135761010080835404028352916020019161073c565b820191905f5260205f20905b81548152906001019060200180831161071f57829003601f168201915b50505050509250935093509350509193909250565b6040518060a001604052808481526020018381526020018281526020016001151581526020013373ffffffffffffffffffffffffffffffffffffffff168152505f5f8581526020019081526020015f205f820151815f015560208201518160010190816107be919061114b565b50604082015181600201556060820151816003015f6101000a81548160ff02191690831515021790555060808201518160030160016101000a81548173ffffffffffffffffffffffffffffffffffffffff021916908373ffffffffffffffffffffffffffffffffffffffff16021790555090505060015f3373ffffffffffffffffffffffffffffffffffffffff1673ffffffffffffffffffffffffffffffffffffffff1681526020019081526020015f2083908060018154018082558091505060019003905f5260205f20015f9091909190915055505050565b5f604051905090565b5f5ffd5b5f5ffd5b5f819050919050565b6108bb816108a9565b81146108c5575f5ffd5b50565b5f813590506108d6816108b2565b92915050565b5f602082840312156108f1576108f06108a1565b5b5f6108fe848285016108c8565b91505092915050565b610910816108a9565b82525050565b5f81519050919050565b5f82825260208201905092915050565b8281835e5f83830152505050565b5f601f19601f8301169050919050565b5f61095882610916565b6109628185610920565b9350610972818560208601610930565b61097b8161093e565b840191505092915050565b5f8115159050919050565b61099a81610986565b82525050565b5f73ffffffffffffffffffffffffffffffffffffffff82169050919050565b5f6109c9826109a0565b9050919050565b6109d9816109bf565b82525050565b5f60a0820190506109f25f830188610907565b8181036020830152610a04818761094e565b9050610a136040830186610907565b610a206060830185610991565b610a2d60808301846109d0565b9695505050505050565b610a40816109bf565b8114610a4a575f5ffd5b50565b5f81359050610a5b81610a37565b92915050565b5f5f60408385031215610a7757610a766108a1565b5b5f610a8485828601610a4d565b9250506020610a95858286016108c8565b9150509250929050565b5f602082019050610ab25f830184610991565b92915050565b5f602082019050610acb5f830184610907565b92915050565b5f6060820190508181035f830152610ae9818661094e565b9050610af86020830185610907565b610b056040830184610991565b949350505050565b5f5ffd5b5f5ffd5b7f4e487b71000000000000000000000000000000000000000000000000000000005f52604160045260245ffd5b610b4b8261093e565b810181811067ffffffffffffffff82111715610b6a57610b69610b15565b5b80604052505050565b5f610b7c610898565b9050610b888282610b42565b919050565b5f67ffffffffffffffff821115610ba757610ba6610b15565b5b610bb08261093e565b9050602081019050919050565b828183375f83830152505050565b5f610bdd610bd884610b8d565b610b73565b905082815260208101848484011115610bf957610bf8610b11565b5b610c04848285610bbd565b509392505050565b5f82601f830112610c2057610c1f610b0d565b5b8135610c30848260208601610bcb565b91505092915050565b5f5f5f60608486031215610c5057610c4f6108a1565b5b5f610c5d868287016108c8565b935050602084013567ffffffffffffffff811115610c7e57610c7d6108a5565b5b610c8a86828701610c0c565b9250506040610c9b868287016108c8565b9150509250925092565b7f4e487b71000000000000000000000000000000000000000000000000000000005f52602260045260245ffd5b5f6002820490506001821680610ce957607f821691505b602082108103610cfc57610cfb610ca5565b5b50919050565b7f4f6e6c79206f776e65722063616e2064656163746976617465000000000000005f82015250565b5f610d36601983610920565b9150610d4182610d02565b602082019050919050565b5f6020820190508181035f830152610d6381610d2a565b9050919050565b7f446576696365206e6f74206163746976650000000000000000000000000000005f82015250565b5f610d9e601183610920565b9150610da982610d6a565b602082019050919050565b5f6020820190508181035f830152610dcb81610d92565b9050919050565b7f496e73756666696369656e742066756e647300000000000000000000000000005f82015250565b5f610e06601283610920565b9150610e1182610dd2565b602082019050919050565b5f6020820190508181035f830152610e3381610dfa565b9050919050565b5f81905092915050565b50565b5f610e525f83610e3a565b9150610e5d82610e44565b5f82019050919050565b5f610e7182610e47565b9150819050919050565b7f5472616e7366657220746f206f776e6572206661696c656400000000000000005f82015250565b5f610eaf601883610920565b9150610eba82610e7b565b602082019050919050565b5f6020820190508181035f830152610edc81610ea3565b9050919050565b7f4e487b71000000000000000000000000000000000000000000000000000000005f52601160045260245ffd5b5f610f1a826108a9565b9150610f25836108a9565b9250828203905081811115610f3d57610f3c610ee3565b5b92915050565b7f526566756e64206661696c6564000000000000000000000000000000000000005f82015250565b5f610f77600d83610920565b9150610f8282610f43565b602082019050919050565b5f6020820190508181035f830152610fa481610f6b565b9050919050565b5f819050815f5260205f209050919050565b5f6020601f8301049050919050565b5f82821b905092915050565b5f600883026110077fffffffffffffffffffffffffffffffffffffffffffffffffffffffffffffffff82610fcc565b6110118683610fcc565b95508019841693508086168417925050509392505050565b5f819050919050565b5f61104c611047611042846108a9565b611029565b6108a9565b9050919050565b5f819050919050565b61106583611032565b61107961107182611053565b848454610fd8565b825550505050565b5f5f905090565b611090611081565b61109b81848461105c565b505050565b5b818110156110be576110b35f82611088565b6001810190506110a1565b5050565b601f821115611103576110d481610fab565b6110dd84610fbd565b810160208510156110ec578190505b6111006110f885610fbd565b8301826110a0565b50505b505050565b5f82821c905092915050565b5f6111235f1984600802611108565b1980831691505092915050565b5f61113b8383611114565b9150826002028217905092915050565b61115482610916565b67ffffffffffffffff81111561116d5761116c610b15565b5b6111778254610cd2565b6111828282856110c2565b5f60209050601f8311600181146111b3575f84156111a1578287015190505b6111ab8582611130565b865550611212565b601f1984166111c186610fab565b5f5b828110156111e8578489015182556001820191506020850194506020810190506111c3565b868310156112055784890151611201601f891682611114565b8355505b6001600288020188555050505b50505050505056fea26469706673582212208aebdb317941021597b6ea5a70475f56096b21e3d71327e6b62083671544a55564736f6c634300081f0033",
					"opcodes": "PUSH1 0x80 PUSH1 0x40 MSTORE CALLVALUE DUP1 ISZERO PUSH1 0xE JUMPI PUSH0 PUSH0 REVERT JUMPDEST POP PUSH2 0x1250 DUP1 PUSH2 0x1C PUSH0 CODECOPY PUSH0 RETURN INVALID PUSH1 0x80 PUSH1 0x40 MSTORE PUSH1 0x4 CALLDATASIZE LT PUSH2 0x6F JUMPI PUSH0 CALLDATALOAD PUSH1 0xE0 SHR DUP1 PUSH4 0xC6530E41 GT PUSH2 0x4D JUMPI DUP1 PUSH4 0xC6530E41 EQ PUSH2 0xF7 JUMPI DUP1 PUSH4 0xD5928BE9 EQ PUSH2 0x133 JUMPI DUP1 PUSH4 0xD96CABFA EQ PUSH2 0x16F JUMPI DUP1 PUSH4 0xF39E65F7 EQ PUSH2 0x1AD JUMPI PUSH2 0x6F JUMP JUMPDEST DUP1 PUSH4 0x10FF8E31 EQ PUSH2 0x73 JUMPI DUP1 PUSH4 0x2BE8DF7D EQ PUSH2 0xB3 JUMPI DUP1 PUSH4 0x7C3780A7 EQ PUSH2 0xDB JUMPI JUMPDEST PUSH0 PUSH0 REVERT JUMPDEST CALLVALUE DUP1 ISZERO PUSH2 0x7E JUMPI PUSH0 PUSH0 REVERT JUMPDEST POP PUSH2 0x99 PUSH1 0x4 DUP1 CALLDATASIZE SUB DUP2 ADD SWAP1 PUSH2 0x94 SWAP2 SWAP1 PUSH2 0x8DC JUMP JUMPDEST PUSH2 0x1D5 JUMP JUMPDEST PUSH1 0x40 MLOAD PUSH2 0xAA SWAP6 SWAP5 SWAP4 SWAP3 SWAP2 SWAP1 PUSH2 0x9DF JUMP JUMPDEST PUSH1 0x40 MLOAD DUP1 SWAP2 SUB SWAP1 RETURN JUMPDEST CALLVALUE DUP1 ISZERO PUSH2 0xBE JUMPI PUSH0 PUSH0 REVERT JUMPDEST POP PUSH2 0xD9 PUSH1 0x4 DUP1 CALLDATASIZE SUB DUP2 ADD SWAP1 PUSH2 0xD4 SWAP2 SWAP1 PUSH2 0x8DC JUMP JUMPDEST PUSH2 0x2B8 JUMP JUMPDEST STOP JUMPDEST PUSH2 0xF5 PUSH1 0x4 DUP1 CALLDATASIZE SUB DUP2 ADD SWAP1 PUSH2 0xF0 SWAP2 SWAP1 PUSH2 0x8DC JUMP JUMPDEST PUSH2 0x386 JUMP JUMPDEST STOP JUMPDEST CALLVALUE DUP1 ISZERO PUSH2 0x102 JUMPI PUSH0 PUSH0 REVERT JUMPDEST POP PUSH2 0x11D PUSH1 0x4 DUP1 CALLDATASIZE SUB DUP2 ADD SWAP1 PUSH2 0x118 SWAP2 SWAP1 PUSH2 0xA61 JUMP JUMPDEST PUSH2 0x633 JUMP JUMPDEST PUSH1 0x40 MLOAD PUSH2 0x12A SWAP2 SWAP1 PUSH2 0xA9F JUMP JUMPDEST PUSH1 0x40 MLOAD DUP1 SWAP2 SUB SWAP1 RETURN JUMPDEST CALLVALUE DUP1 ISZERO PUSH2 0x13E JUMPI PUSH0 PUSH0 REVERT JUMPDEST POP PUSH2 0x159 PUSH1 0x4 DUP1 CALLDATASIZE SUB DUP2 ADD SWAP1 PUSH2 0x154 SWAP2 SWAP1 PUSH2 0xA61 JUMP JUMPDEST PUSH2 0x65D JUMP JUMPDEST PUSH1 0x40 MLOAD PUSH2 0x166 SWAP2 SWAP1 PUSH2 0xAB8 JUMP JUMPDEST PUSH1 0x40 MLOAD DUP1 SWAP2 SUB SWAP1 RETURN JUMPDEST CALLVALUE DUP1 ISZERO PUSH2 0x17A JUMPI PUSH0 PUSH0 REVERT JUMPDEST POP PUSH2 0x195 PUSH1 0x4 DUP1 CALLDATASIZE SUB DUP2 ADD SWAP1 PUSH2 0x190 SWAP2 SWAP1 PUSH2 0x8DC JUMP JUMPDEST PUSH2 0x688 JUMP JUMPDEST PUSH1 0x40 MLOAD PUSH2 0x1A4 SWAP4 SWAP3 SWAP2 SWAP1 PUSH2 0xAD1 JUMP JUMPDEST PUSH1 0x40 MLOAD DUP1 SWAP2 SUB SWAP1 RETURN JUMPDEST CALLVALUE DUP1 ISZERO PUSH2 0x1B8 JUMPI PUSH0 PUSH0 REVERT JUMPDEST POP PUSH2 0x1D3 PUSH1 0x4 DUP1 CALLDATASIZE SUB DUP2 ADD SWAP1 PUSH2 0x1CE SWAP2 SWAP1 PUSH2 0xC39 JUMP JUMPDEST PUSH2 0x751 JUMP JUMPDEST STOP JUMPDEST PUSH0 PUSH1 0x20 MSTORE DUP1 PUSH0 MSTORE PUSH1 0x40 PUSH0 KECCAK256 PUSH0 SWAP2 POP SWAP1 POP DUP1 PUSH0 ADD SLOAD SWAP1 DUP1 PUSH1 0x1 ADD DUP1 SLOAD PUSH2 0x1F9 SWAP1 PUSH2 0xCD2 JUMP JUMPDEST DUP1 PUSH1 0x1F ADD PUSH1 0x20 DUP1 SWAP2 DIV MUL PUSH1 0x20 ADD PUSH1 0x40 MLOAD SWAP1 DUP2 ADD PUSH1 0x40 MSTORE DUP1 SWAP3 SWAP2 SWAP1 DUP2 DUP2 MSTORE PUSH1 0x20 ADD DUP3 DUP1 SLOAD PUSH2 0x225 SWAP1 PUSH2 0xCD2 JUMP JUMPDEST DUP1 ISZERO PUSH2 0x270 JUMPI DUP1 PUSH1 0x1F LT PUSH2 0x247 JUMPI PUSH2 0x100 DUP1 DUP4 SLOAD DIV MUL DUP4 MSTORE SWAP2 PUSH1 0x20 ADD SWAP2 PUSH2 0x270 JUMP JUMPDEST DUP3 ADD SWAP2 SWAP1 PUSH0 MSTORE PUSH1 0x20 PUSH0 KECCAK256 SWAP1 JUMPDEST DUP2 SLOAD DUP2 MSTORE SWAP1 PUSH1 0x1 ADD SWAP1 PUSH1 0x20 ADD DUP1 DUP4 GT PUSH2 0x253 JUMPI DUP3 SWAP1 SUB PUSH1 0x1F AND DUP3 ADD SWAP2 JUMPDEST POP POP POP POP POP SWAP1 DUP1 PUSH1 0x2 ADD SLOAD SWAP1 DUP1 PUSH1 0x3 ADD PUSH0 SWAP1 SLOAD SWAP1 PUSH2 0x100 EXP SWAP1 DIV PUSH1 0xFF AND SWAP1 DUP1 PUSH1 0x3 ADD PUSH1 0x1 SWAP1 SLOAD SWAP1 PUSH2 0x100 EXP SWAP1 DIV PUSH20 0xFFFFFFFFFFFFFFFFFFFFFFFFFFFFFFFFFFFFFFFF AND SWAP1 POP DUP6 JUMP JUMPDEST PUSH0 PUSH0 DUP3 DUP2 MSTORE PUSH1 0x20 ADD SWAP1 DUP2 MSTORE PUSH1 0x20 ADD PUSH0 KECCAK256 PUSH1 0x3 ADD PUSH1 0x1 SWAP1 SLOAD SWAP1 PUSH2 0x100 EXP SWAP1 DIV PUSH20 0xFFFFFFFFFFFFFFFFFFFFFFFFFFFFFFFFFFFFFFFF AND PUSH20 0xFFFFFFFFFFFFFFFFFFFFFFFFFFFFFFFFFFFFFFFF AND CALLER PUSH20 0xFFFFFFFFFFFFFFFFFFFFFFFFFFFFFFFFFFFFFFFF AND EQ PUSH2 0x359 JUMPI PUSH1 0x40 MLOAD PUSH32 0x8C379A000000000000000000000000000000000000000000000000000000000 DUP2 MSTORE PUSH1 0x4 ADD PUSH2 0x350 SWAP1 PUSH2 0xD4C JUMP JUMPDEST PUSH1 0x40 MLOAD DUP1 SWAP2 SUB SWAP1 REVERT JUMPDEST PUSH0 PUSH0 PUSH0 DUP4 DUP2 MSTORE PUSH1 0x20 ADD SWAP1 DUP2 MSTORE PUSH1 0x20 ADD PUSH0 KECCAK256 PUSH1 0x3 ADD PUSH0 PUSH2 0x100 EXP DUP2 SLOAD DUP2 PUSH1 0xFF MUL NOT AND SWAP1 DUP4 ISZERO ISZERO MUL OR SWAP1 SSTORE POP POP JUMP JUMPDEST PUSH0 PUSH0 PUSH0 DUP4 DUP2 MSTORE PUSH1 0x20 ADD SWAP1 DUP2 MSTORE PUSH1 0x20 ADD PUSH0 KECCAK256 SWAP1 POP DUP1 PUSH1 0x3 ADD PUSH0 SWAP1 SLOAD SWAP1 PUSH2 0x100 EXP SWAP1 DIV PUSH1 0xFF AND PUSH2 0x3E9 JUMPI PUSH1 0x40 MLOAD PUSH32 0x8C379A000000000000000000000000000000000000000000000000000000000 DUP2 MSTORE PUSH1 0x4 ADD PUSH2 0x3E0 SWAP1 PUSH2 0xDB4 JUMP JUMPDEST PUSH1 0x40 MLOAD DUP1 SWAP2 SUB SWAP1 REVERT JUMPDEST DUP1 PUSH1 0x2 ADD SLOAD CALLVALUE LT ISZERO PUSH2 0x430 JUMPI PUSH1 0x40 MLOAD PUSH32 0x8C379A000000000000000000000000000000000000000000000000000000000 DUP2 MSTORE PUSH1 0x4 ADD PUSH2 0x427 SWAP1 PUSH2 0xE1C JUMP JUMPDEST PUSH1 0x40 MLOAD DUP1 SWAP2 SUB SWAP1 REVERT JUMPDEST PUSH1 0x1 PUSH1 0x2 PUSH0 CALLER PUSH20 0xFFFFFFFFFFFFFFFFFFFFFFFFFFFFFFFFFFFFFFFF AND PUSH20 0xFFFFFFFFFFFFFFFFFFFFFFFFFFFFFFFFFFFFFFFF AND DUP2 MSTORE PUSH1 0x20 ADD SWAP1 DUP2 MSTORE PUSH1 0x20 ADD PUSH0 KECCAK256 PUSH0 DUP5 DUP2 MSTORE PUSH1 0x20 ADD SWAP1 DUP2 MSTORE PUSH1 0x20 ADD PUSH0 KECCAK256 PUSH0 PUSH2 0x100 EXP DUP2 SLOAD DUP2 PUSH1 0xFF MUL NOT AND SWAP1 DUP4 ISZERO ISZERO MUL OR SWAP1 SSTORE POP PUSH0 DUP2 PUSH1 0x3 ADD PUSH1 0x1 SWAP1 SLOAD SWAP1 PUSH2 0x100 EXP SWAP1 DIV PUSH20 0xFFFFFFFFFFFFFFFFFFFFFFFFFFFFFFFFFFFFFFFF AND PUSH20 0xFFFFFFFFFFFFFFFFFFFFFFFFFFFFFFFFFFFFFFFF AND DUP3 PUSH1 0x2 ADD SLOAD PUSH1 0x40 MLOAD PUSH2 0x4E1 SWAP1 PUSH2 0xE67 JUMP JUMPDEST PUSH0 PUSH1 0x40 MLOAD DUP1 DUP4 SUB DUP2 DUP6 DUP8 GAS CALL SWAP3 POP POP POP RETURNDATASIZE DUP1 PUSH0 DUP2 EQ PUSH2 0x51B JUMPI PUSH1 0x40 MLOAD SWAP2 POP PUSH1 0x1F NOT PUSH1 0x3F RETURNDATASIZE ADD AND DUP3 ADD PUSH1 0x40 MSTORE RETURNDATASIZE DUP3 MSTORE RETURNDATASIZE PUSH0 PUSH1 0x20 DUP5 ADD RETURNDATACOPY PUSH2 0x520 JUMP JUMPDEST PUSH1 0x60 SWAP2 POP JUMPDEST POP POP SWAP1 POP DUP1 PUSH2 0x564 JUMPI PUSH1 0x40 MLOAD PUSH32 0x8C379A000000000000000000000000000000000000000000000000000000000 DUP2 MSTORE PUSH1 0x4 ADD PUSH2 0x55B SWAP1 PUSH2 0xEC5 JUMP JUMPDEST PUSH1 0x40 MLOAD DUP1 SWAP2 SUB SWAP1 REVERT JUMPDEST DUP2 PUSH1 0x2 ADD SLOAD CALLVALUE GT ISZERO PUSH2 0x62E JUMPI PUSH0 DUP3 PUSH1 0x2 ADD SLOAD CALLVALUE PUSH2 0x581 SWAP2 SWAP1 PUSH2 0xF10 JUMP JUMPDEST SWAP1 POP PUSH0 CALLER PUSH20 0xFFFFFFFFFFFFFFFFFFFFFFFFFFFFFFFFFFFFFFFF AND DUP3 PUSH1 0x40 MLOAD PUSH2 0x5A8 SWAP1 PUSH2 0xE67 JUMP JUMPDEST PUSH0 PUSH1 0x40 MLOAD DUP1 DUP4 SUB DUP2 DUP6 DUP8 GAS CALL SWAP3 POP POP POP RETURNDATASIZE DUP1 PUSH0 DUP2 EQ PUSH2 0x5E2 JUMPI PUSH1 0x40 MLOAD SWAP2 POP PUSH1 0x1F NOT PUSH1 0x3F RETURNDATASIZE ADD AND DUP3 ADD PUSH1 0x40 MSTORE RETURNDATASIZE DUP3 MSTORE RETURNDATASIZE PUSH0 PUSH1 0x20 DUP5 ADD RETURNDATACOPY PUSH2 0x5E7 JUMP JUMPDEST PUSH1 0x60 SWAP2 POP JUMPDEST POP POP SWAP1 POP DUP1 PUSH2 0x62B JUMPI PUSH1 0x40 MLOAD PUSH32 0x8C379A000000000000000000000000000000000000000000000000000000000 DUP2 MSTORE PUSH1 0x4 ADD PUSH2 0x622 SWAP1 PUSH2 0xF8D JUMP JUMPDEST PUSH1 0x40 MLOAD DUP1 SWAP2 SUB SWAP1 REVERT JUMPDEST POP POP JUMPDEST POP POP POP JUMP JUMPDEST PUSH1 0x2 PUSH1 0x20 MSTORE DUP2 PUSH0 MSTORE PUSH1 0x40 PUSH0 KECCAK256 PUSH1 0x20 MSTORE DUP1 PUSH0 MSTORE PUSH1 0x40 PUSH0 KECCAK256 PUSH0 SWAP2 POP SWAP2 POP SWAP1 SLOAD SWAP1 PUSH2 0x100 EXP SWAP1 DIV PUSH1 0xFF AND DUP2 JUMP JUMPDEST PUSH1 0x1 PUSH1 0x20 MSTORE DUP2 PUSH0 MSTORE PUSH1 0x40 PUSH0 KECCAK256 DUP2 DUP2 SLOAD DUP2 LT PUSH2 0x676 JUMPI PUSH0 DUP1 REVERT JUMPDEST SWAP1 PUSH0 MSTORE PUSH1 0x20 PUSH0 KECCAK256 ADD PUSH0 SWAP2 POP SWAP2 POP POP SLOAD DUP2 JUMP JUMPDEST PUSH1 0x60 PUSH0 PUSH0 PUSH0 PUSH0 PUSH0 DUP7 DUP2 MSTORE PUSH1 0x20 ADD SWAP1 DUP2 MSTORE PUSH1 0x20 ADD PUSH0 KECCAK256 SWAP1 POP DUP1 PUSH1 0x1 ADD DUP2 PUSH1 0x2 ADD SLOAD DUP3 PUSH1 0x3 ADD PUSH0 SWAP1 SLOAD SWAP1 PUSH2 0x100 EXP SWAP1 DIV PUSH1 0xFF AND DUP3 DUP1 SLOAD PUSH2 0x6C5 SWAP1 PUSH2 0xCD2 JUMP JUMPDEST DUP1 PUSH1 0x1F ADD PUSH1 0x20 DUP1 SWAP2 DIV MUL PUSH1 0x20 ADD PUSH1 0x40 MLOAD SWAP1 DUP2 ADD PUSH1 0x40 MSTORE DUP1 SWAP3 SWAP2 SWAP1 DUP2 DUP2 MSTORE PUSH1 0x20 ADD DUP3 DUP1 SLOAD PUSH2 0x6F1 SWAP1 PUSH2 0xCD2 JUMP JUMPDEST DUP1 ISZERO PUSH2 0x73C JUMPI DUP1 PUSH1 0x1F LT PUSH2 0x713 JUMPI PUSH2 0x100 DUP1 DUP4 SLOAD DIV MUL DUP4 MSTORE SWAP2 PUSH1 0x20 ADD SWAP2 PUSH2 0x73C JUMP JUMPDEST DUP3 ADD SWAP2 SWAP1 PUSH0 MSTORE PUSH1 0x20 PUSH0 KECCAK256 SWAP1 JUMPDEST DUP2 SLOAD DUP2 MSTORE SWAP1 PUSH1 0x1 ADD SWAP1 PUSH1 0x20 ADD DUP1 DUP4 GT PUSH2 0x71F JUMPI DUP3 SWAP1 SUB PUSH1 0x1F AND DUP3 ADD SWAP2 JUMPDEST POP POP POP POP POP SWAP3 POP SWAP4 POP SWAP4 POP SWAP4 POP POP SWAP2 SWAP4 SWAP1 SWAP3 POP JUMP JUMPDEST PUSH1 0x40 MLOAD DUP1 PUSH1 0xA0 ADD PUSH1 0x40 MSTORE DUP1 DUP5 DUP2 MSTORE PUSH1 0x20 ADD DUP4 DUP2 MSTORE PUSH1 0x20 ADD DUP3 DUP2 MSTORE PUSH1 0x20 ADD PUSH1 0x1 ISZERO ISZERO DUP2 MSTORE PUSH1 0x20 ADD CALLER PUSH20 0xFFFFFFFFFFFFFFFFFFFFFFFFFFFFFFFFFFFFFFFF AND DUP2 MSTORE POP PUSH0 PUSH0 DUP6 DUP2 MSTORE PUSH1 0x20 ADD SWAP1 DUP2 MSTORE PUSH1 0x20 ADD PUSH0 KECCAK256 PUSH0 DUP3 ADD MLOAD DUP2 PUSH0 ADD SSTORE PUSH1 0x20 DUP3 ADD MLOAD DUP2 PUSH1 0x1 ADD SWAP1 DUP2 PUSH2 0x7BE SWAP2 SWAP1 PUSH2 0x114B JUMP JUMPDEST POP PUSH1 0x40 DUP3 ADD MLOAD DUP2 PUSH1 0x2 ADD SSTORE PUSH1 0x60 DUP3 ADD MLOAD DUP2 PUSH1 0x3 ADD PUSH0 PUSH2 0x100 EXP DUP2 SLOAD DUP2 PUSH1 0xFF MUL NOT AND SWAP1 DUP4 ISZERO ISZERO MUL OR SWAP1 SSTORE POP PUSH1 0x80 DUP3 ADD MLOAD DUP2 PUSH1 0x3 ADD PUSH1 0x1 PUSH2 0x100 EXP DUP2 SLOAD DUP2 PUSH20 0xFFFFFFFFFFFFFFFFFFFFFFFFFFFFFFFFFFFFFFFF MUL NOT AND SWAP1 DUP4 PUSH20 0xFFFFFFFFFFFFFFFFFFFFFFFFFFFFFFFFFFFFFFFF AND MUL OR SWAP1 SSTORE POP SWAP1 POP POP PUSH1 0x1 PUSH0 CALLER PUSH20 0xFFFFFFFFFFFFFFFFFFFFFFFFFFFFFFFFFFFFFFFF AND PUSH20 0xFFFFFFFFFFFFFFFFFFFFFFFFFFFFFFFFFFFFFFFF AND DUP2 MSTORE PUSH1 0x20 ADD SWAP1 DUP2 MSTORE PUSH1 0x20 ADD PUSH0 KECCAK256 DUP4 SWAP1 DUP1 PUSH1 0x1 DUP2 SLOAD ADD DUP1 DUP3 SSTORE DUP1 SWAP2 POP POP PUSH1 0x1 SWAP1 SUB SWAP1 PUSH0 MSTORE PUSH1 0x20 PUSH0 KECCAK256 ADD PUSH0 SWAP1 SWAP2 SWAP1 SWAP2 SWAP1 SWAP2 POP SSTORE POP POP POP JUMP JUMPDEST PUSH0 PUSH1 0x40 MLOAD SWAP1 POP SWAP1 JUMP JUMPDEST PUSH0 PUSH0 REVERT JUMPDEST PUSH0 PUSH0 REVERT JUMPDEST PUSH0 DUP2 SWAP1 POP SWAP2 SWAP1 POP JUMP JUMPDEST PUSH2 0x8BB DUP2 PUSH2 0x8A9 JUMP JUMPDEST DUP2 EQ PUSH2 0x8C5 JUMPI PUSH0 PUSH0 REVERT JUMPDEST POP JUMP JUMPDEST PUSH0 DUP2 CALLDATALOAD SWAP1 POP PUSH2 0x8D6 DUP2 PUSH2 0x8B2 JUMP JUMPDEST SWAP3 SWAP2 POP POP JUMP JUMPDEST PUSH0 PUSH1 0x20 DUP3 DUP5 SUB SLT ISZERO PUSH2 0x8F1 JUMPI PUSH2 0x8F0 PUSH2 0x8A1 JUMP JUMPDEST JUMPDEST PUSH0 PUSH2 0x8FE DUP5 DUP3 DUP6 ADD PUSH2 0x8C8 JUMP JUMPDEST SWAP2 POP POP SWAP3 SWAP2 POP POP JUMP JUMPDEST PUSH2 0x910 DUP2 PUSH2 0x8A9 JUMP JUMPDEST DUP3 MSTORE POP POP JUMP JUMPDEST PUSH0 DUP2 MLOAD SWAP1 POP SWAP2 SWAP1 POP JUMP JUMPDEST PUSH0 DUP3 DUP3 MSTORE PUSH1 0x20 DUP3 ADD SWAP1 POP SWAP3 SWAP2 POP POP JUMP JUMPDEST DUP3 DUP2 DUP4 MCOPY PUSH0 DUP4 DUP4 ADD MSTORE POP POP POP JUMP JUMPDEST PUSH0 PUSH1 0x1F NOT PUSH1 0x1F DUP4 ADD AND SWAP1 POP SWAP2 SWAP1 POP JUMP JUMPDEST PUSH0 PUSH2 0x958 DUP3 PUSH2 0x916 JUMP JUMPDEST PUSH2 0x962 DUP2 DUP6 PUSH2 0x920 JUMP JUMPDEST SWAP4 POP PUSH2 0x972 DUP2 DUP6 PUSH1 0x20 DUP7 ADD PUSH2 0x930 JUMP JUMPDEST PUSH2 0x97B DUP2 PUSH2 0x93E JUMP JUMPDEST DUP5 ADD SWAP2 POP POP SWAP3 SWAP2 POP POP JUMP JUMPDEST PUSH0 DUP2 ISZERO ISZERO SWAP1 POP SWAP2 SWAP1 POP JUMP JUMPDEST PUSH2 0x99A DUP2 PUSH2 0x986 JUMP JUMPDEST DUP3 MSTORE POP POP JUMP JUMPDEST PUSH0 PUSH20 0xFFFFFFFFFFFFFFFFFFFFFFFFFFFFFFFFFFFFFFFF DUP3 AND SWAP1 POP SWAP2 SWAP1 POP JUMP JUMPDEST PUSH0 PUSH2 0x9C9 DUP3 PUSH2 0x9A0 JUMP JUMPDEST SWAP1 POP SWAP2 SWAP1 POP JUMP JUMPDEST PUSH2 0x9D9 DUP2 PUSH2 0x9BF JUMP JUMPDEST DUP3 MSTORE POP POP JUMP JUMPDEST PUSH0 PUSH1 0xA0 DUP3 ADD SWAP1 POP PUSH2 0x9F2 PUSH0 DUP4 ADD DUP9 PUSH2 0x907 JUMP JUMPDEST DUP2 DUP2 SUB PUSH1 0x20 DUP4 ADD MSTORE PUSH2 0xA04 DUP2 DUP8 PUSH2 0x94E JUMP JUMPDEST SWAP1 POP PUSH2 0xA13 PUSH1 0x40 DUP4 ADD DUP7 PUSH2 0x907 JUMP JUMPDEST PUSH2 0xA20 PUSH1 0x60 DUP4 ADD DUP6 PUSH2 0x991 JUMP JUMPDEST PUSH2 0xA2D PUSH1 0x80 DUP4 ADD DUP5 PUSH2 0x9D0 JUMP JUMPDEST SWAP7 SWAP6 POP POP POP POP POP POP JUMP JUMPDEST PUSH2 0xA40 DUP2 PUSH2 0x9BF JUMP JUMPDEST DUP2 EQ PUSH2 0xA4A JUMPI PUSH0 PUSH0 REVERT JUMPDEST POP JUMP JUMPDEST PUSH0 DUP2 CALLDATALOAD SWAP1 POP PUSH2 0xA5B DUP2 PUSH2 0xA37 JUMP JUMPDEST SWAP3 SWAP2 POP POP JUMP JUMPDEST PUSH0 PUSH0 PUSH1 0x40 DUP4 DUP6 SUB SLT ISZERO PUSH2 0xA77 JUMPI PUSH2 0xA76 PUSH2 0x8A1 JUMP JUMPDEST JUMPDEST PUSH0 PUSH2 0xA84 DUP6 DUP3 DUP7 ADD PUSH2 0xA4D JUMP JUMPDEST SWAP3 POP POP PUSH1 0x20 PUSH2 0xA95 DUP6 DUP3 DUP7 ADD PUSH2 0x8C8 JUMP JUMPDEST SWAP2 POP POP SWAP3 POP SWAP3 SWAP1 POP JUMP JUMPDEST PUSH0 PUSH1 0x20 DUP3 ADD SWAP1 POP PUSH2 0xAB2 PUSH0 DUP4 ADD DUP5 PUSH2 0x991 JUMP JUMPDEST SWAP3 SWAP2 POP POP JUMP JUMPDEST PUSH0 PUSH1 0x20 DUP3 ADD SWAP1 POP PUSH2 0xACB PUSH0 DUP4 ADD DUP5 PUSH2 0x907 JUMP JUMPDEST SWAP3 SWAP2 POP POP JUMP JUMPDEST PUSH0 PUSH1 0x60 DUP3 ADD SWAP1 POP DUP2 DUP2 SUB PUSH0 DUP4 ADD MSTORE PUSH2 0xAE9 DUP2 DUP7 PUSH2 0x94E JUMP JUMPDEST SWAP1 POP PUSH2 0xAF8 PUSH1 0x20 DUP4 ADD DUP6 PUSH2 0x907 JUMP JUMPDEST PUSH2 0xB05 PUSH1 0x40 DUP4 ADD DUP5 PUSH2 0x991 JUMP JUMPDEST SWAP5 SWAP4 POP POP POP POP JUMP JUMPDEST PUSH0 PUSH0 REVERT JUMPDEST PUSH0 PUSH0 REVERT JUMPDEST PUSH32 0x4E487B7100000000000000000000000000000000000000000000000000000000 PUSH0 MSTORE PUSH1 0x41 PUSH1 0x4 MSTORE PUSH1 0x24 PUSH0 REVERT JUMPDEST PUSH2 0xB4B DUP3 PUSH2 0x93E JUMP JUMPDEST DUP2 ADD DUP2 DUP2 LT PUSH8 0xFFFFFFFFFFFFFFFF DUP3 GT OR ISZERO PUSH2 0xB6A JUMPI PUSH2 0xB69 PUSH2 0xB15 JUMP JUMPDEST JUMPDEST DUP1 PUSH1 0x40 MSTORE POP POP POP JUMP JUMPDEST PUSH0 PUSH2 0xB7C PUSH2 0x898 JUMP JUMPDEST SWAP1 POP PUSH2 0xB88 DUP3 DUP3 PUSH2 0xB42 JUMP JUMPDEST SWAP2 SWAP1 POP JUMP JUMPDEST PUSH0 PUSH8 0xFFFFFFFFFFFFFFFF DUP3 GT ISZERO PUSH2 0xBA7 JUMPI PUSH2 0xBA6 PUSH2 0xB15 JUMP JUMPDEST JUMPDEST PUSH2 0xBB0 DUP3 PUSH2 0x93E JUMP JUMPDEST SWAP1 POP PUSH1 0x20 DUP2 ADD SWAP1 POP SWAP2 SWAP1 POP JUMP JUMPDEST DUP3 DUP2 DUP4 CALLDATACOPY PUSH0 DUP4 DUP4 ADD MSTORE POP POP POP JUMP JUMPDEST PUSH0 PUSH2 0xBDD PUSH2 0xBD8 DUP5 PUSH2 0xB8D JUMP JUMPDEST PUSH2 0xB73 JUMP JUMPDEST SWAP1 POP DUP3 DUP2 MSTORE PUSH1 0x20 DUP2 ADD DUP5 DUP5 DUP5 ADD GT ISZERO PUSH2 0xBF9 JUMPI PUSH2 0xBF8 PUSH2 0xB11 JUMP JUMPDEST JUMPDEST PUSH2 0xC04 DUP5 DUP3 DUP6 PUSH2 0xBBD JUMP JUMPDEST POP SWAP4 SWAP3 POP POP POP JUMP JUMPDEST PUSH0 DUP3 PUSH1 0x1F DUP4 ADD SLT PUSH2 0xC20 JUMPI PUSH2 0xC1F PUSH2 0xB0D JUMP JUMPDEST JUMPDEST DUP2 CALLDATALOAD PUSH2 0xC30 DUP5 DUP3 PUSH1 0x20 DUP7 ADD PUSH2 0xBCB JUMP JUMPDEST SWAP2 POP POP SWAP3 SWAP2 POP POP JUMP JUMPDEST PUSH0 PUSH0 PUSH0 PUSH1 0x60 DUP5 DUP7 SUB SLT ISZERO PUSH2 0xC50 JUMPI PUSH2 0xC4F PUSH2 0x8A1 JUMP JUMPDEST JUMPDEST PUSH0 PUSH2 0xC5D DUP7 DUP3 DUP8 ADD PUSH2 0x8C8 JUMP JUMPDEST SWAP4 POP POP PUSH1 0x20 DUP5 ADD CALLDATALOAD PUSH8 0xFFFFFFFFFFFFFFFF DUP2 GT ISZERO PUSH2 0xC7E JUMPI PUSH2 0xC7D PUSH2 0x8A5 JUMP JUMPDEST JUMPDEST PUSH2 0xC8A DUP7 DUP3 DUP8 ADD PUSH2 0xC0C JUMP JUMPDEST SWAP3 POP POP PUSH1 0x40 PUSH2 0xC9B DUP7 DUP3 DUP8 ADD PUSH2 0x8C8 JUMP JUMPDEST SWAP2 POP POP SWAP3 POP SWAP3 POP SWAP3 JUMP JUMPDEST PUSH32 0x4E487B7100000000000000000000000000000000000000000000000000000000 PUSH0 MSTORE PUSH1 0x22 PUSH1 0x4 MSTORE PUSH1 0x24 PUSH0 REVERT JUMPDEST PUSH0 PUSH1 0x2 DUP3 DIV SWAP1 POP PUSH1 0x1 DUP3 AND DUP1 PUSH2 0xCE9 JUMPI PUSH1 0x7F DUP3 AND SWAP2 POP JUMPDEST PUSH1 0x20 DUP3 LT DUP2 SUB PUSH2 0xCFC JUMPI PUSH2 0xCFB PUSH2 0xCA5 JUMP JUMPDEST JUMPDEST POP SWAP2 SWAP1 POP JUMP JUMPDEST PUSH32 0x4F6E6C79206F776E65722063616E206465616374697661746500000000000000 PUSH0 DUP3 ADD MSTORE POP JUMP JUMPDEST PUSH0 PUSH2 0xD36 PUSH1 0x19 DUP4 PUSH2 0x920 JUMP JUMPDEST SWAP2 POP PUSH2 0xD41 DUP3 PUSH2 0xD02 JUMP JUMPDEST PUSH1 0x20 DUP3 ADD SWAP1 POP SWAP2 SWAP1 POP JUMP JUMPDEST PUSH0 PUSH1 0x20 DUP3 ADD SWAP1 POP DUP2 DUP2 SUB PUSH0 DUP4 ADD MSTORE PUSH2 0xD63 DUP2 PUSH2 0xD2A JUMP JUMPDEST SWAP1 POP SWAP2 SWAP1 POP JUMP JUMPDEST PUSH32 0x446576696365206E6F7420616374697665000000000000000000000000000000 PUSH0 DUP3 ADD MSTORE POP JUMP JUMPDEST PUSH0 PUSH2 0xD9E PUSH1 0x11 DUP4 PUSH2 0x920 JUMP JUMPDEST SWAP2 POP PUSH2 0xDA9 DUP3 PUSH2 0xD6A JUMP JUMPDEST PUSH1 0x20 DUP3 ADD SWAP1 POP SWAP2 SWAP1 POP JUMP JUMPDEST PUSH0 PUSH1 0x20 DUP3 ADD SWAP1 POP DUP2 DUP2 SUB PUSH0 DUP4 ADD MSTORE PUSH2 0xDCB DUP2 PUSH2 0xD92 JUMP JUMPDEST SWAP1 POP SWAP2 SWAP1 POP JUMP JUMPDEST PUSH32 0x496E73756666696369656E742066756E64730000000000000000000000000000 PUSH0 DUP3 ADD MSTORE POP JUMP JUMPDEST PUSH0 PUSH2 0xE06 PUSH1 0x12 DUP4 PUSH2 0x920 JUMP JUMPDEST SWAP2 POP PUSH2 0xE11 DUP3 PUSH2 0xDD2 JUMP JUMPDEST PUSH1 0x20 DUP3 ADD SWAP1 POP SWAP2 SWAP1 POP JUMP JUMPDEST PUSH0 PUSH1 0x20 DUP3 ADD SWAP1 POP DUP2 DUP2 SUB PUSH0 DUP4 ADD MSTORE PUSH2 0xE33 DUP2 PUSH2 0xDFA JUMP JUMPDEST SWAP1 POP SWAP2 SWAP1 POP JUMP JUMPDEST PUSH0 DUP2 SWAP1 POP SWAP3 SWAP2 POP POP JUMP JUMPDEST POP JUMP JUMPDEST PUSH0 PUSH2 0xE52 PUSH0 DUP4 PUSH2 0xE3A JUMP JUMPDEST SWAP2 POP PUSH2 0xE5D DUP3 PUSH2 0xE44 JUMP JUMPDEST PUSH0 DUP3 ADD SWAP1 POP SWAP2 SWAP1 POP JUMP JUMPDEST PUSH0 PUSH2 0xE71 DUP3 PUSH2 0xE47 JUMP JUMPDEST SWAP2 POP DUP2 SWAP1 POP SWAP2 SWAP1 POP JUMP JUMPDEST PUSH32 0x5472616E7366657220746F206F776E6572206661696C65640000000000000000 PUSH0 DUP3 ADD MSTORE POP JUMP JUMPDEST PUSH0 PUSH2 0xEAF PUSH1 0x18 DUP4 PUSH2 0x920 JUMP JUMPDEST SWAP2 POP PUSH2 0xEBA DUP3 PUSH2 0xE7B JUMP JUMPDEST PUSH1 0x20 DUP3 ADD SWAP1 POP SWAP2 SWAP1 POP JUMP JUMPDEST PUSH0 PUSH1 0x20 DUP3 ADD SWAP1 POP DUP2 DUP2 SUB PUSH0 DUP4 ADD MSTORE PUSH2 0xEDC DUP2 PUSH2 0xEA3 JUMP JUMPDEST SWAP1 POP SWAP2 SWAP1 POP JUMP JUMPDEST PUSH32 0x4E487B7100000000000000000000000000000000000000000000000000000000 PUSH0 MSTORE PUSH1 0x11 PUSH1 0x4 MSTORE PUSH1 0x24 PUSH0 REVERT JUMPDEST PUSH0 PUSH2 0xF1A DUP3 PUSH2 0x8A9 JUMP JUMPDEST SWAP2 POP PUSH2 0xF25 DUP4 PUSH2 0x8A9 JUMP JUMPDEST SWAP3 POP DUP3 DUP3 SUB SWAP1 POP DUP2 DUP2 GT ISZERO PUSH2 0xF3D JUMPI PUSH2 0xF3C PUSH2 0xEE3 JUMP JUMPDEST JUMPDEST SWAP3 SWAP2 POP POP JUMP JUMPDEST PUSH32 0x526566756E64206661696C656400000000000000000000000000000000000000 PUSH0 DUP3 ADD MSTORE POP JUMP JUMPDEST PUSH0 PUSH2 0xF77 PUSH1 0xD DUP4 PUSH2 0x920 JUMP JUMPDEST SWAP2 POP PUSH2 0xF82 DUP3 PUSH2 0xF43 JUMP JUMPDEST PUSH1 0x20 DUP3 ADD SWAP1 POP SWAP2 SWAP1 POP JUMP JUMPDEST PUSH0 PUSH1 0x20 DUP3 ADD SWAP1 POP DUP2 DUP2 SUB PUSH0 DUP4 ADD MSTORE PUSH2 0xFA4 DUP2 PUSH2 0xF6B JUMP JUMPDEST SWAP1 POP SWAP2 SWAP1 POP JUMP JUMPDEST PUSH0 DUP2 SWAP1 POP DUP2 PUSH0 MSTORE PUSH1 0x20 PUSH0 KECCAK256 SWAP1 POP SWAP2 SWAP1 POP JUMP JUMPDEST PUSH0 PUSH1 0x20 PUSH1 0x1F DUP4 ADD DIV SWAP1 POP SWAP2 SWAP1 POP JUMP JUMPDEST PUSH0 DUP3 DUP3 SHL SWAP1 POP SWAP3 SWAP2 POP POP JUMP JUMPDEST PUSH0 PUSH1 0x8 DUP4 MUL PUSH2 0x1007 PUSH32 0xFFFFFFFFFFFFFFFFFFFFFFFFFFFFFFFFFFFFFFFFFFFFFFFFFFFFFFFFFFFFFFFF DUP3 PUSH2 0xFCC JUMP JUMPDEST PUSH2 0x1011 DUP7 DUP4 PUSH2 0xFCC JUMP JUMPDEST SWAP6 POP DUP1 NOT DUP5 AND SWAP4 POP DUP1 DUP7 AND DUP5 OR SWAP3 POP POP POP SWAP4 SWAP3 POP POP POP JUMP JUMPDEST PUSH0 DUP2 SWAP1 POP SWAP2 SWAP1 POP JUMP JUMPDEST PUSH0 PUSH2 0x104C PUSH2 0x1047 PUSH2 0x1042 DUP5 PUSH2 0x8A9 JUMP JUMPDEST PUSH2 0x1029 JUMP JUMPDEST PUSH2 0x8A9 JUMP JUMPDEST SWAP1 POP SWAP2 SWAP1 POP JUMP JUMPDEST PUSH0 DUP2 SWAP1 POP SWAP2 SWAP1 POP JUMP JUMPDEST PUSH2 0x1065 DUP4 PUSH2 0x1032 JUMP JUMPDEST PUSH2 0x1079 PUSH2 0x1071 DUP3 PUSH2 0x1053 JUMP JUMPDEST DUP5 DUP5 SLOAD PUSH2 0xFD8 JUMP JUMPDEST DUP3 SSTORE POP POP POP POP JUMP JUMPDEST PUSH0 PUSH0 SWAP1 POP SWAP1 JUMP JUMPDEST PUSH2 0x1090 PUSH2 0x1081 JUMP JUMPDEST PUSH2 0x109B DUP2 DUP5 DUP5 PUSH2 0x105C JUMP JUMPDEST POP POP POP JUMP JUMPDEST JUMPDEST DUP2 DUP2 LT ISZERO PUSH2 0x10BE JUMPI PUSH2 0x10B3 PUSH0 DUP3 PUSH2 0x1088 JUMP JUMPDEST PUSH1 0x1 DUP2 ADD SWAP1 POP PUSH2 0x10A1 JUMP JUMPDEST POP POP JUMP JUMPDEST PUSH1 0x1F DUP3 GT ISZERO PUSH2 0x1103 JUMPI PUSH2 0x10D4 DUP2 PUSH2 0xFAB JUMP JUMPDEST PUSH2 0x10DD DUP5 PUSH2 0xFBD JUMP JUMPDEST DUP2 ADD PUSH1 0x20 DUP6 LT ISZERO PUSH2 0x10EC JUMPI DUP2 SWAP1 POP JUMPDEST PUSH2 0x1100 PUSH2 0x10F8 DUP6 PUSH2 0xFBD JUMP JUMPDEST DUP4 ADD DUP3 PUSH2 0x10A0 JUMP JUMPDEST POP POP JUMPDEST POP POP POP JUMP JUMPDEST PUSH0 DUP3 DUP3 SHR SWAP1 POP SWAP3 SWAP2 POP POP JUMP JUMPDEST PUSH0 PUSH2 0x1123 PUSH0 NOT DUP5 PUSH1 0x8 MUL PUSH2 0x1108 JUMP JUMPDEST NOT DUP1 DUP4 AND SWAP2 POP POP SWAP3 SWAP2 POP POP JUMP JUMPDEST PUSH0 PUSH2 0x113B DUP4 DUP4 PUSH2 0x1114 JUMP JUMPDEST SWAP2 POP DUP3 PUSH1 0x2 MUL DUP3 OR SWAP1 POP SWAP3 SWAP2 POP POP JUMP JUMPDEST PUSH2 0x1154 DUP3 PUSH2 0x916 JUMP JUMPDEST PUSH8 0xFFFFFFFFFFFFFFFF DUP2 GT ISZERO PUSH2 0x116D JUMPI PUSH2 0x116C PUSH2 0xB15 JUMP JUMPDEST JUMPDEST PUSH2 0x1177 DUP3 SLOAD PUSH2 0xCD2 JUMP JUMPDEST PUSH2 0x1182 DUP3 DUP3 DUP6 PUSH2 0x10C2 JUMP JUMPDEST PUSH0 PUSH1 0x20 SWAP1 POP PUSH1 0x1F DUP4 GT PUSH1 0x1 DUP2 EQ PUSH2 0x11B3 JUMPI PUSH0 DUP5 ISZERO PUSH2 0x11A1 JUMPI DUP3 DUP8 ADD MLOAD SWAP1 POP JUMPDEST PUSH2 0x11AB DUP6 DUP3 PUSH2 0x1130 JUMP JUMPDEST DUP7 SSTORE POP PUSH2 0x1212 JUMP JUMPDEST PUSH1 0x1F NOT DUP5 AND PUSH2 0x11C1 DUP7 PUSH2 0xFAB JUMP JUMPDEST PUSH0 JUMPDEST DUP3 DUP2 LT ISZERO PUSH2 0x11E8 JUMPI DUP5 DUP10 ADD MLOAD DUP3 SSTORE PUSH1 0x1 DUP3 ADD SWAP2 POP PUSH1 0x20 DUP6 ADD SWAP5 POP PUSH1 0x20 DUP2 ADD SWAP1 POP PUSH2 0x11C3 JUMP JUMPDEST DUP7 DUP4 LT ISZERO PUSH2 0x1205 JUMPI DUP5 DUP10 ADD MLOAD PUSH2 0x1201 PUSH1 0x1F DUP10 AND DUP3 PUSH2 0x1114 JUMP JUMPDEST DUP4 SSTORE POP JUMPDEST PUSH1 0x1 PUSH1 0x2 DUP9 MUL ADD DUP9 SSTORE POP POP POP JUMPDEST POP POP POP POP POP POP JUMP INVALID LOG2 PUSH5 0x6970667358 0x22 SLT KECCAK256 DUP11 0xEB 0xDB BALANCE PUSH26 0x41021597B6EA5A70475F56096B21E3D71327E6B62083671544A5 SSTORE PUSH5 0x736F6C6343 STOP ADDMOD 0x1F STOP CALLER "
				},
				"gasEstimates": {
					"creation": {
						"codeDepositCost": "937600",
						"executionCost": "973",
						"totalCost": "938573"
					},
					"external": {
						"buyDataAccess(uint256)": "infinite",
						"deactivateDevice(uint256)": "27071",
						"devices(uint256)": "infinite",
						"getDeviceData(uint256)": "infinite",
						"hasAccess(address,uint256)": "3070",
						"registerDevice(uint256,string,uint256)": "infinite",
						"userDevices(address,uint256)": "infinite"
					}
				},
				"methodIdentifiers": {
					"buyDataAccess(uint256)": "7c3780a7",
					"deactivateDevice(uint256)": "2be8df7d",
					"devices(uint256)": "10ff8e31",
					"getDeviceData(uint256)": "d96cabfa",
					"hasAccess(address,uint256)": "c6530e41",
					"registerDevice(uint256,string,uint256)": "f39e65f7",
					"userDevices(address,uint256)": "d5928be9"
				}
			},
			"storageLayout": {
				"storage": [
					{
						"astId": 17,
						"contract": "workspace/3_IoT.sol:IoTMarketplace",
						"label": "devices",
						"offset": 0,
						"slot": "0",
						"type": "t_mapping(t_uint256,t_struct(Device)12_storage)"
					},
					{
						"astId": 22,
						"contract": "workspace/3_IoT.sol:IoTMarketplace",
						"label": "userDevices",
						"offset": 0,
						"slot": "1",
						"type": "t_mapping(t_address,t_array(t_uint256)dyn_storage)"
					},
					{
						"astId": 28,
						"contract": "workspace/3_IoT.sol:IoTMarketplace",
						"label": "hasAccess",
						"offset": 0,
						"slot": "2",
						"type": "t_mapping(t_address,t_mapping(t_uint256,t_bool))"
					}
				],
				"types": {
					"t_address": {
						"encoding": "inplace",
						"label": "address",
						"numberOfBytes": "20"
					},
					"t_array(t_uint256)dyn_storage": {
						"base": "t_uint256",
						"encoding": "dynamic_array",
						"label": "uint256[]",
						"numberOfBytes": "32"
					},
					"t_bool": {
						"encoding": "inplace",
						"label": "bool",
						"numberOfBytes": "1"
					},
					"t_mapping(t_address,t_array(t_uint256)dyn_storage)": {
						"encoding": "mapping",
						"key": "t_address",
						"label": "mapping(address => uint256[])",
						"numberOfBytes": "32",
						"value": "t_array(t_uint256)dyn_storage"
					},
					"t_mapping(t_address,t_mapping(t_uint256,t_bool))": {
						"encoding": "mapping",
						"key": "t_address",
						"label": "mapping(address => mapping(uint256 => bool))",
						"numberOfBytes": "32",
						"value": "t_mapping(t_uint256,t_bool)"
					},
					"t_mapping(t_uint256,t_bool)": {
						"encoding": "mapping",
						"key": "t_uint256",
						"label": "mapping(uint256 => bool)",
						"numberOfBytes": "32",
						"value": "t_bool"
					},
					"t_mapping(t_uint256,t_struct(Device)12_storage)": {
						"encoding": "mapping",
						"key": "t_uint256",
						"label": "mapping(uint256 => struct IoTMarketplace.Device)",
						"numberOfBytes": "32",
						"value": "t_struct(Device)12_storage"
					},
					"t_string_storage": {
						"encoding": "bytes",
						"label": "string",
						"numberOfBytes": "32"
					},
					"t_struct(Device)12_storage": {
						"encoding": "inplace",
						"label": "struct IoTMarketplace.Device",
						"members": [
							{
								"astId": 3,
								"contract": "workspace/3_IoT.sol:IoTMarketplace",
								"label": "id",
								"offset": 0,
								"slot": "0",
								"type": "t_uint256"
							},
							{
								"astId": 5,
								"contract": "workspace/3_IoT.sol:IoTMarketplace",
								"label": "deviceType",
								"offset": 0,
								"slot": "1",
								"type": "t_string_storage"
							},
							{
								"astId": 7,
								"contract": "workspace/3_IoT.sol:IoTMarketplace",
								"label": "price",
								"offset": 0,
								"slot": "2",
								"type": "t_uint256"
							},
							{
								"astId": 9,
								"contract": "workspace/3_IoT.sol:IoTMarketplace",
								"label": "isActive",
								"offset": 0,
								"slot": "3",
								"type": "t_bool"
							},
							{
								"astId": 11,
								"contract": "workspace/3_IoT.sol:IoTMarketplace",
								"label": "owner",
								"offset": 1,
								"slot": "3",
								"type": "t_address"
							}
						],
						"numberOfBytes": "128"
					},
					"t_uint256": {
						"encoding": "inplace",
						"label": "uint256",
						"numberOfBytes": "32"
					}
				}
			},
			"userdoc": {
				"kind": "user",
				"methods": {},
				"version": 1
			}
		}
	}
}