{
	"workspace/4_Energy.sol": {
		"EnergyTrading": {
			"abi": [
				{
					"inputs": [
						{
							"internalType": "address",
							"name": "_producer",
							"type": "address"
						},
						{
							"internalType": "uint256",
							"name": "_units",
							"type": "uint256"
						}
					],
					"name": "buyEnergy",
					"outputs": [],
					"stateMutability": "payable",
					"type": "function"
				},
				{
					"inputs": [
						{
							"internalType": "address",
							"name": "",
							"type": "address"
						}
					],
					"name": "energyBalance",
					"outputs": [
						{
							"internalType": "uint256",
							"name": "",
							"type": "uint256"
						}
					],
					"stateMutability": "view",
					"type": "function"
				},
				{
					"inputs": [
						{
							"internalType": "address",
							"name": "",
							"type": "address"
						}
					],
					"name": "energyCredits",
					"outputs": [
						{
							"internalType": "uint256",
							"name": "",
							"type": "uint256"
						}
					],
					"stateMutability": "view",
					"type": "function"
				},
				{
					"inputs": [],
					"name": "maxEnergySeller",
					"outputs": [
						{
							"internalType": "address",
							"name": "",
							"type": "address"
						}
					],
					"stateMutability": "view",
					"type": "function"
				},
				{
					"inputs": [
						{
							"internalType": "uint256",
							"name": "",
							"type": "uint256"
						}
					],
					"name": "producerList",
					"outputs": [
						{
							"internalType": "address",
							"name": "",
							"type": "address"
						}
					],
					"stateMutability": "view",
					"type": "function"
				},
				{
					"inputs": [
						{
							"internalType": "address",
							"name": "",
							"type": "address"
						}
					],
					"name": "producers",
					"outputs": [
						{
							"internalType": "uint256",
							"name": "energyAvailable",
							"type": "uint256"
						},
						{
							"internalType": "uint256",
							"name": "pricePerUnit",
							"type": "uint256"
						},
						{
							"internalType": "bool",
							"name": "isActive",
							"type": "bool"
						},
						{
							"internalType": "address",
							"name": "producerAddress",
							"type": "address"
						}
					],
					"stateMutability": "view",
					"type": "function"
				},
				{
					"inputs": [
						{
							"internalType": "uint256",
							"name": "_units",
							"type": "uint256"
						},
						{
							"internalType": "uint256",
							"name": "_price",
							"type": "uint256"
						}
					],
					"name": "registerProducer",
					"outputs": [],
					"stateMutability": "nonpayable",
					"type": "function"
				}
			],
			"devdoc": {
				"kind": "dev",
				"methods": {},
				"version": 1
			},
			"evm": {
				"assembly": "    /* \"workspace/4_Energy.sol\":60:2294  contract EnergyTrading {... */\n  mstore(0x40, 0x80)\n  callvalue\n  dup1\n  iszero\n  tag_1\n  jumpi\n  revert(0x00, 0x00)\ntag_1:\n  pop\n  dataSize(sub_0)\n  dup1\n  dataOffset(sub_0)\n  0x00\n  codecopy\n  0x00\n  return\nstop\n\nsub_0: assembly {\n        /* \"workspace/4_Energy.sol\":60:2294  contract EnergyTrading {... */\n      mstore(0x40, 0x80)\n      jumpi(tag_1, lt(calldatasize, 0x04))\n      shr(0xe0, calldataload(0x00))\n      dup1\n      0x4821b367\n      gt\n      tag_9\n      jumpi\n      dup1\n      0x4821b367\n      eq\n      tag_5\n      jumpi\n      dup1\n      0x6a2d9682\n      eq\n      tag_6\n      jumpi\n      dup1\n      0xd953a2bf\n      eq\n      tag_7\n      jumpi\n      dup1\n      0xed7653e7\n      eq\n      tag_8\n      jumpi\n      jump(tag_1)\n    tag_9:\n      dup1\n      0x207677de\n      eq\n      tag_2\n      jumpi\n      dup1\n      0x26324eff\n      eq\n      tag_3\n      jumpi\n      dup1\n      0x36fd7e1b\n      eq\n      tag_4\n      jumpi\n    tag_1:\n      revert(0x00, 0x00)\n        /* \"workspace/4_Energy.sol\":475:504  address[] public producerList */\n    tag_2:\n      callvalue\n      dup1\n      iszero\n      tag_10\n      jumpi\n      revert(0x00, 0x00)\n    tag_10:\n      pop\n      tag_11\n      0x04\n      dup1\n      calldatasize\n      sub\n      dup2\n      add\n      swap1\n      tag_12\n      swap2\n      swap1\n      tag_13\n      jump\t// in\n    tag_12:\n      tag_14\n      jump\t// in\n    tag_11:\n      mload(0x40)\n      tag_15\n      swap2\n      swap1\n      tag_16\n      jump\t// in\n    tag_15:\n      mload(0x40)\n      dup1\n      swap2\n      sub\n      swap1\n      return\n        /* \"workspace/4_Energy.sol\":296:341  mapping(address => Producer) public producers */\n    tag_3:\n      callvalue\n      dup1\n      iszero\n      tag_17\n      jumpi\n      revert(0x00, 0x00)\n    tag_17:\n      pop\n      tag_18\n      0x04\n      dup1\n      calldatasize\n      sub\n      dup2\n      add\n      swap1\n      tag_19\n      swap2\n      swap1\n      tag_20\n      jump\t// in\n    tag_19:\n      tag_21\n      jump\t// in\n    tag_18:\n      mload(0x40)\n      tag_22\n      swap5\n      swap4\n      swap3\n      swap2\n      swap1\n      tag_23\n      jump\t// in\n    tag_22:\n      mload(0x40)\n      dup1\n      swap2\n      sub\n      swap1\n      return\n        /* \"workspace/4_Energy.sol\":766:1786  function buyEnergy(address _producer, uint _units) public payable {... */\n    tag_4:\n      tag_24\n      0x04\n      dup1\n      calldatasize\n      sub\n      dup2\n      add\n      swap1\n      tag_25\n      swap2\n      swap1\n      tag_26\n      jump\t// in\n    tag_25:\n      tag_27\n      jump\t// in\n    tag_24:\n      stop\n        /* \"workspace/4_Energy.sol\":546:730  function registerProducer(uint _units, uint _price) public {... */\n    tag_5:\n      callvalue\n      dup1\n      iszero\n      tag_28\n      jumpi\n      revert(0x00, 0x00)\n    tag_28:\n      pop\n      tag_29\n      0x04\n      dup1\n      calldatasize\n      sub\n      dup2\n      add\n      swap1\n      tag_30\n      swap2\n      swap1\n      tag_31\n      jump\t// in\n    tag_30:\n      tag_32\n      jump\t// in\n    tag_29:\n      stop\n        /* \"workspace/4_Energy.sol\":420:465  mapping(address => uint) public energyCredits */\n    tag_6:\n      callvalue\n      dup1\n      iszero\n      tag_33\n      jumpi\n      revert(0x00, 0x00)\n    tag_33:\n      pop\n      tag_34\n      0x04\n      dup1\n      calldatasize\n      sub\n      dup2\n      add\n      swap1\n      tag_35\n      swap2\n      swap1\n      tag_20\n      jump\t// in\n    tag_35:\n      tag_36\n      jump\t// in\n    tag_34:\n      mload(0x40)\n      tag_37\n      swap2\n      swap1\n      tag_38\n      jump\t// in\n    tag_37:\n      mload(0x40)\n      dup1\n      swap2\n      sub\n      swap1\n      return\n        /* \"workspace/4_Energy.sol\":1853:2291  function maxEnergySeller() public view returns (address) {... */\n    tag_7:\n      callvalue\n      dup1\n      iszero\n      tag_39\n      jumpi\n      revert(0x00, 0x00)\n    tag_39:\n      pop\n      tag_40\n      tag_41\n      jump\t// in\n    tag_40:\n      mload(0x40)\n      tag_42\n      swap2\n      swap1\n      tag_16\n      jump\t// in\n    tag_42:\n      mload(0x40)\n      dup1\n      swap2\n      sub\n      swap1\n      return\n        /* \"workspace/4_Energy.sol\":348:393  mapping(address => uint) public energyBalance */\n    tag_8:\n      callvalue\n      dup1\n      iszero\n      tag_43\n      jumpi\n      revert(0x00, 0x00)\n    tag_43:\n      pop\n      tag_44\n      0x04\n      dup1\n      calldatasize\n      sub\n      dup2\n      add\n      swap1\n      tag_45\n      swap2\n      swap1\n      tag_20\n      jump\t// in\n    tag_45:\n      tag_46\n      jump\t// in\n    tag_44:\n      mload(0x40)\n      tag_47\n      swap2\n      swap1\n      tag_38\n      jump\t// in\n    tag_47:\n      mload(0x40)\n      dup1\n      swap2\n      sub\n      swap1\n      return\n        /* \"workspace/4_Energy.sol\":475:504  address[] public producerList */\n    tag_14:\n      0x03\n      dup2\n      dup2\n      sload\n      dup2\n      lt\n      tag_48\n      jumpi\n      0x00\n      dup1\n      revert\n    tag_48:\n      swap1\n      0x00\n      mstore\n      keccak256(0x00, 0x20)\n      add\n      0x00\n      swap2\n      pop\n      sload\n      swap1\n      0x0100\n      exp\n      swap1\n      div\n      0xffffffffffffffffffffffffffffffffffffffff\n      and\n      dup2\n      jump\t// out\n        /* \"workspace/4_Energy.sol\":296:341  mapping(address => Producer) public producers */\n    tag_21:\n      mstore(0x20, 0x00)\n      dup1\n      0x00\n      mstore\n      keccak256(0x00, 0x40)\n      0x00\n      swap2\n      pop\n      swap1\n      pop\n      dup1\n      0x00\n      add\n      sload\n      swap1\n      dup1\n      0x01\n      add\n      sload\n      swap1\n      dup1\n      0x02\n      add\n      0x00\n      swap1\n      sload\n      swap1\n      0x0100\n      exp\n      swap1\n      div\n      0xff\n      and\n      swap1\n      dup1\n      0x02\n      add\n      0x01\n      swap1\n      sload\n      swap1\n      0x0100\n      exp\n      swap1\n      div\n      0xffffffffffffffffffffffffffffffffffffffff\n      and\n      swap1\n      pop\n      dup5\n      jump\t// out\n        /* \"workspace/4_Energy.sol\":766:1786  function buyEnergy(address _producer, uint _units) public payable {... */\n    tag_27:\n        /* \"workspace/4_Energy.sol\":843:861  Producer storage p */\n      0x00\n        /* \"workspace/4_Energy.sol\":864:873  producers */\n      0x00\n        /* \"workspace/4_Energy.sol\":864:884  producers[_producer] */\n      0x00\n        /* \"workspace/4_Energy.sol\":874:883  _producer */\n      dup5\n        /* \"workspace/4_Energy.sol\":864:884  producers[_producer] */\n      0xffffffffffffffffffffffffffffffffffffffff\n      and\n      0xffffffffffffffffffffffffffffffffffffffff\n      and\n      dup2\n      mstore\n      0x20\n      add\n      swap1\n      dup2\n      mstore\n      0x20\n      add\n      0x00\n      keccak256\n        /* \"workspace/4_Energy.sol\":843:884  Producer storage p = producers[_producer] */\n      swap1\n      pop\n        /* \"workspace/4_Energy.sol\":895:909  uint totalCost */\n      0x00\n        /* \"workspace/4_Energy.sol\":921:922  p */\n      dup2\n        /* \"workspace/4_Energy.sol\":921:935  p.pricePerUnit */\n      0x01\n      add\n      sload\n        /* \"workspace/4_Energy.sol\":912:918  _units */\n      dup4\n        /* \"workspace/4_Energy.sol\":912:935  _units * p.pricePerUnit */\n      tag_51\n      swap2\n      swap1\n      tag_52\n      jump\t// in\n    tag_51:\n        /* \"workspace/4_Energy.sol\":895:935  uint totalCost = _units * p.pricePerUnit */\n      swap1\n      pop\n        /* \"workspace/4_Energy.sol\":980:981  p */\n      dup2\n        /* \"workspace/4_Energy.sol\":980:990  p.isActive */\n      0x02\n      add\n      0x00\n      swap1\n      sload\n      swap1\n      0x0100\n      exp\n      swap1\n      div\n      0xff\n      and\n        /* \"workspace/4_Energy.sol\":972:1017  require(p.isActive, \"Producer is not active\") */\n      tag_53\n      jumpi\n      mload(0x40)\n      0x08c379a000000000000000000000000000000000000000000000000000000000\n      dup2\n      mstore\n      0x04\n      add\n      tag_54\n      swap1\n      tag_55\n      jump\t// in\n    tag_54:\n      mload(0x40)\n      dup1\n      swap2\n      sub\n      swap1\n      revert\n    tag_53:\n        /* \"workspace/4_Energy.sol\":1057:1063  _units */\n      dup3\n        /* \"workspace/4_Energy.sol\":1036:1037  p */\n      dup3\n        /* \"workspace/4_Energy.sol\":1036:1053  p.energyAvailable */\n      0x00\n      add\n      sload\n        /* \"workspace/4_Energy.sol\":1036:1063  p.energyAvailable >= _units */\n      lt\n      iszero\n        /* \"workspace/4_Energy.sol\":1028:1103  require(p.energyAvailable >= _units, \"Insufficient energy units available\") */\n      tag_56\n      jumpi\n      mload(0x40)\n      0x08c379a000000000000000000000000000000000000000000000000000000000\n      dup2\n      mstore\n      0x04\n      add\n      tag_57\n      swap1\n      tag_58\n      jump\t// in\n    tag_57:\n      mload(0x40)\n      dup1\n      swap2\n      sub\n      swap1\n      revert\n    tag_56:\n        /* \"workspace/4_Energy.sol\":1135:1144  totalCost */\n      dup1\n        /* \"workspace/4_Energy.sol\":1122:1131  msg.value */\n      callvalue\n        /* \"workspace/4_Energy.sol\":1122:1144  msg.value >= totalCost */\n      lt\n      iszero\n        /* \"workspace/4_Energy.sol\":1114:1177  require(msg.value >= totalCost, \"Insufficient payment balance\") */\n      tag_59\n      jumpi\n      mload(0x40)\n      0x08c379a000000000000000000000000000000000000000000000000000000000\n      dup2\n      mstore\n      0x04\n      add\n      tag_60\n      swap1\n      tag_61\n      jump\t// in\n    tag_60:\n      mload(0x40)\n      dup1\n      swap2\n      sub\n      swap1\n      revert\n    tag_59:\n        /* \"workspace/4_Energy.sol\":1271:1277  _units */\n      dup3\n        /* \"workspace/4_Energy.sol\":1250:1251  p */\n      dup3\n        /* \"workspace/4_Energy.sol\":1250:1267  p.energyAvailable */\n      0x00\n      add\n      0x00\n        /* \"workspace/4_Energy.sol\":1250:1277  p.energyAvailable -= _units */\n      dup3\n      dup3\n      sload\n      tag_62\n      swap2\n      swap1\n      tag_63\n      jump\t// in\n    tag_62:\n      swap3\n      pop\n      pop\n      dup2\n      swap1\n      sstore\n      pop\n        /* \"workspace/4_Energy.sol\":1317:1323  _units */\n      dup3\n        /* \"workspace/4_Energy.sol\":1288:1301  energyBalance */\n      0x01\n        /* \"workspace/4_Energy.sol\":1288:1313  energyBalance[msg.sender] */\n      0x00\n        /* \"workspace/4_Energy.sol\":1302:1312  msg.sender */\n      caller\n        /* \"workspace/4_Energy.sol\":1288:1313  energyBalance[msg.sender] */\n      0xffffffffffffffffffffffffffffffffffffffff\n      and\n      0xffffffffffffffffffffffffffffffffffffffff\n      and\n      dup2\n      mstore\n      0x20\n      add\n      swap1\n      dup2\n      mstore\n      0x20\n      add\n      0x00\n      keccak256\n      0x00\n        /* \"workspace/4_Energy.sol\":1288:1323  energyBalance[msg.sender] += _units */\n      dup3\n      dup3\n      sload\n      tag_64\n      swap2\n      swap1\n      tag_65\n      jump\t// in\n    tag_64:\n      swap3\n      pop\n      pop\n      dup2\n      swap1\n      sstore\n      pop\n        /* \"workspace/4_Energy.sol\":1384:1396  bool success */\n      0x00\n        /* \"workspace/4_Energy.sol\":1410:1419  _producer */\n      dup5\n        /* \"workspace/4_Energy.sol\":1402:1425  payable(_producer).call */\n      0xffffffffffffffffffffffffffffffffffffffff\n      and\n        /* \"workspace/4_Energy.sol\":1433:1442  totalCost */\n      dup3\n        /* \"workspace/4_Energy.sol\":1402:1447  payable(_producer).call{value: totalCost}(\"\") */\n      mload(0x40)\n      tag_66\n      swap1\n      tag_67\n      jump\t// in\n    tag_66:\n      0x00\n      mload(0x40)\n      dup1\n      dup4\n      sub\n      dup2\n      dup6\n      dup8\n      gas\n      call\n      swap3\n      pop\n      pop\n      pop\n      returndatasize\n      dup1\n      0x00\n      dup2\n      eq\n      tag_70\n      jumpi\n      mload(0x40)\n      swap2\n      pop\n      and(add(returndatasize, 0x3f), not(0x1f))\n      dup3\n      add\n      0x40\n      mstore\n      returndatasize\n      dup3\n      mstore\n      returndatasize\n      0x00\n      0x20\n      dup5\n      add\n      returndatacopy\n      jump(tag_69)\n    tag_70:\n      0x60\n      swap2\n      pop\n    tag_69:\n      pop\n        /* \"workspace/4_Energy.sol\":1383:1447  (bool success, ) = payable(_producer).call{value: totalCost}(\"\") */\n      pop\n      swap1\n      pop\n        /* \"workspace/4_Energy.sol\":1466:1473  success */\n      dup1\n        /* \"workspace/4_Energy.sol\":1458:1504  require(success, \"Payment to producer failed\") */\n      tag_71\n      jumpi\n      mload(0x40)\n      0x08c379a000000000000000000000000000000000000000000000000000000000\n      dup2\n      mstore\n      0x04\n      add\n      tag_72\n      swap1\n      tag_73\n      jump\t// in\n    tag_72:\n      mload(0x40)\n      dup1\n      swap2\n      sub\n      swap1\n      revert\n    tag_71:\n        /* \"workspace/4_Energy.sol\":1569:1578  totalCost */\n      dup2\n        /* \"workspace/4_Energy.sol\":1557:1566  msg.value */\n      callvalue\n        /* \"workspace/4_Energy.sol\":1557:1578  msg.value > totalCost */\n      gt\n        /* \"workspace/4_Energy.sol\":1553:1779  if (msg.value > totalCost) {... */\n      iszero\n      tag_74\n      jumpi\n        /* \"workspace/4_Energy.sol\":1595:1606  uint refund */\n      0x00\n        /* \"workspace/4_Energy.sol\":1621:1630  totalCost */\n      dup3\n        /* \"workspace/4_Energy.sol\":1609:1618  msg.value */\n      callvalue\n        /* \"workspace/4_Energy.sol\":1609:1630  msg.value - totalCost */\n      tag_75\n      swap2\n      swap1\n      tag_63\n      jump\t// in\n    tag_75:\n        /* \"workspace/4_Energy.sol\":1595:1630  uint refund = msg.value - totalCost */\n      swap1\n      pop\n        /* \"workspace/4_Energy.sol\":1646:1664  bool refundSuccess */\n      0x00\n        /* \"workspace/4_Energy.sol\":1678:1688  msg.sender */\n      caller\n        /* \"workspace/4_Energy.sol\":1670:1694  payable(msg.sender).call */\n      0xffffffffffffffffffffffffffffffffffffffff\n      and\n        /* \"workspace/4_Energy.sol\":1702:1708  refund */\n      dup3\n        /* \"workspace/4_Energy.sol\":1670:1713  payable(msg.sender).call{value: refund}(\"\") */\n      mload(0x40)\n      tag_76\n      swap1\n      tag_67\n      jump\t// in\n    tag_76:\n      0x00\n      mload(0x40)\n      dup1\n      dup4\n      sub\n      dup2\n      dup6\n      dup8\n      gas\n      call\n      swap3\n      pop\n      pop\n      pop\n      returndatasize\n      dup1\n      0x00\n      dup2\n      eq\n      tag_79\n      jumpi\n      mload(0x40)\n      swap2\n      pop\n      and(add(returndatasize, 0x3f), not(0x1f))\n      dup3\n      add\n      0x40\n      mstore\n      returndatasize\n      dup3\n      mstore\n      returndatasize\n      0x00\n      0x20\n      dup5\n      add\n      returndatacopy\n      jump(tag_78)\n    tag_79:\n      0x60\n      swap2\n      pop\n    tag_78:\n      pop\n        /* \"workspace/4_Energy.sol\":1645:1713  (bool refundSuccess, ) = payable(msg.sender).call{value: refund}(\"\") */\n      pop\n      swap1\n      pop\n        /* \"workspace/4_Energy.sol\":1736:1749  refundSuccess */\n      dup1\n        /* \"workspace/4_Energy.sol\":1728:1767  require(refundSuccess, \"Refund failed\") */\n      tag_80\n      jumpi\n      mload(0x40)\n      0x08c379a000000000000000000000000000000000000000000000000000000000\n      dup2\n      mstore\n      0x04\n      add\n      tag_81\n      swap1\n      tag_82\n      jump\t// in\n    tag_81:\n      mload(0x40)\n      dup1\n      swap2\n      sub\n      swap1\n      revert\n    tag_80:\n        /* \"workspace/4_Energy.sol\":1580:1779  {... */\n      pop\n      pop\n        /* \"workspace/4_Energy.sol\":1553:1779  if (msg.value > totalCost) {... */\n    tag_74:\n        /* \"workspace/4_Energy.sol\":832:1786  {... */\n      pop\n      pop\n      pop\n        /* \"workspace/4_Energy.sol\":766:1786  function buyEnergy(address _producer, uint _units) public payable {... */\n      pop\n      pop\n      jump\t// out\n        /* \"workspace/4_Energy.sol\":546:730  function registerProducer(uint _units, uint _price) public {... */\n    tag_32:\n        /* \"workspace/4_Energy.sol\":640:682  Producer(_units, _price, true, msg.sender) */\n      mload(0x40)\n      dup1\n      0x80\n      add\n      0x40\n      mstore\n      dup1\n        /* \"workspace/4_Energy.sol\":649:655  _units */\n      dup4\n        /* \"workspace/4_Energy.sol\":640:682  Producer(_units, _price, true, msg.sender) */\n      dup2\n      mstore\n      0x20\n      add\n        /* \"workspace/4_Energy.sol\":657:663  _price */\n      dup3\n        /* \"workspace/4_Energy.sol\":640:682  Producer(_units, _price, true, msg.sender) */\n      dup2\n      mstore\n      0x20\n      add\n        /* \"workspace/4_Energy.sol\":665:669  true */\n      0x01\n        /* \"workspace/4_Energy.sol\":640:682  Producer(_units, _price, true, msg.sender) */\n      iszero\n      iszero\n      dup2\n      mstore\n      0x20\n      add\n        /* \"workspace/4_Energy.sol\":671:681  msg.sender */\n      caller\n        /* \"workspace/4_Energy.sol\":640:682  Producer(_units, _price, true, msg.sender) */\n      0xffffffffffffffffffffffffffffffffffffffff\n      and\n      dup2\n      mstore\n      pop\n        /* \"workspace/4_Energy.sol\":616:625  producers */\n      0x00\n        /* \"workspace/4_Energy.sol\":616:637  producers[msg.sender] */\n      0x00\n        /* \"workspace/4_Energy.sol\":626:636  msg.sender */\n      caller\n        /* \"workspace/4_Energy.sol\":616:637  producers[msg.sender] */\n      0xffffffffffffffffffffffffffffffffffffffff\n      and\n      0xffffffffffffffffffffffffffffffffffffffff\n      and\n      dup2\n      mstore\n      0x20\n      add\n      swap1\n      dup2\n      mstore\n      0x20\n      add\n      0x00\n      keccak256\n        /* \"workspace/4_Energy.sol\":616:682  producers[msg.sender] = Producer(_units, _price, true, msg.sender) */\n      0x00\n      dup3\n      add\n      mload\n      dup2\n      0x00\n      add\n      sstore\n      0x20\n      dup3\n      add\n      mload\n      dup2\n      0x01\n      add\n      sstore\n      0x40\n      dup3\n      add\n      mload\n      dup2\n      0x02\n      add\n      exp(0x0100, 0x00)\n      dup2\n      sload\n      dup2\n      0xff\n      mul\n      not\n      and\n      swap1\n      dup4\n      iszero\n      iszero\n      mul\n      or\n      swap1\n      sstore\n      pop\n      0x60\n      dup3\n      add\n      mload\n      dup2\n      0x02\n      add\n      exp(0x0100, 0x01)\n      dup2\n      sload\n      dup2\n      0xffffffffffffffffffffffffffffffffffffffff\n      mul\n      not\n      and\n      swap1\n      dup4\n      0xffffffffffffffffffffffffffffffffffffffff\n      and\n      mul\n      or\n      swap1\n      sstore\n      pop\n      swap1\n      pop\n      pop\n        /* \"workspace/4_Energy.sol\":693:705  producerList */\n      0x03\n        /* \"workspace/4_Energy.sol\":711:721  msg.sender */\n      caller\n        /* \"workspace/4_Energy.sol\":693:722  producerList.push(msg.sender) */\n      swap1\n      dup1\n      0x01\n      dup2\n      sload\n      add\n      dup1\n      dup3\n      sstore\n      dup1\n      swap2\n      pop\n      pop\n      0x01\n      swap1\n      sub\n      swap1\n      0x00\n      mstore\n      keccak256(0x00, 0x20)\n      add\n      0x00\n      swap1\n      swap2\n      swap1\n      swap2\n      swap1\n      swap2\n      0x0100\n      exp\n      dup2\n      sload\n      dup2\n      0xffffffffffffffffffffffffffffffffffffffff\n      mul\n      not\n      and\n      swap1\n      dup4\n      0xffffffffffffffffffffffffffffffffffffffff\n      and\n      mul\n      or\n      swap1\n      sstore\n      pop\n        /* \"workspace/4_Energy.sol\":546:730  function registerProducer(uint _units, uint _price) public {... */\n      pop\n      pop\n      jump\t// out\n        /* \"workspace/4_Energy.sol\":420:465  mapping(address => uint) public energyCredits */\n    tag_36:\n      mstore(0x20, 0x02)\n      dup1\n      0x00\n      mstore\n      keccak256(0x00, 0x40)\n      0x00\n      swap2\n      pop\n      swap1\n      pop\n      sload\n      dup2\n      jump\t// out\n        /* \"workspace/4_Energy.sol\":1853:2291  function maxEnergySeller() public view returns (address) {... */\n    tag_41:\n        /* \"workspace/4_Energy.sol\":1901:1908  address */\n      0x00\n        /* \"workspace/4_Energy.sol\":1948:1949  0 */\n      0x00\n        /* \"workspace/4_Energy.sol\":1925:1937  producerList */\n      0x03\n        /* \"workspace/4_Energy.sol\":1925:1944  producerList.length */\n      dup1\n      sload\n      swap1\n      pop\n        /* \"workspace/4_Energy.sol\":1925:1949  producerList.length == 0 */\n      sub\n        /* \"workspace/4_Energy.sol\":1921:1968  if (producerList.length == 0) return address(0) */\n      tag_86\n      jumpi\n        /* \"workspace/4_Energy.sol\":1966:1967  0 */\n      0x00\n        /* \"workspace/4_Energy.sol\":1951:1968  return address(0) */\n      swap1\n      pop\n      jump(tag_85)\n        /* \"workspace/4_Energy.sol\":1921:1968  if (producerList.length == 0) return address(0) */\n    tag_86:\n        /* \"workspace/4_Energy.sol\":1989:2006  address topSeller */\n      0x00\n        /* \"workspace/4_Energy.sol\":2009:2021  producerList */\n      0x03\n        /* \"workspace/4_Energy.sol\":2022:2023  0 */\n      0x00\n        /* \"workspace/4_Energy.sol\":2009:2024  producerList[0] */\n      dup2\n      sload\n      dup2\n      lt\n      tag_87\n      jumpi\n      tag_88\n      tag_89\n      jump\t// in\n    tag_88:\n    tag_87:\n      swap1\n      0x00\n      mstore\n      keccak256(0x00, 0x20)\n      add\n      0x00\n      swap1\n      sload\n      swap1\n      0x0100\n      exp\n      swap1\n      div\n      0xffffffffffffffffffffffffffffffffffffffff\n      and\n        /* \"workspace/4_Energy.sol\":1989:2024  address topSeller = producerList[0] */\n      swap1\n      pop\n        /* \"workspace/4_Energy.sol\":2040:2046  uint i */\n      0x00\n        /* \"workspace/4_Energy.sol\":2049:2050  1 */\n      0x01\n        /* \"workspace/4_Energy.sol\":2040:2050  uint i = 1 */\n      swap1\n      pop\n        /* \"workspace/4_Energy.sol\":2035:2257  for (uint i = 1; i < producerList.length; i++) {... */\n    tag_91:\n        /* \"workspace/4_Energy.sol\":2056:2068  producerList */\n      0x03\n        /* \"workspace/4_Energy.sol\":2056:2075  producerList.length */\n      dup1\n      sload\n      swap1\n      pop\n        /* \"workspace/4_Energy.sol\":2052:2053  i */\n      dup2\n        /* \"workspace/4_Energy.sol\":2052:2075  i < producerList.length */\n      lt\n        /* \"workspace/4_Energy.sol\":2035:2257  for (uint i = 1; i < producerList.length; i++) {... */\n      iszero\n      tag_92\n      jumpi\n        /* \"workspace/4_Energy.sol\":2146:2155  producers */\n      0x00\n        /* \"workspace/4_Energy.sol\":2146:2166  producers[topSeller] */\n      0x00\n        /* \"workspace/4_Energy.sol\":2156:2165  topSeller */\n      dup4\n        /* \"workspace/4_Energy.sol\":2146:2166  producers[topSeller] */\n      0xffffffffffffffffffffffffffffffffffffffff\n      and\n      0xffffffffffffffffffffffffffffffffffffffff\n      and\n      dup2\n      mstore\n      0x20\n      add\n      swap1\n      dup2\n      mstore\n      0x20\n      add\n      0x00\n      keccak256\n        /* \"workspace/4_Energy.sol\":2146:2182  producers[topSeller].energyAvailable */\n      0x00\n      add\n      sload\n        /* \"workspace/4_Energy.sol\":2101:2110  producers */\n      0x00\n        /* \"workspace/4_Energy.sol\":2101:2127  producers[producerList[i]] */\n      0x00\n        /* \"workspace/4_Energy.sol\":2111:2123  producerList */\n      0x03\n        /* \"workspace/4_Energy.sol\":2124:2125  i */\n      dup5\n        /* \"workspace/4_Energy.sol\":2111:2126  producerList[i] */\n      dup2\n      sload\n      dup2\n      lt\n      tag_94\n      jumpi\n      tag_95\n      tag_89\n      jump\t// in\n    tag_95:\n    tag_94:\n      swap1\n      0x00\n      mstore\n      keccak256(0x00, 0x20)\n      add\n      0x00\n      swap1\n      sload\n      swap1\n      0x0100\n      exp\n      swap1\n      div\n      0xffffffffffffffffffffffffffffffffffffffff\n      and\n        /* \"workspace/4_Energy.sol\":2101:2127  producers[producerList[i]] */\n      0xffffffffffffffffffffffffffffffffffffffff\n      and\n      0xffffffffffffffffffffffffffffffffffffffff\n      and\n      dup2\n      mstore\n      0x20\n      add\n      swap1\n      dup2\n      mstore\n      0x20\n      add\n      0x00\n      keccak256\n        /* \"workspace/4_Energy.sol\":2101:2143  producers[producerList[i]].energyAvailable */\n      0x00\n      add\n      sload\n        /* \"workspace/4_Energy.sol\":2101:2182  producers[producerList[i]].energyAvailable > producers[topSeller].energyAvailable */\n      gt\n        /* \"workspace/4_Energy.sol\":2097:2246  if (producers[producerList[i]].energyAvailable > producers[topSeller].energyAvailable) {... */\n      iszero\n      tag_97\n      jumpi\n        /* \"workspace/4_Energy.sol\":2215:2227  producerList */\n      0x03\n        /* \"workspace/4_Energy.sol\":2228:2229  i */\n      dup2\n        /* \"workspace/4_Energy.sol\":2215:2230  producerList[i] */\n      dup2\n      sload\n      dup2\n      lt\n      tag_98\n      jumpi\n      tag_99\n      tag_89\n      jump\t// in\n    tag_99:\n    tag_98:\n      swap1\n      0x00\n      mstore\n      keccak256(0x00, 0x20)\n      add\n      0x00\n      swap1\n      sload\n      swap1\n      0x0100\n      exp\n      swap1\n      div\n      0xffffffffffffffffffffffffffffffffffffffff\n      and\n        /* \"workspace/4_Energy.sol\":2203:2230  topSeller = producerList[i] */\n      swap2\n      pop\n        /* \"workspace/4_Energy.sol\":2097:2246  if (producers[producerList[i]].energyAvailable > producers[topSeller].energyAvailable) {... */\n    tag_97:\n        /* \"workspace/4_Energy.sol\":2077:2080  i++ */\n      dup1\n      dup1\n      0x01\n      add\n      swap2\n      pop\n      pop\n        /* \"workspace/4_Energy.sol\":2035:2257  for (uint i = 1; i < producerList.length; i++) {... */\n      jump(tag_91)\n    tag_92:\n      pop\n        /* \"workspace/4_Energy.sol\":2274:2283  topSeller */\n      dup1\n        /* \"workspace/4_Energy.sol\":2267:2283  return topSeller */\n      swap2\n      pop\n      pop\n        /* \"workspace/4_Energy.sol\":1853:2291  function maxEnergySeller() public view returns (address) {... */\n    tag_85:\n      swap1\n      jump\t// out\n        /* \"workspace/4_Energy.sol\":348:393  mapping(address => uint) public energyBalance */\n    tag_46:\n      mstore(0x20, 0x01)\n      dup1\n      0x00\n      mstore\n      keccak256(0x00, 0x40)\n      0x00\n      swap2\n      pop\n      swap1\n      pop\n      sload\n      dup2\n      jump\t// out\n        /* \"#utility.yul\":88:205   */\n    tag_102:\n        /* \"#utility.yul\":197:198   */\n      0x00\n        /* \"#utility.yul\":194:195   */\n      0x00\n        /* \"#utility.yul\":187:199   */\n      revert\n        /* \"#utility.yul\":334:411   */\n    tag_104:\n        /* \"#utility.yul\":371:378   */\n      0x00\n        /* \"#utility.yul\":400:405   */\n      dup2\n        /* \"#utility.yul\":389:405   */\n      swap1\n      pop\n        /* \"#utility.yul\":334:411   */\n      swap2\n      swap1\n      pop\n      jump\t// out\n        /* \"#utility.yul\":417:539   */\n    tag_105:\n        /* \"#utility.yul\":490:514   */\n      tag_136\n        /* \"#utility.yul\":508:513   */\n      dup2\n        /* \"#utility.yul\":490:514   */\n      tag_104\n      jump\t// in\n    tag_136:\n        /* \"#utility.yul\":483:488   */\n      dup2\n        /* \"#utility.yul\":480:515   */\n      eq\n        /* \"#utility.yul\":470:533   */\n      tag_137\n      jumpi\n        /* \"#utility.yul\":529:530   */\n      0x00\n        /* \"#utility.yul\":526:527   */\n      0x00\n        /* \"#utility.yul\":519:531   */\n      revert\n        /* \"#utility.yul\":470:533   */\n    tag_137:\n        /* \"#utility.yul\":417:539   */\n      pop\n      jump\t// out\n        /* \"#utility.yul\":545:684   */\n    tag_106:\n        /* \"#utility.yul\":591:596   */\n      0x00\n        /* \"#utility.yul\":629:635   */\n      dup2\n        /* \"#utility.yul\":616:636   */\n      calldataload\n        /* \"#utility.yul\":607:636   */\n      swap1\n      pop\n        /* \"#utility.yul\":645:678   */\n      tag_139\n        /* \"#utility.yul\":672:677   */\n      dup2\n        /* \"#utility.yul\":645:678   */\n      tag_105\n      jump\t// in\n    tag_139:\n        /* \"#utility.yul\":545:684   */\n      swap3\n      swap2\n      pop\n      pop\n      jump\t// out\n        /* \"#utility.yul\":690:1019   */\n    tag_13:\n        /* \"#utility.yul\":749:755   */\n      0x00\n        /* \"#utility.yul\":798:800   */\n      0x20\n        /* \"#utility.yul\":786:795   */\n      dup3\n        /* \"#utility.yul\":777:784   */\n      dup5\n        /* \"#utility.yul\":773:796   */\n      sub\n        /* \"#utility.yul\":769:801   */\n      slt\n        /* \"#utility.yul\":766:885   */\n      iszero\n      tag_141\n      jumpi\n        /* \"#utility.yul\":804:883   */\n      tag_142\n      tag_102\n      jump\t// in\n    tag_142:\n        /* \"#utility.yul\":766:885   */\n    tag_141:\n        /* \"#utility.yul\":924:925   */\n      0x00\n        /* \"#utility.yul\":949:1002   */\n      tag_143\n        /* \"#utility.yul\":994:1001   */\n      dup5\n        /* \"#utility.yul\":985:991   */\n      dup3\n        /* \"#utility.yul\":974:983   */\n      dup6\n        /* \"#utility.yul\":970:992   */\n      add\n        /* \"#utility.yul\":949:1002   */\n      tag_106\n      jump\t// in\n    tag_143:\n        /* \"#utility.yul\":939:1002   */\n      swap2\n      pop\n        /* \"#utility.yul\":895:1012   */\n      pop\n        /* \"#utility.yul\":690:1019   */\n      swap3\n      swap2\n      pop\n      pop\n      jump\t// out\n        /* \"#utility.yul\":1025:1151   */\n    tag_107:\n        /* \"#utility.yul\":1062:1069   */\n      0x00\n        /* \"#utility.yul\":1102:1144   */\n      0xffffffffffffffffffffffffffffffffffffffff\n        /* \"#utility.yul\":1095:1100   */\n      dup3\n        /* \"#utility.yul\":1091:1145   */\n      and\n        /* \"#utility.yul\":1080:1145   */\n      swap1\n      pop\n        /* \"#utility.yul\":1025:1151   */\n      swap2\n      swap1\n      pop\n      jump\t// out\n        /* \"#utility.yul\":1157:1253   */\n    tag_108:\n        /* \"#utility.yul\":1194:1201   */\n      0x00\n        /* \"#utility.yul\":1223:1247   */\n      tag_146\n        /* \"#utility.yul\":1241:1246   */\n      dup3\n        /* \"#utility.yul\":1223:1247   */\n      tag_107\n      jump\t// in\n    tag_146:\n        /* \"#utility.yul\":1212:1247   */\n      swap1\n      pop\n        /* \"#utility.yul\":1157:1253   */\n      swap2\n      swap1\n      pop\n      jump\t// out\n        /* \"#utility.yul\":1259:1377   */\n    tag_109:\n        /* \"#utility.yul\":1346:1370   */\n      tag_148\n        /* \"#utility.yul\":1364:1369   */\n      dup2\n        /* \"#utility.yul\":1346:1370   */\n      tag_108\n      jump\t// in\n    tag_148:\n        /* \"#utility.yul\":1341:1344   */\n      dup3\n        /* \"#utility.yul\":1334:1371   */\n      mstore\n        /* \"#utility.yul\":1259:1377   */\n      pop\n      pop\n      jump\t// out\n        /* \"#utility.yul\":1383:1605   */\n    tag_16:\n        /* \"#utility.yul\":1476:1480   */\n      0x00\n        /* \"#utility.yul\":1514:1516   */\n      0x20\n        /* \"#utility.yul\":1503:1512   */\n      dup3\n        /* \"#utility.yul\":1499:1517   */\n      add\n        /* \"#utility.yul\":1491:1517   */\n      swap1\n      pop\n        /* \"#utility.yul\":1527:1598   */\n      tag_150\n        /* \"#utility.yul\":1595:1596   */\n      0x00\n        /* \"#utility.yul\":1584:1593   */\n      dup4\n        /* \"#utility.yul\":1580:1597   */\n      add\n        /* \"#utility.yul\":1571:1577   */\n      dup5\n        /* \"#utility.yul\":1527:1598   */\n      tag_109\n      jump\t// in\n    tag_150:\n        /* \"#utility.yul\":1383:1605   */\n      swap3\n      swap2\n      pop\n      pop\n      jump\t// out\n        /* \"#utility.yul\":1611:1733   */\n    tag_110:\n        /* \"#utility.yul\":1684:1708   */\n      tag_152\n        /* \"#utility.yul\":1702:1707   */\n      dup2\n        /* \"#utility.yul\":1684:1708   */\n      tag_108\n      jump\t// in\n    tag_152:\n        /* \"#utility.yul\":1677:1682   */\n      dup2\n        /* \"#utility.yul\":1674:1709   */\n      eq\n        /* \"#utility.yul\":1664:1727   */\n      tag_153\n      jumpi\n        /* \"#utility.yul\":1723:1724   */\n      0x00\n        /* \"#utility.yul\":1720:1721   */\n      0x00\n        /* \"#utility.yul\":1713:1725   */\n      revert\n        /* \"#utility.yul\":1664:1727   */\n    tag_153:\n        /* \"#utility.yul\":1611:1733   */\n      pop\n      jump\t// out\n        /* \"#utility.yul\":1739:1878   */\n    tag_111:\n        /* \"#utility.yul\":1785:1790   */\n      0x00\n        /* \"#utility.yul\":1823:1829   */\n      dup2\n        /* \"#utility.yul\":1810:1830   */\n      calldataload\n        /* \"#utility.yul\":1801:1830   */\n      swap1\n      pop\n        /* \"#utility.yul\":1839:1872   */\n      tag_155\n        /* \"#utility.yul\":1866:1871   */\n      dup2\n        /* \"#utility.yul\":1839:1872   */\n      tag_110\n      jump\t// in\n    tag_155:\n        /* \"#utility.yul\":1739:1878   */\n      swap3\n      swap2\n      pop\n      pop\n      jump\t// out\n        /* \"#utility.yul\":1884:2213   */\n    tag_20:\n        /* \"#utility.yul\":1943:1949   */\n      0x00\n        /* \"#utility.yul\":1992:1994   */\n      0x20\n        /* \"#utility.yul\":1980:1989   */\n      dup3\n        /* \"#utility.yul\":1971:1978   */\n      dup5\n        /* \"#utility.yul\":1967:1990   */\n      sub\n        /* \"#utility.yul\":1963:1995   */\n      slt\n        /* \"#utility.yul\":1960:2079   */\n      iszero\n      tag_157\n      jumpi\n        /* \"#utility.yul\":1998:2077   */\n      tag_158\n      tag_102\n      jump\t// in\n    tag_158:\n        /* \"#utility.yul\":1960:2079   */\n    tag_157:\n        /* \"#utility.yul\":2118:2119   */\n      0x00\n        /* \"#utility.yul\":2143:2196   */\n      tag_159\n        /* \"#utility.yul\":2188:2195   */\n      dup5\n        /* \"#utility.yul\":2179:2185   */\n      dup3\n        /* \"#utility.yul\":2168:2177   */\n      dup6\n        /* \"#utility.yul\":2164:2186   */\n      add\n        /* \"#utility.yul\":2143:2196   */\n      tag_111\n      jump\t// in\n    tag_159:\n        /* \"#utility.yul\":2133:2196   */\n      swap2\n      pop\n        /* \"#utility.yul\":2089:2206   */\n      pop\n        /* \"#utility.yul\":1884:2213   */\n      swap3\n      swap2\n      pop\n      pop\n      jump\t// out\n        /* \"#utility.yul\":2219:2337   */\n    tag_112:\n        /* \"#utility.yul\":2306:2330   */\n      tag_161\n        /* \"#utility.yul\":2324:2329   */\n      dup2\n        /* \"#utility.yul\":2306:2330   */\n      tag_104\n      jump\t// in\n    tag_161:\n        /* \"#utility.yul\":2301:2304   */\n      dup3\n        /* \"#utility.yul\":2294:2331   */\n      mstore\n        /* \"#utility.yul\":2219:2337   */\n      pop\n      pop\n      jump\t// out\n        /* \"#utility.yul\":2343:2433   */\n    tag_113:\n        /* \"#utility.yul\":2377:2384   */\n      0x00\n        /* \"#utility.yul\":2420:2425   */\n      dup2\n        /* \"#utility.yul\":2413:2426   */\n      iszero\n        /* \"#utility.yul\":2406:2427   */\n      iszero\n        /* \"#utility.yul\":2395:2427   */\n      swap1\n      pop\n        /* \"#utility.yul\":2343:2433   */\n      swap2\n      swap1\n      pop\n      jump\t// out\n        /* \"#utility.yul\":2439:2548   */\n    tag_114:\n        /* \"#utility.yul\":2520:2541   */\n      tag_164\n        /* \"#utility.yul\":2535:2540   */\n      dup2\n        /* \"#utility.yul\":2520:2541   */\n      tag_113\n      jump\t// in\n    tag_164:\n        /* \"#utility.yul\":2515:2518   */\n      dup3\n        /* \"#utility.yul\":2508:2542   */\n      mstore\n        /* \"#utility.yul\":2439:2548   */\n      pop\n      pop\n      jump\t// out\n        /* \"#utility.yul\":2554:3095   */\n    tag_23:\n        /* \"#utility.yul\":2725:2729   */\n      0x00\n        /* \"#utility.yul\":2763:2766   */\n      0x80\n        /* \"#utility.yul\":2752:2761   */\n      dup3\n        /* \"#utility.yul\":2748:2767   */\n      add\n        /* \"#utility.yul\":2740:2767   */\n      swap1\n      pop\n        /* \"#utility.yul\":2777:2848   */\n      tag_166\n        /* \"#utility.yul\":2845:2846   */\n      0x00\n        /* \"#utility.yul\":2834:2843   */\n      dup4\n        /* \"#utility.yul\":2830:2847   */\n      add\n        /* \"#utility.yul\":2821:2827   */\n      dup8\n        /* \"#utility.yul\":2777:2848   */\n      tag_112\n      jump\t// in\n    tag_166:\n        /* \"#utility.yul\":2858:2930   */\n      tag_167\n        /* \"#utility.yul\":2926:2928   */\n      0x20\n        /* \"#utility.yul\":2915:2924   */\n      dup4\n        /* \"#utility.yul\":2911:2929   */\n      add\n        /* \"#utility.yul\":2902:2908   */\n      dup7\n        /* \"#utility.yul\":2858:2930   */\n      tag_112\n      jump\t// in\n    tag_167:\n        /* \"#utility.yul\":2940:3006   */\n      tag_168\n        /* \"#utility.yul\":3002:3004   */\n      0x40\n        /* \"#utility.yul\":2991:3000   */\n      dup4\n        /* \"#utility.yul\":2987:3005   */\n      add\n        /* \"#utility.yul\":2978:2984   */\n      dup6\n        /* \"#utility.yul\":2940:3006   */\n      tag_114\n      jump\t// in\n    tag_168:\n        /* \"#utility.yul\":3016:3088   */\n      tag_169\n        /* \"#utility.yul\":3084:3086   */\n      0x60\n        /* \"#utility.yul\":3073:3082   */\n      dup4\n        /* \"#utility.yul\":3069:3087   */\n      add\n        /* \"#utility.yul\":3060:3066   */\n      dup5\n        /* \"#utility.yul\":3016:3088   */\n      tag_109\n      jump\t// in\n    tag_169:\n        /* \"#utility.yul\":2554:3095   */\n      swap6\n      swap5\n      pop\n      pop\n      pop\n      pop\n      pop\n      jump\t// out\n        /* \"#utility.yul\":3101:3575   */\n    tag_26:\n        /* \"#utility.yul\":3169:3175   */\n      0x00\n        /* \"#utility.yul\":3177:3183   */\n      0x00\n        /* \"#utility.yul\":3226:3228   */\n      0x40\n        /* \"#utility.yul\":3214:3223   */\n      dup4\n        /* \"#utility.yul\":3205:3212   */\n      dup6\n        /* \"#utility.yul\":3201:3224   */\n      sub\n        /* \"#utility.yul\":3197:3229   */\n      slt\n        /* \"#utility.yul\":3194:3313   */\n      iszero\n      tag_171\n      jumpi\n        /* \"#utility.yul\":3232:3311   */\n      tag_172\n      tag_102\n      jump\t// in\n    tag_172:\n        /* \"#utility.yul\":3194:3313   */\n    tag_171:\n        /* \"#utility.yul\":3352:3353   */\n      0x00\n        /* \"#utility.yul\":3377:3430   */\n      tag_173\n        /* \"#utility.yul\":3422:3429   */\n      dup6\n        /* \"#utility.yul\":3413:3419   */\n      dup3\n        /* \"#utility.yul\":3402:3411   */\n      dup7\n        /* \"#utility.yul\":3398:3420   */\n      add\n        /* \"#utility.yul\":3377:3430   */\n      tag_111\n      jump\t// in\n    tag_173:\n        /* \"#utility.yul\":3367:3430   */\n      swap3\n      pop\n        /* \"#utility.yul\":3323:3440   */\n      pop\n        /* \"#utility.yul\":3479:3481   */\n      0x20\n        /* \"#utility.yul\":3505:3558   */\n      tag_174\n        /* \"#utility.yul\":3550:3557   */\n      dup6\n        /* \"#utility.yul\":3541:3547   */\n      dup3\n        /* \"#utility.yul\":3530:3539   */\n      dup7\n        /* \"#utility.yul\":3526:3548   */\n      add\n        /* \"#utility.yul\":3505:3558   */\n      tag_106\n      jump\t// in\n    tag_174:\n        /* \"#utility.yul\":3495:3558   */\n      swap2\n      pop\n        /* \"#utility.yul\":3450:3568   */\n      pop\n        /* \"#utility.yul\":3101:3575   */\n      swap3\n      pop\n      swap3\n      swap1\n      pop\n      jump\t// out\n        /* \"#utility.yul\":3581:4055   */\n    tag_31:\n        /* \"#utility.yul\":3649:3655   */\n      0x00\n        /* \"#utility.yul\":3657:3663   */\n      0x00\n        /* \"#utility.yul\":3706:3708   */\n      0x40\n        /* \"#utility.yul\":3694:3703   */\n      dup4\n        /* \"#utility.yul\":3685:3692   */\n      dup6\n        /* \"#utility.yul\":3681:3704   */\n      sub\n        /* \"#utility.yul\":3677:3709   */\n      slt\n        /* \"#utility.yul\":3674:3793   */\n      iszero\n      tag_176\n      jumpi\n        /* \"#utility.yul\":3712:3791   */\n      tag_177\n      tag_102\n      jump\t// in\n    tag_177:\n        /* \"#utility.yul\":3674:3793   */\n    tag_176:\n        /* \"#utility.yul\":3832:3833   */\n      0x00\n        /* \"#utility.yul\":3857:3910   */\n      tag_178\n        /* \"#utility.yul\":3902:3909   */\n      dup6\n        /* \"#utility.yul\":3893:3899   */\n      dup3\n        /* \"#utility.yul\":3882:3891   */\n      dup7\n        /* \"#utility.yul\":3878:3900   */\n      add\n        /* \"#utility.yul\":3857:3910   */\n      tag_106\n      jump\t// in\n    tag_178:\n        /* \"#utility.yul\":3847:3910   */\n      swap3\n      pop\n        /* \"#utility.yul\":3803:3920   */\n      pop\n        /* \"#utility.yul\":3959:3961   */\n      0x20\n        /* \"#utility.yul\":3985:4038   */\n      tag_179\n        /* \"#utility.yul\":4030:4037   */\n      dup6\n        /* \"#utility.yul\":4021:4027   */\n      dup3\n        /* \"#utility.yul\":4010:4019   */\n      dup7\n        /* \"#utility.yul\":4006:4028   */\n      add\n        /* \"#utility.yul\":3985:4038   */\n      tag_106\n      jump\t// in\n    tag_179:\n        /* \"#utility.yul\":3975:4038   */\n      swap2\n      pop\n        /* \"#utility.yul\":3930:4048   */\n      pop\n        /* \"#utility.yul\":3581:4055   */\n      swap3\n      pop\n      swap3\n      swap1\n      pop\n      jump\t// out\n        /* \"#utility.yul\":4061:4283   */\n    tag_38:\n        /* \"#utility.yul\":4154:4158   */\n      0x00\n        /* \"#utility.yul\":4192:4194   */\n      0x20\n        /* \"#utility.yul\":4181:4190   */\n      dup3\n        /* \"#utility.yul\":4177:4195   */\n      add\n        /* \"#utility.yul\":4169:4195   */\n      swap1\n      pop\n        /* \"#utility.yul\":4205:4276   */\n      tag_181\n        /* \"#utility.yul\":4273:4274   */\n      0x00\n        /* \"#utility.yul\":4262:4271   */\n      dup4\n        /* \"#utility.yul\":4258:4275   */\n      add\n        /* \"#utility.yul\":4249:4255   */\n      dup5\n        /* \"#utility.yul\":4205:4276   */\n      tag_112\n      jump\t// in\n    tag_181:\n        /* \"#utility.yul\":4061:4283   */\n      swap3\n      swap2\n      pop\n      pop\n      jump\t// out\n        /* \"#utility.yul\":4289:4469   */\n    tag_115:\n        /* \"#utility.yul\":4337:4414   */\n      0x4e487b7100000000000000000000000000000000000000000000000000000000\n        /* \"#utility.yul\":4334:4335   */\n      0x00\n        /* \"#utility.yul\":4327:4415   */\n      mstore\n        /* \"#utility.yul\":4434:4438   */\n      0x11\n        /* \"#utility.yul\":4431:4432   */\n      0x04\n        /* \"#utility.yul\":4424:4439   */\n      mstore\n        /* \"#utility.yul\":4458:4462   */\n      0x24\n        /* \"#utility.yul\":4455:4456   */\n      0x00\n        /* \"#utility.yul\":4448:4463   */\n      revert\n        /* \"#utility.yul\":4475:4885   */\n    tag_52:\n        /* \"#utility.yul\":4515:4522   */\n      0x00\n        /* \"#utility.yul\":4538:4558   */\n      tag_184\n        /* \"#utility.yul\":4556:4557   */\n      dup3\n        /* \"#utility.yul\":4538:4558   */\n      tag_104\n      jump\t// in\n    tag_184:\n        /* \"#utility.yul\":4533:4558   */\n      swap2\n      pop\n        /* \"#utility.yul\":4572:4592   */\n      tag_185\n        /* \"#utility.yul\":4590:4591   */\n      dup4\n        /* \"#utility.yul\":4572:4592   */\n      tag_104\n      jump\t// in\n    tag_185:\n        /* \"#utility.yul\":4567:4592   */\n      swap3\n      pop\n        /* \"#utility.yul\":4627:4628   */\n      dup3\n        /* \"#utility.yul\":4624:4625   */\n      dup3\n        /* \"#utility.yul\":4620:4629   */\n      mul\n        /* \"#utility.yul\":4649:4679   */\n      tag_186\n        /* \"#utility.yul\":4667:4678   */\n      dup2\n        /* \"#utility.yul\":4649:4679   */\n      tag_104\n      jump\t// in\n    tag_186:\n        /* \"#utility.yul\":4638:4679   */\n      swap2\n      pop\n        /* \"#utility.yul\":4828:4829   */\n      dup3\n        /* \"#utility.yul\":4819:4826   */\n      dup3\n        /* \"#utility.yul\":4815:4830   */\n      div\n        /* \"#utility.yul\":4812:4813   */\n      dup5\n        /* \"#utility.yul\":4809:4831   */\n      eq\n        /* \"#utility.yul\":4789:4790   */\n      dup4\n        /* \"#utility.yul\":4782:4791   */\n      iszero\n        /* \"#utility.yul\":4762:4845   */\n      or\n        /* \"#utility.yul\":4739:4878   */\n      tag_187\n      jumpi\n        /* \"#utility.yul\":4858:4876   */\n      tag_188\n      tag_115\n      jump\t// in\n    tag_188:\n        /* \"#utility.yul\":4739:4878   */\n    tag_187:\n        /* \"#utility.yul\":4523:4885   */\n      pop\n        /* \"#utility.yul\":4475:4885   */\n      swap3\n      swap2\n      pop\n      pop\n      jump\t// out\n        /* \"#utility.yul\":4891:5060   */\n    tag_116:\n        /* \"#utility.yul\":4975:4986   */\n      0x00\n        /* \"#utility.yul\":5009:5015   */\n      dup3\n        /* \"#utility.yul\":5004:5007   */\n      dup3\n        /* \"#utility.yul\":4997:5016   */\n      mstore\n        /* \"#utility.yul\":5049:5053   */\n      0x20\n        /* \"#utility.yul\":5044:5047   */\n      dup3\n        /* \"#utility.yul\":5040:5054   */\n      add\n        /* \"#utility.yul\":5025:5054   */\n      swap1\n      pop\n        /* \"#utility.yul\":4891:5060   */\n      swap3\n      swap2\n      pop\n      pop\n      jump\t// out\n        /* \"#utility.yul\":5066:5238   */\n    tag_117:\n        /* \"#utility.yul\":5206:5230   */\n      0x50726f6475636572206973206e6f742061637469766500000000000000000000\n        /* \"#utility.yul\":5202:5203   */\n      0x00\n        /* \"#utility.yul\":5194:5200   */\n      dup3\n        /* \"#utility.yul\":5190:5204   */\n      add\n        /* \"#utility.yul\":5183:5231   */\n      mstore\n        /* \"#utility.yul\":5066:5238   */\n      pop\n      jump\t// out\n        /* \"#utility.yul\":5244:5610   */\n    tag_118:\n        /* \"#utility.yul\":5386:5389   */\n      0x00\n        /* \"#utility.yul\":5407:5474   */\n      tag_192\n        /* \"#utility.yul\":5471:5473   */\n      0x16\n        /* \"#utility.yul\":5466:5469   */\n      dup4\n        /* \"#utility.yul\":5407:5474   */\n      tag_116\n      jump\t// in\n    tag_192:\n        /* \"#utility.yul\":5400:5474   */\n      swap2\n      pop\n        /* \"#utility.yul\":5483:5576   */\n      tag_193\n        /* \"#utility.yul\":5572:5575   */\n      dup3\n        /* \"#utility.yul\":5483:5576   */\n      tag_117\n      jump\t// in\n    tag_193:\n        /* \"#utility.yul\":5601:5603   */\n      0x20\n        /* \"#utility.yul\":5596:5599   */\n      dup3\n        /* \"#utility.yul\":5592:5604   */\n      add\n        /* \"#utility.yul\":5585:5604   */\n      swap1\n      pop\n        /* \"#utility.yul\":5244:5610   */\n      swap2\n      swap1\n      pop\n      jump\t// out\n        /* \"#utility.yul\":5616:6035   */\n    tag_55:\n        /* \"#utility.yul\":5782:5786   */\n      0x00\n        /* \"#utility.yul\":5820:5822   */\n      0x20\n        /* \"#utility.yul\":5809:5818   */\n      dup3\n        /* \"#utility.yul\":5805:5823   */\n      add\n        /* \"#utility.yul\":5797:5823   */\n      swap1\n      pop\n        /* \"#utility.yul\":5869:5878   */\n      dup2\n        /* \"#utility.yul\":5863:5867   */\n      dup2\n        /* \"#utility.yul\":5859:5879   */\n      sub\n        /* \"#utility.yul\":5855:5856   */\n      0x00\n        /* \"#utility.yul\":5844:5853   */\n      dup4\n        /* \"#utility.yul\":5840:5857   */\n      add\n        /* \"#utility.yul\":5833:5880   */\n      mstore\n        /* \"#utility.yul\":5897:6028   */\n      tag_195\n        /* \"#utility.yul\":6023:6027   */\n      dup2\n        /* \"#utility.yul\":5897:6028   */\n      tag_118\n      jump\t// in\n    tag_195:\n        /* \"#utility.yul\":5889:6028   */\n      swap1\n      pop\n        /* \"#utility.yul\":5616:6035   */\n      swap2\n      swap1\n      pop\n      jump\t// out\n        /* \"#utility.yul\":6041:6263   */\n    tag_119:\n        /* \"#utility.yul\":6181:6215   */\n      0x496e73756666696369656e7420656e6572677920756e69747320617661696c61\n        /* \"#utility.yul\":6177:6178   */\n      0x00\n        /* \"#utility.yul\":6169:6175   */\n      dup3\n        /* \"#utility.yul\":6165:6179   */\n      add\n        /* \"#utility.yul\":6158:6216   */\n      mstore\n        /* \"#utility.yul\":6250:6255   */\n      0x626c650000000000000000000000000000000000000000000000000000000000\n        /* \"#utility.yul\":6245:6247   */\n      0x20\n        /* \"#utility.yul\":6237:6243   */\n      dup3\n        /* \"#utility.yul\":6233:6248   */\n      add\n        /* \"#utility.yul\":6226:6256   */\n      mstore\n        /* \"#utility.yul\":6041:6263   */\n      pop\n      jump\t// out\n        /* \"#utility.yul\":6269:6635   */\n    tag_120:\n        /* \"#utility.yul\":6411:6414   */\n      0x00\n        /* \"#utility.yul\":6432:6499   */\n      tag_198\n        /* \"#utility.yul\":6496:6498   */\n      0x23\n        /* \"#utility.yul\":6491:6494   */\n      dup4\n        /* \"#utility.yul\":6432:6499   */\n      tag_116\n      jump\t// in\n    tag_198:\n        /* \"#utility.yul\":6425:6499   */\n      swap2\n      pop\n        /* \"#utility.yul\":6508:6601   */\n      tag_199\n        /* \"#utility.yul\":6597:6600   */\n      dup3\n        /* \"#utility.yul\":6508:6601   */\n      tag_119\n      jump\t// in\n    tag_199:\n        /* \"#utility.yul\":6626:6628   */\n      0x40\n        /* \"#utility.yul\":6621:6624   */\n      dup3\n        /* \"#utility.yul\":6617:6629   */\n      add\n        /* \"#utility.yul\":6610:6629   */\n      swap1\n      pop\n        /* \"#utility.yul\":6269:6635   */\n      swap2\n      swap1\n      pop\n      jump\t// out\n        /* \"#utility.yul\":6641:7060   */\n    tag_58:\n        /* \"#utility.yul\":6807:6811   */\n      0x00\n        /* \"#utility.yul\":6845:6847   */\n      0x20\n        /* \"#utility.yul\":6834:6843   */\n      dup3\n        /* \"#utility.yul\":6830:6848   */\n      add\n        /* \"#utility.yul\":6822:6848   */\n      swap1\n      pop\n        /* \"#utility.yul\":6894:6903   */\n      dup2\n        /* \"#utility.yul\":6888:6892   */\n      dup2\n        /* \"#utility.yul\":6884:6904   */\n      sub\n        /* \"#utility.yul\":6880:6881   */\n      0x00\n        /* \"#utility.yul\":6869:6878   */\n      dup4\n        /* \"#utility.yul\":6865:6882   */\n      add\n        /* \"#utility.yul\":6858:6905   */\n      mstore\n        /* \"#utility.yul\":6922:7053   */\n      tag_201\n        /* \"#utility.yul\":7048:7052   */\n      dup2\n        /* \"#utility.yul\":6922:7053   */\n      tag_120\n      jump\t// in\n    tag_201:\n        /* \"#utility.yul\":6914:7053   */\n      swap1\n      pop\n        /* \"#utility.yul\":6641:7060   */\n      swap2\n      swap1\n      pop\n      jump\t// out\n        /* \"#utility.yul\":7066:7244   */\n    tag_121:\n        /* \"#utility.yul\":7206:7236   */\n      0x496e73756666696369656e74207061796d656e742062616c616e636500000000\n        /* \"#utility.yul\":7202:7203   */\n      0x00\n        /* \"#utility.yul\":7194:7200   */\n      dup3\n        /* \"#utility.yul\":7190:7204   */\n      add\n        /* \"#utility.yul\":7183:7237   */\n      mstore\n        /* \"#utility.yul\":7066:7244   */\n      pop\n      jump\t// out\n        /* \"#utility.yul\":7250:7616   */\n    tag_122:\n        /* \"#utility.yul\":7392:7395   */\n      0x00\n        /* \"#utility.yul\":7413:7480   */\n      tag_204\n        /* \"#utility.yul\":7477:7479   */\n      0x1c\n        /* \"#utility.yul\":7472:7475   */\n      dup4\n        /* \"#utility.yul\":7413:7480   */\n      tag_116\n      jump\t// in\n    tag_204:\n        /* \"#utility.yul\":7406:7480   */\n      swap2\n      pop\n        /* \"#utility.yul\":7489:7582   */\n      tag_205\n        /* \"#utility.yul\":7578:7581   */\n      dup3\n        /* \"#utility.yul\":7489:7582   */\n      tag_121\n      jump\t// in\n    tag_205:\n        /* \"#utility.yul\":7607:7609   */\n      0x20\n        /* \"#utility.yul\":7602:7605   */\n      dup3\n        /* \"#utility.yul\":7598:7610   */\n      add\n        /* \"#utility.yul\":7591:7610   */\n      swap1\n      pop\n        /* \"#utility.yul\":7250:7616   */\n      swap2\n      swap1\n      pop\n      jump\t// out\n        /* \"#utility.yul\":7622:8041   */\n    tag_61:\n        /* \"#utility.yul\":7788:7792   */\n      0x00\n        /* \"#utility.yul\":7826:7828   */\n      0x20\n        /* \"#utility.yul\":7815:7824   */\n      dup3\n        /* \"#utility.yul\":7811:7829   */\n      add\n        /* \"#utility.yul\":7803:7829   */\n      swap1\n      pop\n        /* \"#utility.yul\":7875:7884   */\n      dup2\n        /* \"#utility.yul\":7869:7873   */\n      dup2\n        /* \"#utility.yul\":7865:7885   */\n      sub\n        /* \"#utility.yul\":7861:7862   */\n      0x00\n        /* \"#utility.yul\":7850:7859   */\n      dup4\n        /* \"#utility.yul\":7846:7863   */\n      add\n        /* \"#utility.yul\":7839:7886   */\n      mstore\n        /* \"#utility.yul\":7903:8034   */\n      tag_207\n        /* \"#utility.yul\":8029:8033   */\n      dup2\n        /* \"#utility.yul\":7903:8034   */\n      tag_122\n      jump\t// in\n    tag_207:\n        /* \"#utility.yul\":7895:8034   */\n      swap1\n      pop\n        /* \"#utility.yul\":7622:8041   */\n      swap2\n      swap1\n      pop\n      jump\t// out\n        /* \"#utility.yul\":8047:8241   */\n    tag_63:\n        /* \"#utility.yul\":8087:8091   */\n      0x00\n        /* \"#utility.yul\":8107:8127   */\n      tag_209\n        /* \"#utility.yul\":8125:8126   */\n      dup3\n        /* \"#utility.yul\":8107:8127   */\n      tag_104\n      jump\t// in\n    tag_209:\n        /* \"#utility.yul\":8102:8127   */\n      swap2\n      pop\n        /* \"#utility.yul\":8141:8161   */\n      tag_210\n        /* \"#utility.yul\":8159:8160   */\n      dup4\n        /* \"#utility.yul\":8141:8161   */\n      tag_104\n      jump\t// in\n    tag_210:\n        /* \"#utility.yul\":8136:8161   */\n      swap3\n      pop\n        /* \"#utility.yul\":8185:8186   */\n      dup3\n        /* \"#utility.yul\":8182:8183   */\n      dup3\n        /* \"#utility.yul\":8178:8187   */\n      sub\n        /* \"#utility.yul\":8170:8187   */\n      swap1\n      pop\n        /* \"#utility.yul\":8209:8210   */\n      dup2\n        /* \"#utility.yul\":8203:8207   */\n      dup2\n        /* \"#utility.yul\":8200:8211   */\n      gt\n        /* \"#utility.yul\":8197:8234   */\n      iszero\n      tag_211\n      jumpi\n        /* \"#utility.yul\":8214:8232   */\n      tag_212\n      tag_115\n      jump\t// in\n    tag_212:\n        /* \"#utility.yul\":8197:8234   */\n    tag_211:\n        /* \"#utility.yul\":8047:8241   */\n      swap3\n      swap2\n      pop\n      pop\n      jump\t// out\n        /* \"#utility.yul\":8247:8438   */\n    tag_65:\n        /* \"#utility.yul\":8287:8290   */\n      0x00\n        /* \"#utility.yul\":8306:8326   */\n      tag_214\n        /* \"#utility.yul\":8324:8325   */\n      dup3\n        /* \"#utility.yul\":8306:8326   */\n      tag_104\n      jump\t// in\n    tag_214:\n        /* \"#utility.yul\":8301:8326   */\n      swap2\n      pop\n        /* \"#utility.yul\":8340:8360   */\n      tag_215\n        /* \"#utility.yul\":8358:8359   */\n      dup4\n        /* \"#utility.yul\":8340:8360   */\n      tag_104\n      jump\t// in\n    tag_215:\n        /* \"#utility.yul\":8335:8360   */\n      swap3\n      pop\n        /* \"#utility.yul\":8383:8384   */\n      dup3\n        /* \"#utility.yul\":8380:8381   */\n      dup3\n        /* \"#utility.yul\":8376:8385   */\n      add\n        /* \"#utility.yul\":8369:8385   */\n      swap1\n      pop\n        /* \"#utility.yul\":8404:8407   */\n      dup1\n        /* \"#utility.yul\":8401:8402   */\n      dup3\n        /* \"#utility.yul\":8398:8408   */\n      gt\n        /* \"#utility.yul\":8395:8431   */\n      iszero\n      tag_216\n      jumpi\n        /* \"#utility.yul\":8411:8429   */\n      tag_217\n      tag_115\n      jump\t// in\n    tag_217:\n        /* \"#utility.yul\":8395:8431   */\n    tag_216:\n        /* \"#utility.yul\":8247:8438   */\n      swap3\n      swap2\n      pop\n      pop\n      jump\t// out\n        /* \"#utility.yul\":8444:8591   */\n    tag_123:\n        /* \"#utility.yul\":8545:8556   */\n      0x00\n        /* \"#utility.yul\":8582:8585   */\n      dup2\n        /* \"#utility.yul\":8567:8585   */\n      swap1\n      pop\n        /* \"#utility.yul\":8444:8591   */\n      swap3\n      swap2\n      pop\n      pop\n      jump\t// out\n        /* \"#utility.yul\":8597:8711   */\n    tag_124:\n      pop\n      jump\t// out\n        /* \"#utility.yul\":8717:9115   */\n    tag_125:\n        /* \"#utility.yul\":8876:8879   */\n      0x00\n        /* \"#utility.yul\":8897:8980   */\n      tag_221\n        /* \"#utility.yul\":8978:8979   */\n      0x00\n        /* \"#utility.yul\":8973:8976   */\n      dup4\n        /* \"#utility.yul\":8897:8980   */\n      tag_123\n      jump\t// in\n    tag_221:\n        /* \"#utility.yul\":8890:8980   */\n      swap2\n      pop\n        /* \"#utility.yul\":8989:9082   */\n      tag_222\n        /* \"#utility.yul\":9078:9081   */\n      dup3\n        /* \"#utility.yul\":8989:9082   */\n      tag_124\n      jump\t// in\n    tag_222:\n        /* \"#utility.yul\":9107:9108   */\n      0x00\n        /* \"#utility.yul\":9102:9105   */\n      dup3\n        /* \"#utility.yul\":9098:9109   */\n      add\n        /* \"#utility.yul\":9091:9109   */\n      swap1\n      pop\n        /* \"#utility.yul\":8717:9115   */\n      swap2\n      swap1\n      pop\n      jump\t// out\n        /* \"#utility.yul\":9121:9500   */\n    tag_67:\n        /* \"#utility.yul\":9305:9308   */\n      0x00\n        /* \"#utility.yul\":9327:9474   */\n      tag_224\n        /* \"#utility.yul\":9470:9473   */\n      dup3\n        /* \"#utility.yul\":9327:9474   */\n      tag_125\n      jump\t// in\n    tag_224:\n        /* \"#utility.yul\":9320:9474   */\n      swap2\n      pop\n        /* \"#utility.yul\":9491:9494   */\n      dup2\n        /* \"#utility.yul\":9484:9494   */\n      swap1\n      pop\n        /* \"#utility.yul\":9121:9500   */\n      swap2\n      swap1\n      pop\n      jump\t// out\n        /* \"#utility.yul\":9506:9682   */\n    tag_126:\n        /* \"#utility.yul\":9646:9674   */\n      0x5061796d656e7420746f2070726f6475636572206661696c6564000000000000\n        /* \"#utility.yul\":9642:9643   */\n      0x00\n        /* \"#utility.yul\":9634:9640   */\n      dup3\n        /* \"#utility.yul\":9630:9644   */\n      add\n        /* \"#utility.yul\":9623:9675   */\n      mstore\n        /* \"#utility.yul\":9506:9682   */\n      pop\n      jump\t// out\n        /* \"#utility.yul\":9688:10054   */\n    tag_127:\n        /* \"#utility.yul\":9830:9833   */\n      0x00\n        /* \"#utility.yul\":9851:9918   */\n      tag_227\n        /* \"#utility.yul\":9915:9917   */\n      0x1a\n        /* \"#utility.yul\":9910:9913   */\n      dup4\n        /* \"#utility.yul\":9851:9918   */\n      tag_116\n      jump\t// in\n    tag_227:\n        /* \"#utility.yul\":9844:9918   */\n      swap2\n      pop\n        /* \"#utility.yul\":9927:10020   */\n      tag_228\n        /* \"#utility.yul\":10016:10019   */\n      dup3\n        /* \"#utility.yul\":9927:10020   */\n      tag_126\n      jump\t// in\n    tag_228:\n        /* \"#utility.yul\":10045:10047   */\n      0x20\n        /* \"#utility.yul\":10040:10043   */\n      dup3\n        /* \"#utility.yul\":10036:10048   */\n      add\n        /* \"#utility.yul\":10029:10048   */\n      swap1\n      pop\n        /* \"#utility.yul\":9688:10054   */\n      swap2\n      swap1\n      pop\n      jump\t// out\n        /* \"#utility.yul\":10060:10479   */\n    tag_73:\n        /* \"#utility.yul\":10226:10230   */\n      0x00\n        /* \"#utility.yul\":10264:10266   */\n      0x20\n        /* \"#utility.yul\":10253:10262   */\n      dup3\n        /* \"#utility.yul\":10249:10267   */\n      add\n        /* \"#utility.yul\":10241:10267   */\n      swap1\n      pop\n        /* \"#utility.yul\":10313:10322   */\n      dup2\n        /* \"#utility.yul\":10307:10311   */\n      dup2\n        /* \"#utility.yul\":10303:10323   */\n      sub\n        /* \"#utility.yul\":10299:10300   */\n      0x00\n        /* \"#utility.yul\":10288:10297   */\n      dup4\n        /* \"#utility.yul\":10284:10301   */\n      add\n        /* \"#utility.yul\":10277:10324   */\n      mstore\n        /* \"#utility.yul\":10341:10472   */\n      tag_230\n        /* \"#utility.yul\":10467:10471   */\n      dup2\n        /* \"#utility.yul\":10341:10472   */\n      tag_127\n      jump\t// in\n    tag_230:\n        /* \"#utility.yul\":10333:10472   */\n      swap1\n      pop\n        /* \"#utility.yul\":10060:10479   */\n      swap2\n      swap1\n      pop\n      jump\t// out\n        /* \"#utility.yul\":10485:10648   */\n    tag_128:\n        /* \"#utility.yul\":10625:10640   */\n      0x526566756e64206661696c656400000000000000000000000000000000000000\n        /* \"#utility.yul\":10621:10622   */\n      0x00\n        /* \"#utility.yul\":10613:10619   */\n      dup3\n        /* \"#utility.yul\":10609:10623   */\n      add\n        /* \"#utility.yul\":10602:10641   */\n      mstore\n        /* \"#utility.yul\":10485:10648   */\n      pop\n      jump\t// out\n        /* \"#utility.yul\":10654:11020   */\n    tag_129:\n        /* \"#utility.yul\":10796:10799   */\n      0x00\n        /* \"#utility.yul\":10817:10884   */\n      tag_233\n        /* \"#utility.yul\":10881:10883   */\n      0x0d\n        /* \"#utility.yul\":10876:10879   */\n      dup4\n        /* \"#utility.yul\":10817:10884   */\n      tag_116\n      jump\t// in\n    tag_233:\n        /* \"#utility.yul\":10810:10884   */\n      swap2\n      pop\n        /* \"#utility.yul\":10893:10986   */\n      tag_234\n        /* \"#utility.yul\":10982:10985   */\n      dup3\n        /* \"#utility.yul\":10893:10986   */\n      tag_128\n      jump\t// in\n    tag_234:\n        /* \"#utility.yul\":11011:11013   */\n      0x20\n        /* \"#utility.yul\":11006:11009   */\n      dup3\n        /* \"#utility.yul\":11002:11014   */\n      add\n        /* \"#utility.yul\":10995:11014   */\n      swap1\n      pop\n        /* \"#utility.yul\":10654:11020   */\n      swap2\n      swap1\n      pop\n      jump\t// out\n        /* \"#utility.yul\":11026:11445   */\n    tag_82:\n        /* \"#utility.yul\":11192:11196   */\n      0x00\n        /* \"#utility.yul\":11230:11232   */\n      0x20\n        /* \"#utility.yul\":11219:11228   */\n      dup3\n        /* \"#utility.yul\":11215:11233   */\n      add\n        /* \"#utility.yul\":11207:11233   */\n      swap1\n      pop\n        /* \"#utility.yul\":11279:11288   */\n      dup2\n        /* \"#utility.yul\":11273:11277   */\n      dup2\n        /* \"#utility.yul\":11269:11289   */\n      sub\n        /* \"#utility.yul\":11265:11266   */\n      0x00\n        /* \"#utility.yul\":11254:11263   */\n      dup4\n        /* \"#utility.yul\":11250:11267   */\n      add\n        /* \"#utility.yul\":11243:11290   */\n      mstore\n        /* \"#utility.yul\":11307:11438   */\n      tag_236\n        /* \"#utility.yul\":11433:11437   */\n      dup2\n        /* \"#utility.yul\":11307:11438   */\n      tag_129\n      jump\t// in\n    tag_236:\n        /* \"#utility.yul\":11299:11438   */\n      swap1\n      pop\n        /* \"#utility.yul\":11026:11445   */\n      swap2\n      swap1\n      pop\n      jump\t// out\n        /* \"#utility.yul\":11451:11631   */\n    tag_89:\n        /* \"#utility.yul\":11499:11576   */\n      0x4e487b7100000000000000000000000000000000000000000000000000000000\n        /* \"#utility.yul\":11496:11497   */\n      0x00\n        /* \"#utility.yul\":11489:11577   */\n      mstore\n        /* \"#utility.yul\":11596:11600   */\n      0x32\n        /* \"#utility.yul\":11593:11594   */\n      0x04\n        /* \"#utility.yul\":11586:11601   */\n      mstore\n        /* \"#utility.yul\":11620:11624   */\n      0x24\n        /* \"#utility.yul\":11617:11618   */\n      0x00\n        /* \"#utility.yul\":11610:11625   */\n      revert\n\n    auxdata: 0xa2646970667358221220687e04529758373f56735eeb2ff8a1913ca11379993d1928f0f805836aec724564736f6c634300081f0033\n}\n",
				"bytecode": {
					"linkReferences": {},
					"object": "6080604052348015600e575f5ffd5b50610e2e8061001c5f395ff3fe60806040526004361061006f575f3560e01c80634821b3671161004d5780634821b3671461010a5780636a2d968214610132578063d953a2bf1461016e578063ed7653e7146101985761006f565b8063207677de1461007357806326324eff146100af57806336fd7e1b146100ee575b5f5ffd5b34801561007e575f5ffd5b506100996004803603810190610094919061089f565b6101d4565b6040516100a69190610909565b60405180910390f35b3480156100ba575f5ffd5b506100d560048036038101906100d0919061094c565b61020f565b6040516100e594939291906109a0565b60405180910390f35b610108600480360381019061010391906109e3565b610266565b005b348015610115575f5ffd5b50610130600480360381019061012b9190610a21565b61056e565b005b34801561013d575f5ffd5b506101586004803603810190610153919061094c565b6106c3565b6040516101659190610a5f565b60405180910390f35b348015610179575f5ffd5b506101826106d8565b60405161018f9190610909565b60405180910390f35b3480156101a3575f5ffd5b506101be60048036038101906101b9919061094c565b610853565b6040516101cb9190610a5f565b60405180910390f35b600381815481106101e3575f80fd5b905f5260205f20015f915054906101000a900473ffffffffffffffffffffffffffffffffffffffff1681565b5f602052805f5260405f205f91509050805f015490806001015490806002015f9054906101000a900460ff16908060020160019054906101000a900473ffffffffffffffffffffffffffffffffffffffff16905084565b5f5f5f8473ffffffffffffffffffffffffffffffffffffffff1673ffffffffffffffffffffffffffffffffffffffff1681526020019081526020015f2090505f8160010154836102b69190610aa5565b9050816002015f9054906101000a900460ff16610308576040517f08c379a00000000000000000000000000000000000000000000000000000000081526004016102ff90610b40565b60405180910390fd5b82825f0154101561034e576040517f08c379a000000000000000000000000000000000000000000000000000000000815260040161034590610bce565b60405180910390fd5b80341015610391576040517f08c379a000000000000000000000000000000000000000000000000000000000815260040161038890610c36565b60405180910390fd5b82825f015f8282546103a39190610c54565b925050819055508260015f3373ffffffffffffffffffffffffffffffffffffffff1673ffffffffffffffffffffffffffffffffffffffff1681526020019081526020015f205f8282546103f69190610c87565b925050819055505f8473ffffffffffffffffffffffffffffffffffffffff168260405161042290610ce7565b5f6040518083038185875af1925050503d805f811461045c576040519150601f19603f3d011682016040523d82523d5f602084013e610461565b606091505b50509050806104a5576040517f08c379a000000000000000000000000000000000000000000000000000000000815260040161049c90610d45565b60405180910390fd5b81341115610567575f82346104ba9190610c54565b90505f3373ffffffffffffffffffffffffffffffffffffffff16826040516104e190610ce7565b5f6040518083038185875af1925050503d805f811461051b576040519150601f19603f3d011682016040523d82523d5f602084013e610520565b606091505b5050905080610564576040517f08c379a000000000000000000000000000000000000000000000000000000000815260040161055b90610dad565b60405180910390fd5b50505b5050505050565b60405180608001604052808381526020018281526020016001151581526020013373ffffffffffffffffffffffffffffffffffffffff168152505f5f3373ffffffffffffffffffffffffffffffffffffffff1673ffffffffffffffffffffffffffffffffffffffff1681526020019081526020015f205f820151815f0155602082015181600101556040820151816002015f6101000a81548160ff02191690831515021790555060608201518160020160016101000a81548173ffffffffffffffffffffffffffffffffffffffff021916908373ffffffffffffffffffffffffffffffffffffffff160217905550905050600333908060018154018082558091505060019003905f5260205f20015f9091909190916101000a81548173ffffffffffffffffffffffffffffffffffffffff021916908373ffffffffffffffffffffffffffffffffffffffff1602179055505050565b6002602052805f5260405f205f915090505481565b5f5f600380549050036106ed575f9050610850565b5f60035f8154811061070257610701610dcb565b5b905f5260205f20015f9054906101000a900473ffffffffffffffffffffffffffffffffffffffff1690505f600190505b60038054905081101561084a575f5f8373ffffffffffffffffffffffffffffffffffffffff1673ffffffffffffffffffffffffffffffffffffffff1681526020019081526020015f205f01545f5f6003848154811061079457610793610dcb565b5b905f5260205f20015f9054906101000a900473ffffffffffffffffffffffffffffffffffffffff1673ffffffffffffffffffffffffffffffffffffffff1673ffffffffffffffffffffffffffffffffffffffff1681526020019081526020015f205f0154111561083d576003818154811061081257610811610dcb565b5b905f5260205f20015f9054906101000a900473ffffffffffffffffffffffffffffffffffffffff1691505b8080600101915050610732565b50809150505b90565b6001602052805f5260405f205f915090505481565b5f5ffd5b5f819050919050565b61087e8161086c565b8114610888575f5ffd5b50565b5f8135905061089981610875565b92915050565b5f602082840312156108b4576108b3610868565b5b5f6108c18482850161088b565b91505092915050565b5f73ffffffffffffffffffffffffffffffffffffffff82169050919050565b5f6108f3826108ca565b9050919050565b610903816108e9565b82525050565b5f60208201905061091c5f8301846108fa565b92915050565b61092b816108e9565b8114610935575f5ffd5b50565b5f8135905061094681610922565b92915050565b5f6020828403121561096157610960610868565b5b5f61096e84828501610938565b91505092915050565b6109808161086c565b82525050565b5f8115159050919050565b61099a81610986565b82525050565b5f6080820190506109b35f830187610977565b6109c06020830186610977565b6109cd6040830185610991565b6109da60608301846108fa565b95945050505050565b5f5f604083850312156109f9576109f8610868565b5b5f610a0685828601610938565b9250506020610a178582860161088b565b9150509250929050565b5f5f60408385031215610a3757610a36610868565b5b5f610a448582860161088b565b9250506020610a558582860161088b565b9150509250929050565b5f602082019050610a725f830184610977565b92915050565b7f4e487b71000000000000000000000000000000000000000000000000000000005f52601160045260245ffd5b5f610aaf8261086c565b9150610aba8361086c565b9250828202610ac88161086c565b91508282048414831517610adf57610ade610a78565b5b5092915050565b5f82825260208201905092915050565b7f50726f6475636572206973206e6f7420616374697665000000000000000000005f82015250565b5f610b2a601683610ae6565b9150610b3582610af6565b602082019050919050565b5f6020820190508181035f830152610b5781610b1e565b9050919050565b7f496e73756666696369656e7420656e6572677920756e69747320617661696c615f8201527f626c650000000000000000000000000000000000000000000000000000000000602082015250565b5f610bb8602383610ae6565b9150610bc382610b5e565b604082019050919050565b5f6020820190508181035f830152610be581610bac565b9050919050565b7f496e73756666696369656e74207061796d656e742062616c616e6365000000005f82015250565b5f610c20601c83610ae6565b9150610c2b82610bec565b602082019050919050565b5f6020820190508181035f830152610c4d81610c14565b9050919050565b5f610c5e8261086c565b9150610c698361086c565b9250828203905081811115610c8157610c80610a78565b5b92915050565b5f610c918261086c565b9150610c9c8361086c565b9250828201905080821115610cb457610cb3610a78565b5b92915050565b5f81905092915050565b50565b5f610cd25f83610cba565b9150610cdd82610cc4565b5f82019050919050565b5f610cf182610cc7565b9150819050919050565b7f5061796d656e7420746f2070726f6475636572206661696c65640000000000005f82015250565b5f610d2f601a83610ae6565b9150610d3a82610cfb565b602082019050919050565b5f6020820190508181035f830152610d5c81610d23565b9050919050565b7f526566756e64206661696c6564000000000000000000000000000000000000005f82015250565b5f610d97600d83610ae6565b9150610da282610d63565b602082019050919050565b5f6020820190508181035f830152610dc481610d8b565b9050919050565b7f4e487b71000000000000000000000000000000000000000000000000000000005f52603260045260245ffdfea2646970667358221220687e04529758373f56735eeb2ff8a1913ca11379993d1928f0f805836aec724564736f6c634300081f0033",
					"opcodes": "PUSH1 0x80 PUSH1 0x40 MSTORE CALLVALUE DUP1 ISZERO PUSH1 0xE JUMPI PUSH0 PUSH0 REVERT JUMPDEST POP PUSH2 0xE2E DUP1 PUSH2 0x1C PUSH0 CODECOPY PUSH0 RETURN INVALID PUSH1 0x80 PUSH1 0x40 MSTORE PUSH1 0x4 CALLDATASIZE LT PUSH2 0x6F JUMPI PUSH0 CALLDATALOAD PUSH1 0xE0 SHR DUP1 PUSH4 0x4821B367 GT PUSH2 0x4D JUMPI DUP1 PUSH4 0x4821B367 EQ PUSH2 0x10A JUMPI DUP1 PUSH4 0x6A2D9682 EQ PUSH2 0x132 JUMPI DUP1 PUSH4 0xD953A2BF EQ PUSH2 0x16E JUMPI DUP1 PUSH4 0xED7653E7 EQ PUSH2 0x198 JUMPI PUSH2 0x6F JUMP JUMPDEST DUP1 PUSH4 0x207677DE EQ PUSH2 0x73 JUMPI DUP1 PUSH4 0x26324EFF EQ PUSH2 0xAF JUMPI DUP1 PUSH4 0x36FD7E1B EQ PUSH2 0xEE JUMPI JUMPDEST PUSH0 PUSH0 REVERT JUMPDEST CALLVALUE DUP1 ISZERO PUSH2 0x7E JUMPI PUSH0 PUSH0 REVERT JUMPDEST POP PUSH2 0x99 PUSH1 0x4 DUP1 CALLDATASIZE SUB DUP2 ADD SWAP1 PUSH2 0x94 SWAP2 SWAP1 PUSH2 0x89F JUMP JUMPDEST PUSH2 0x1D4 JUMP JUMPDEST PUSH1 0x40 MLOAD PUSH2 0xA6 SWAP2 SWAP1 PUSH2 0x909 JUMP JUMPDEST PUSH1 0x40 MLOAD DUP1 SWAP2 SUB SWAP1 RETURN JUMPDEST CALLVALUE DUP1 ISZERO PUSH2 0xBA JUMPI PUSH0 PUSH0 REVERT JUMPDEST POP PUSH2 0xD5 PUSH1 0x4 DUP1 CALLDATASIZE SUB DUP2 ADD SWAP1 PUSH2 0xD0 SWAP2 SWAP1 PUSH2 0x94C JUMP JUMPDEST PUSH2 0x20F JUMP JUMPDEST PUSH1 0x40 MLOAD PUSH2 0xE5 SWAP5 SWAP4 SWAP3 SWAP2 SWAP1 PUSH2 0x9A0 JUMP JUMPDEST PUSH1 0x40 MLOAD DUP1 SWAP2 SUB SWAP1 RETURN JUMPDEST PUSH2 0x108 PUSH1 0x4 DUP1 CALLDATASIZE SUB DUP2 ADD SWAP1 PUSH2 0x103 SWAP2 SWAP1 PUSH2 0x9E3 JUMP JUMPDEST PUSH2 0x266 JUMP JUMPDEST STOP JUMPDEST CALLVALUE DUP1 ISZERO PUSH2 0x115 JUMPI PUSH0 PUSH0 REVERT JUMPDEST POP PUSH2 0x130 PUSH1 0x4 DUP1 CALLDATASIZE SUB DUP2 ADD SWAP1 PUSH2 0x12B SWAP2 SWAP1 PUSH2 0xA21 JUMP JUMPDEST PUSH2 0x56E JUMP JUMPDEST STOP JUMPDEST CALLVALUE DUP1 ISZERO PUSH2 0x13D JUMPI PUSH0 PUSH0 REVERT JUMPDEST POP PUSH2 0x158 PUSH1 0x4 DUP1 CALLDATASIZE SUB DUP2 ADD SWAP1 PUSH2 0x153 SWAP2 SWAP1 PUSH2 0x94C JUMP JUMPDEST PUSH2 0x6C3 JUMP JUMPDEST PUSH1 0x40 MLOAD PUSH2 0x165 SWAP2 SWAP1 PUSH2 0xA5F JUMP JUMPDEST PUSH1 0x40 MLOAD DUP1 SWAP2 SUB SWAP1 RETURN JUMPDEST CALLVALUE DUP1 ISZERO PUSH2 0x179 JUMPI PUSH0 PUSH0 REVERT JUMPDEST POP PUSH2 0x182 PUSH2 0x6D8 JUMP JUMPDEST PUSH1 0x40 MLOAD PUSH2 0x18F SWAP2 SWAP1 PUSH2 0x909 JUMP JUMPDEST PUSH1 0x40 MLOAD DUP1 SWAP2 SUB SWAP1 RETURN JUMPDEST CALLVALUE DUP1 ISZERO PUSH2 0x1A3 JUMPI PUSH0 PUSH0 REVERT JUMPDEST POP PUSH2 0x1BE PUSH1 0x4 DUP1 CALLDATASIZE SUB DUP2 ADD SWAP1 PUSH2 0x1B9 SWAP2 SWAP1 PUSH2 0x94C JUMP JUMPDEST PUSH2 0x853 JUMP JUMPDEST PUSH1 0x40 MLOAD PUSH2 0x1CB SWAP2 SWAP1 PUSH2 0xA5F JUMP JUMPDEST PUSH1 0x40 MLOAD DUP1 SWAP2 SUB SWAP1 RETURN JUMPDEST PUSH1 0x3 DUP2 DUP2 SLOAD DUP2 LT PUSH2 0x1E3 JUMPI PUSH0 DUP1 REVERT JUMPDEST SWAP1 PUSH0 MSTORE PUSH1 0x20 PUSH0 KECCAK256 ADD PUSH0 SWAP2 POP SLOAD SWAP1 PUSH2 0x100 EXP SWAP1 DIV PUSH20 0xFFFFFFFFFFFFFFFFFFFFFFFFFFFFFFFFFFFFFFFF AND DUP2 JUMP JUMPDEST PUSH0 PUSH1 0x20 MSTORE DUP1 PUSH0 MSTORE PUSH1 0x40 PUSH0 KECCAK256 PUSH0 SWAP2 POP SWAP1 POP DUP1 PUSH0 ADD SLOAD SWAP1 DUP1 PUSH1 0x1 ADD SLOAD SWAP1 DUP1 PUSH1 0x2 ADD PUSH0 SWAP1 SLOAD SWAP1 PUSH2 0x100 EXP SWAP1 DIV PUSH1 0xFF AND SWAP1 DUP1 PUSH1 0x2 ADD PUSH1 0x1 SWAP1 SLOAD SWAP1 PUSH2 0x100 EXP SWAP1 DIV PUSH20 0xFFFFFFFFFFFFFFFFFFFFFFFFFFFFFFFFFFFFFFFF AND SWAP1 POP DUP5 JUMP JUMPDEST PUSH0 PUSH0 PUSH0 DUP5 PUSH20 0xFFFFFFFFFFFFFFFFFFFFFFFFFFFFFFFFFFFFFFFF AND PUSH20 0xFFFFFFFFFFFFFFFFFFFFFFFFFFFFFFFFFFFFFFFF AND DUP2 MSTORE PUSH1 0x20 ADD SWAP1 DUP2 MSTORE PUSH1 0x20 ADD PUSH0 KECCAK256 SWAP1 POP PUSH0 DUP2 PUSH1 0x1 ADD SLOAD DUP4 PUSH2 0x2B6 SWAP2 SWAP1 PUSH2 0xAA5 JUMP JUMPDEST SWAP1 POP DUP2 PUSH1 0x2 ADD PUSH0 SWAP1 SLOAD SWAP1 PUSH2 0x100 EXP SWAP1 DIV PUSH1 0xFF AND PUSH2 0x308 JUMPI PUSH1 0x40 MLOAD PUSH32 0x8C379A000000000000000000000000000000000000000000000000000000000 DUP2 MSTORE PUSH1 0x4 ADD PUSH2 0x2FF SWAP1 PUSH2 0xB40 JUMP JUMPDEST PUSH1 0x40 MLOAD DUP1 SWAP2 SUB SWAP1 REVERT JUMPDEST DUP3 DUP3 PUSH0 ADD SLOAD LT ISZERO PUSH2 0x34E JUMPI PUSH1 0x40 MLOAD PUSH32 0x8C379A000000000000000000000000000000000000000000000000000000000 DUP2 MSTORE PUSH1 0x4 ADD PUSH2 0x345 SWAP1 PUSH2 0xBCE JUMP JUMPDEST PUSH1 0x40 MLOAD DUP1 SWAP2 SUB SWAP1 REVERT JUMPDEST DUP1 CALLVALUE LT ISZERO PUSH2 0x391 JUMPI PUSH1 0x40 MLOAD PUSH32 0x8C379A000000000000000000000000000000000000000000000000000000000 DUP2 MSTORE PUSH1 0x4 ADD PUSH2 0x388 SWAP1 PUSH2 0xC36 JUMP JUMPDEST PUSH1 0x40 MLOAD DUP1 SWAP2 SUB SWAP1 REVERT JUMPDEST DUP3 DUP3 PUSH0 ADD PUSH0 DUP3 DUP3 SLOAD PUSH2 0x3A3 SWAP2 SWAP1 PUSH2 0xC54 JUMP JUMPDEST SWAP3 POP POP DUP2 SWAP1 SSTORE POP DUP3 PUSH1 0x1 PUSH0 CALLER PUSH20 0xFFFFFFFFFFFFFFFFFFFFFFFFFFFFFFFFFFFFFFFF AND PUSH20 0xFFFFFFFFFFFFFFFFFFFFFFFFFFFFFFFFFFFFFFFF AND DUP2 MSTORE PUSH1 0x20 ADD SWAP1 DUP2 MSTORE PUSH1 0x20 ADD PUSH0 KECCAK256 PUSH0 DUP3 DUP3 SLOAD PUSH2 0x3F6 SWAP2 SWAP1 PUSH2 0xC87 JUMP JUMPDEST SWAP3 POP POP DUP2 SWAP1 SSTORE POP PUSH0 DUP5 PUSH20 0xFFFFFFFFFFFFFFFFFFFFFFFFFFFFFFFFFFFFFFFF AND DUP3 PUSH1 0x40 MLOAD PUSH2 0x422 SWAP1 PUSH2 0xCE7 JUMP JUMPDEST PUSH0 PUSH1 0x40 MLOAD DUP1 DUP4 SUB DUP2 DUP6 DUP8 GAS CALL SWAP3 POP POP POP RETURNDATASIZE DUP1 PUSH0 DUP2 EQ PUSH2 0x45C JUMPI PUSH1 0x40 MLOAD SWAP2 POP PUSH1 0x1F NOT PUSH1 0x3F RETURNDATASIZE ADD AND DUP3 ADD PUSH1 0x40 MSTORE RETURNDATASIZE DUP3 MSTORE RETURNDATASIZE PUSH0 PUSH1 0x20 DUP5 ADD RETURNDATACOPY PUSH2 0x461 JUMP JUMPDEST PUSH1 0x60 SWAP2 POP JUMPDEST POP POP SWAP1 POP DUP1 PUSH2 0x4A5 JUMPI PUSH1 0x40 MLOAD PUSH32 0x8C379A000000000000000000000000000000000000000000000000000000000 DUP2 MSTORE PUSH1 0x4 ADD PUSH2 0x49C SWAP1 PUSH2 0xD45 JUMP JUMPDEST PUSH1 0x40 MLOAD DUP1 SWAP2 SUB SWAP1 REVERT JUMPDEST DUP2 CALLVALUE GT ISZERO PUSH2 0x567 JUMPI PUSH0 DUP3 CALLVALUE PUSH2 0x4BA SWAP2 SWAP1 PUSH2 0xC54 JUMP JUMPDEST SWAP1 POP PUSH0 CALLER PUSH20 0xFFFFFFFFFFFFFFFFFFFFFFFFFFFFFFFFFFFFFFFF AND DUP3 PUSH1 0x40 MLOAD PUSH2 0x4E1 SWAP1 PUSH2 0xCE7 JUMP JUMPDEST PUSH0 PUSH1 0x40 MLOAD DUP1 DUP4 SUB DUP2 DUP6 DUP8 GAS CALL SWAP3 POP POP POP RETURNDATASIZE DUP1 PUSH0 DUP2 EQ PUSH2 0x51B JUMPI PUSH1 0x40 MLOAD SWAP2 POP PUSH1 0x1F NOT PUSH1 0x3F RETURNDATASIZE ADD AND DUP3 ADD PUSH1 0x40 MSTORE RETURNDATASIZE DUP3 MSTORE RETURNDATASIZE PUSH0 PUSH1 0x20 DUP5 ADD RETURNDATACOPY PUSH2 0x520 JUMP JUMPDEST PUSH1 0x60 SWAP2 POP JUMPDEST POP POP SWAP1 POP DUP1 PUSH2 0x564 JUMPI PUSH1 0x40 MLOAD PUSH32 0x8C379A000000000000000000000000000000000000000000000000000000000 DUP2 MSTORE PUSH1 0x4 ADD PUSH2 0x55B SWAP1 PUSH2 0xDAD JUMP JUMPDEST PUSH1 0x40 MLOAD DUP1 SWAP2 SUB SWAP1 REVERT JUMPDEST POP POP JUMPDEST POP POP POP POP POP JUMP JUMPDEST PUSH1 0x40 MLOAD DUP1 PUSH1 0x80 ADD PUSH1 0x40 MSTORE DUP1 DUP4 DUP2 MSTORE PUSH1 0x20 ADD DUP3 DUP2 MSTORE PUSH1 0x20 ADD PUSH1 0x1 ISZERO ISZERO DUP2 MSTORE PUSH1 0x20 ADD CALLER PUSH20 0xFFFFFFFFFFFFFFFFFFFFFFFFFFFFFFFFFFFFFFFF AND DUP2 MSTORE POP PUSH0 PUSH0 CALLER PUSH20 0xFFFFFFFFFFFFFFFFFFFFFFFFFFFFFFFFFFFFFFFF AND PUSH20 0xFFFFFFFFFFFFFFFFFFFFFFFFFFFFFFFFFFFFFFFF AND DUP2 MSTORE PUSH1 0x20 ADD SWAP1 DUP2 MSTORE PUSH1 0x20 ADD PUSH0 KECCAK256 PUSH0 DUP3 ADD MLOAD DUP2 PUSH0 ADD SSTORE PUSH1 0x20 DUP3 ADD MLOAD DUP2 PUSH1 0x1 ADD SSTORE PUSH1 0x40 DUP3 ADD MLOAD DUP2 PUSH1 0x2 ADD PUSH0 PUSH2 0x100 EXP DUP2 SLOAD DUP2 PUSH1 0xFF MUL NOT AND SWAP1 DUP4 ISZERO ISZERO MUL OR SWAP1 SSTORE POP PUSH1 0x60 DUP3 ADD MLOAD DUP2 PUSH1 0x2 ADD PUSH1 0x1 PUSH2 0x100 EXP DUP2 SLOAD DUP2 PUSH20 0xFFFFFFFFFFFFFFFFFFFFFFFFFFFFFFFFFFFFFFFF MUL NOT AND SWAP1 DUP4 PUSH20 0xFFFFFFFFFFFFFFFFFFFFFFFFFFFFFFFFFFFFFFFF AND MUL OR SWAP1 SSTORE POP SWAP1 POP POP PUSH1 0x3 CALLER SWAP1 DUP1 PUSH1 0x1 DUP2 SLOAD ADD DUP1 DUP3 SSTORE DUP1 SWAP2 POP POP PUSH1 0x1 SWAP1 SUB SWAP1 PUSH0 MSTORE PUSH1 0x20 PUSH0 KECCAK256 ADD PUSH0 SWAP1 SWAP2 SWAP1 SWAP2 SWAP1 SWAP2 PUSH2 0x100 EXP DUP2 SLOAD DUP2 PUSH20 0xFFFFFFFFFFFFFFFFFFFFFFFFFFFFFFFFFFFFFFFF MUL NOT AND SWAP1 DUP4 PUSH20 0xFFFFFFFFFFFFFFFFFFFFFFFFFFFFFFFFFFFFFFFF AND MUL OR SWAP1 SSTORE POP POP POP JUMP JUMPDEST PUSH1 0x2 PUSH1 0x20 MSTORE DUP1 PUSH0 MSTORE PUSH1 0x40 PUSH0 KECCAK256 PUSH0 SWAP2 POP SWAP1 POP SLOAD DUP2 JUMP JUMPDEST PUSH0 PUSH0 PUSH1 0x3 DUP1 SLOAD SWAP1 POP SUB PUSH2 0x6ED JUMPI PUSH0 SWAP1 POP PUSH2 0x850 JUMP JUMPDEST PUSH0 PUSH1 0x3 PUSH0 DUP2 SLOAD DUP2 LT PUSH2 0x702 JUMPI PUSH2 0x701 PUSH2 0xDCB JUMP JUMPDEST JUMPDEST SWAP1 PUSH0 MSTORE PUSH1 0x20 PUSH0 KECCAK256 ADD PUSH0 SWAP1 SLOAD SWAP1 PUSH2 0x100 EXP SWAP1 DIV PUSH20 0xFFFFFFFFFFFFFFFFFFFFFFFFFFFFFFFFFFFFFFFF AND SWAP1 POP PUSH0 PUSH1 0x1 SWAP1 POP JUMPDEST PUSH1 0x3 DUP1 SLOAD SWAP1 POP DUP2 LT ISZERO PUSH2 0x84A JUMPI PUSH0 PUSH0 DUP4 PUSH20 0xFFFFFFFFFFFFFFFFFFFFFFFFFFFFFFFFFFFFFFFF AND PUSH20 0xFFFFFFFFFFFFFFFFFFFFFFFFFFFFFFFFFFFFFFFF AND DUP2 MSTORE PUSH1 0x20 ADD SWAP1 DUP2 MSTORE PUSH1 0x20 ADD PUSH0 KECCAK256 PUSH0 ADD SLOAD PUSH0 PUSH0 PUSH1 0x3 DUP5 DUP2 SLOAD DUP2 LT PUSH2 0x794 JUMPI PUSH2 0x793 PUSH2 0xDCB JUMP JUMPDEST JUMPDEST SWAP1 PUSH0 MSTORE PUSH1 0x20 PUSH0 KECCAK256 ADD PUSH0 SWAP1 SLOAD SWAP1 PUSH2 0x100 EXP SWAP1 DIV PUSH20 0xFFFFFFFFFFFFFFFFFFFFFFFFFFFFFFFFFFFFFFFF AND PUSH20 0xFFFFFFFFFFFFFFFFFFFFFFFFFFFFFFFFFFFFFFFF AND PUSH20 0xFFFFFFFFFFFFFFFFFFFFFFFFFFFFFFFFFFFFFFFF AND DUP2 MSTORE PUSH1 0x20 ADD SWAP1 DUP2 MSTORE PUSH1 0x20 ADD PUSH0 KECCAK256 PUSH0 ADD SLOAD GT ISZERO PUSH2 0x83D JUMPI PUSH1 0x3 DUP2 DUP2 SLOAD DUP2 LT PUSH2 0x812 JUMPI PUSH2 0x811 PUSH2 0xDCB JUMP JUMPDEST JUMPDEST SWAP1 PUSH0 MSTORE PUSH1 0x20 PUSH0 KECCAK256 ADD PUSH0 SWAP1 SLOAD SWAP1 PUSH2 0x100 EXP SWAP1 DIV PUSH20 0xFFFFFFFFFFFFFFFFFFFFFFFFFFFFFFFFFFFFFFFF AND SWAP2 POP JUMPDEST DUP1 DUP1 PUSH1 0x1 ADD SWAP2 POP POP PUSH2 0x732 JUMP JUMPDEST POP DUP1 SWAP2 POP POP JUMPDEST SWAP1 JUMP JUMPDEST PUSH1 0x1 PUSH1 0x20 MSTORE DUP1 PUSH0 MSTORE PUSH1 0x40 PUSH0 KECCAK256 PUSH0 SWAP2 POP SWAP1 POP SLOAD DUP2 JUMP JUMPDEST PUSH0 PUSH0 REVERT JUMPDEST PUSH0 DUP2 SWAP1 POP SWAP2 SWAP1 POP JUMP JUMPDEST PUSH2 0x87E DUP2 PUSH2 0x86C JUMP JUMPDEST DUP2 EQ PUSH2 0x888 JUMPI PUSH0 PUSH0 REVERT JUMPDEST POP JUMP JUMPDEST PUSH0 DUP2 CALLDATALOAD SWAP1 POP PUSH2 0x899 DUP2 PUSH2 0x875 JUMP JUMPDEST SWAP3 SWAP2 POP POP JUMP JUMPDEST PUSH0 PUSH1 0x20 DUP3 DUP5 SUB SLT ISZERO PUSH2 0x8B4 JUMPI PUSH2 0x8B3 PUSH2 0x868 JUMP JUMPDEST JUMPDEST PUSH0 PUSH2 0x8C1 DUP5 DUP3 DUP6 ADD PUSH2 0x88B JUMP JUMPDEST SWAP2 POP POP SWAP3 SWAP2 POP POP JUMP JUMPDEST PUSH0 PUSH20 0xFFFFFFFFFFFFFFFFFFFFFFFFFFFFFFFFFFFFFFFF DUP3 AND SWAP1 POP SWAP2 SWAP1 POP JUMP JUMPDEST PUSH0 PUSH2 0x8F3 DUP3 PUSH2 0x8CA JUMP JUMPDEST SWAP1 POP SWAP2 SWAP1 POP JUMP JUMPDEST PUSH2 0x903 DUP2 PUSH2 0x8E9 JUMP JUMPDEST DUP3 MSTORE POP POP JUMP JUMPDEST PUSH0 PUSH1 0x20 DUP3 ADD SWAP1 POP PUSH2 0x91C PUSH0 DUP4 ADD DUP5 PUSH2 0x8FA JUMP JUMPDEST SWAP3 SWAP2 POP POP JUMP JUMPDEST PUSH2 0x92B DUP2 PUSH2 0x8E9 JUMP JUMPDEST DUP2 EQ PUSH2 0x935 JUMPI PUSH0 PUSH0 REVERT JUMPDEST POP JUMP JUMPDEST PUSH0 DUP2 CALLDATALOAD SWAP1 POP PUSH2 0x946 DUP2 PUSH2 0x922 JUMP JUMPDEST SWAP3 SWAP2 POP POP JUMP JUMPDEST PUSH0 PUSH1 0x20 DUP3 DUP5 SUB SLT ISZERO PUSH2 0x961 JUMPI PUSH2 0x960 PUSH2 0x868 JUMP JUMPDEST JUMPDEST PUSH0 PUSH2 0x96E DUP5 DUP3 DUP6 ADD PUSH2 0x938 JUMP JUMPDEST SWAP2 POP POP SWAP3 SWAP2 POP POP JUMP JUMPDEST PUSH2 0x980 DUP2 PUSH2 0x86C JUMP JUMPDEST DUP3 MSTORE POP POP JUMP JUMPDEST PUSH0 DUP2 ISZERO ISZERO SWAP1 POP SWAP2 SWAP1 POP JUMP JUMPDEST PUSH2 0x99A DUP2 PUSH2 0x986 JUMP JUMPDEST DUP3 MSTORE POP POP JUMP JUMPDEST PUSH0 PUSH1 0x80 DUP3 ADD SWAP1 POP PUSH2 0x9B3 PUSH0 DUP4 ADD DUP8 PUSH2 0x977 JUMP JUMPDEST PUSH2 0x9C0 PUSH1 0x20 DUP4 ADD DUP7 PUSH2 0x977 JUMP JUMPDEST PUSH2 0x9CD PUSH1 0x40 DUP4 ADD DUP6 PUSH2 0x991 JUMP JUMPDEST PUSH2 0x9DA PUSH1 0x60 DUP4 ADD DUP5 PUSH2 0x8FA JUMP JUMPDEST SWAP6 SWAP5 POP POP POP POP POP JUMP JUMPDEST PUSH0 PUSH0 PUSH1 0x40 DUP4 DUP6 SUB SLT ISZERO PUSH2 0x9F9 JUMPI PUSH2 0x9F8 PUSH2 0x868 JUMP JUMPDEST JUMPDEST PUSH0 PUSH2 0xA06 DUP6 DUP3 DUP7 ADD PUSH2 0x938 JUMP JUMPDEST SWAP3 POP POP PUSH1 0x20 PUSH2 0xA17 DUP6 DUP3 DUP7 ADD PUSH2 0x88B JUMP JUMPDEST SWAP2 POP POP SWAP3 POP SWAP3 SWAP1 POP JUMP JUMPDEST PUSH0 PUSH0 PUSH1 0x40 DUP4 DUP6 SUB SLT ISZERO PUSH2 0xA37 JUMPI PUSH2 0xA36 PUSH2 0x868 JUMP JUMPDEST JUMPDEST PUSH0 PUSH2 0xA44 DUP6 DUP3 DUP7 ADD PUSH2 0x88B JUMP JUMPDEST SWAP3 POP POP PUSH1 0x20 PUSH2 0xA55 DUP6 DUP3 DUP7 ADD PUSH2 0x88B JUMP JUMPDEST SWAP2 POP POP SWAP3 POP SWAP3 SWAP1 POP JUMP JUMPDEST PUSH0 PUSH1 0x20 DUP3 ADD SWAP1 POP PUSH2 0xA72 PUSH0 DUP4 ADD DUP5 PUSH2 0x977 JUMP JUMPDEST SWAP3 SWAP2 POP POP JUMP JUMPDEST PUSH32 0x4E487B7100000000000000000000000000000000000000000000000000000000 PUSH0 MSTORE PUSH1 0x11 PUSH1 0x4 MSTORE PUSH1 0x24 PUSH0 REVERT JUMPDEST PUSH0 PUSH2 0xAAF DUP3 PUSH2 0x86C JUMP JUMPDEST SWAP2 POP PUSH2 0xABA DUP4 PUSH2 0x86C JUMP JUMPDEST SWAP3 POP DUP3 DUP3 MUL PUSH2 0xAC8 DUP2 PUSH2 0x86C JUMP JUMPDEST SWAP2 POP DUP3 DUP3 DIV DUP5 EQ DUP4 ISZERO OR PUSH2 0xADF JUMPI PUSH2 0xADE PUSH2 0xA78 JUMP JUMPDEST JUMPDEST POP SWAP3 SWAP2 POP POP JUMP JUMPDEST PUSH0 DUP3 DUP3 MSTORE PUSH1 0x20 DUP3 ADD SWAP1 POP SWAP3 SWAP2 POP POP JUMP JUMPDEST PUSH32 0x50726F6475636572206973206E6F742061637469766500000000000000000000 PUSH0 DUP3 ADD MSTORE POP JUMP JUMPDEST PUSH0 PUSH2 0xB2A PUSH1 0x16 DUP4 PUSH2 0xAE6 JUMP JUMPDEST SWAP2 POP PUSH2 0xB35 DUP3 PUSH2 0xAF6 JUMP JUMPDEST PUSH1 0x20 DUP3 ADD SWAP1 POP SWAP2 SWAP1 POP JUMP JUMPDEST PUSH0 PUSH1 0x20 DUP3 ADD SWAP1 POP DUP2 DUP2 SUB PUSH0 DUP4 ADD MSTORE PUSH2 0xB57 DUP2 PUSH2 0xB1E JUMP JUMPDEST SWAP1 POP SWAP2 SWAP1 POP JUMP JUMPDEST PUSH32 0x496E73756666696369656E7420656E6572677920756E69747320617661696C61 PUSH0 DUP3 ADD MSTORE PUSH32 0x626C650000000000000000000000000000000000000000000000000000000000 PUSH1 0x20 DUP3 ADD MSTORE POP JUMP JUMPDEST PUSH0 PUSH2 0xBB8 PUSH1 0x23 DUP4 PUSH2 0xAE6 JUMP JUMPDEST SWAP2 POP PUSH2 0xBC3 DUP3 PUSH2 0xB5E JUMP JUMPDEST PUSH1 0x40 DUP3 ADD SWAP1 POP SWAP2 SWAP1 POP JUMP JUMPDEST PUSH0 PUSH1 0x20 DUP3 ADD SWAP1 POP DUP2 DUP2 SUB PUSH0 DUP4 ADD MSTORE PUSH2 0xBE5 DUP2 PUSH2 0xBAC JUMP JUMPDEST SWAP1 POP SWAP2 SWAP1 POP JUMP JUMPDEST PUSH32 0x496E73756666696369656E74207061796D656E742062616C616E636500000000 PUSH0 DUP3 ADD MSTORE POP JUMP JUMPDEST PUSH0 PUSH2 0xC20 PUSH1 0x1C DUP4 PUSH2 0xAE6 JUMP JUMPDEST SWAP2 POP PUSH2 0xC2B DUP3 PUSH2 0xBEC JUMP JUMPDEST PUSH1 0x20 DUP3 ADD SWAP1 POP SWAP2 SWAP1 POP JUMP JUMPDEST PUSH0 PUSH1 0x20 DUP3 ADD SWAP1 POP DUP2 DUP2 SUB PUSH0 DUP4 ADD MSTORE PUSH2 0xC4D DUP2 PUSH2 0xC14 JUMP JUMPDEST SWAP1 POP SWAP2 SWAP1 POP JUMP JUMPDEST PUSH0 PUSH2 0xC5E DUP3 PUSH2 0x86C JUMP JUMPDEST SWAP2 POP PUSH2 0xC69 DUP4 PUSH2 0x86C JUMP JUMPDEST SWAP3 POP DUP3 DUP3 SUB SWAP1 POP DUP2 DUP2 GT ISZERO PUSH2 0xC81 JUMPI PUSH2 0xC80 PUSH2 0xA78 JUMP JUMPDEST JUMPDEST SWAP3 SWAP2 POP POP JUMP JUMPDEST PUSH0 PUSH2 0xC91 DUP3 PUSH2 0x86C JUMP JUMPDEST SWAP2 POP PUSH2 0xC9C DUP4 PUSH2 0x86C JUMP JUMPDEST SWAP3 POP DUP3 DUP3 ADD SWAP1 POP DUP1 DUP3 GT ISZERO PUSH2 0xCB4 JUMPI PUSH2 0xCB3 PUSH2 0xA78 JUMP JUMPDEST JUMPDEST SWAP3 SWAP2 POP POP JUMP JUMPDEST PUSH0 DUP2 SWAP1 POP SWAP3 SWAP2 POP POP JUMP JUMPDEST POP JUMP JUMPDEST PUSH0 PUSH2 0xCD2 PUSH0 DUP4 PUSH2 0xCBA JUMP JUMPDEST SWAP2 POP PUSH2 0xCDD DUP3 PUSH2 0xCC4 JUMP JUMPDEST PUSH0 DUP3 ADD SWAP1 POP SWAP2 SWAP1 POP JUMP JUMPDEST PUSH0 PUSH2 0xCF1 DUP3 PUSH2 0xCC7 JUMP JUMPDEST SWAP2 POP DUP2 SWAP1 POP SWAP2 SWAP1 POP JUMP JUMPDEST PUSH32 0x5061796D656E7420746F2070726F6475636572206661696C6564000000000000 PUSH0 DUP3 ADD MSTORE POP JUMP JUMPDEST PUSH0 PUSH2 0xD2F PUSH1 0x1A DUP4 PUSH2 0xAE6 JUMP JUMPDEST SWAP2 POP PUSH2 0xD3A DUP3 PUSH2 0xCFB JUMP JUMPDEST PUSH1 0x20 DUP3 ADD SWAP1 POP SWAP2 SWAP1 POP JUMP JUMPDEST PUSH0 PUSH1 0x20 DUP3 ADD SWAP1 POP DUP2 DUP2 SUB PUSH0 DUP4 ADD MSTORE PUSH2 0xD5C DUP2 PUSH2 0xD23 JUMP JUMPDEST SWAP1 POP SWAP2 SWAP1 POP JUMP JUMPDEST PUSH32 0x526566756E64206661696C656400000000000000000000000000000000000000 PUSH0 DUP3 ADD MSTORE POP JUMP JUMPDEST PUSH0 PUSH2 0xD97 PUSH1 0xD DUP4 PUSH2 0xAE6 JUMP JUMPDEST SWAP2 POP PUSH2 0xDA2 DUP3 PUSH2 0xD63 JUMP JUMPDEST PUSH1 0x20 DUP3 ADD SWAP1 POP SWAP2 SWAP1 POP JUMP JUMPDEST PUSH0 PUSH1 0x20 DUP3 ADD SWAP1 POP DUP2 DUP2 SUB PUSH0 DUP4 ADD MSTORE PUSH2 0xDC4 DUP2 PUSH2 0xD8B JUMP JUMPDEST SWAP1 POP SWAP2 SWAP1 POP JUMP JUMPDEST PUSH32 0x4E487B7100000000000000000000000000000000000000000000000000000000 PUSH0 MSTORE PUSH1 0x32 PUSH1 0x4 MSTORE PUSH1 0x24 PUSH0 REVERT INVALID LOG2 PUSH5 0x6970667358 0x22 SLT KECCAK256 PUSH9 0x7E04529758373F5673 MCOPY 0xEB 0x2F EXTCALL LOG1 SWAP2 EXTCODECOPY LOG1 SGT PUSH26 0x993D1928F0F805836AEC724564736F6C634300081F0033000000 "
				},
				"gasEstimates": {
					"creation": {
						"codeDepositCost": "726000",
						"executionCost": "758",
						"totalCost": "726758"
					},
					"external": {
						"buyEnergy(address,uint256)": "infinite",
						"energyBalance(address)": "2868",
						"energyCredits(address)": "2824",
						"maxEnergySeller()": "infinite",
						"producerList(uint256)": "4945",
						"producers(address)": "infinite",
						"registerProducer(uint256,uint256)": "infinite"
					}
				},
				"methodIdentifiers": {
					"buyEnergy(address,uint256)": "36fd7e1b",
					"energyBalance(address)": "ed7653e7",
					"energyCredits(address)": "6a2d9682",
					"maxEnergySeller()": "d953a2bf",
					"producerList(uint256)": "207677de",
					"producers(address)": "26324eff",
					"registerProducer(uint256,uint256)": "4821b367"
				}
			},
			"storageLayout": {
				"storage": [
					{
						"astId": 15,
						"contract": "workspace/4_Energy.sol:EnergyTrading",
						"label": "producers",
						"offset": 0,
						"slot": "0",
						"type": "t_mapping(t_address,t_struct(Producer)10_storage)"
					},
					{
						"astId": 19,
						"contract": "workspace/4_Energy.sol:EnergyTrading",
						"label": "energyBalance",
						"offset": 0,
						"slot": "1",
						"type": "t_mapping(t_address,t_uint256)"
					},
					{
						"astId": 23,
						"contract": "workspace/4_Energy.sol:EnergyTrading",
						"label": "energyCredits",
						"offset": 0,
						"slot": "2",
						"type": "t_mapping(t_address,t_uint256)"
					},
					{
						"astId": 26,
						"contract": "workspace/4_Energy.sol:EnergyTrading",
						"label": "producerList",
						"offset": 0,
						"slot": "3",
						"type": "t_array(t_address)dyn_storage"
					}
				],
				"types": {
					"t_address": {
						"encoding": "inplace",
						"label": "address",
						"numberOfBytes": "20"
					},
					"t_array(t_address)dyn_storage": {
						"base": "t_address",
						"encoding": "dynamic_array",
						"label": "address[]",
						"numberOfBytes": "32"
					},
					"t_bool": {
						"encoding": "inplace",
						"label": "bool",
						"numberOfBytes": "1"
					},
					"t_mapping(t_address,t_struct(Producer)10_storage)": {
						"encoding": "mapping",
						"key": "t_address",
						"label": "mapping(address => struct EnergyTrading.Producer)",
						"numberOfBytes": "32",
						"value": "t_struct(Producer)10_storage"
					},
					"t_mapping(t_address,t_uint256)": {
						"encoding": "mapping",
						"key": "t_address",
						"label": "mapping(address => uint256)",
						"numberOfBytes": "32",
						"value": "t_uint256"
					},
					"t_struct(Producer)10_storage": {
						"encoding": "inplace",
						"label": "struct EnergyTrading.Producer",
						"members": [
							{
								"astId": 3,
								"contract": "workspace/4_Energy.sol:EnergyTrading",
								"label": "energyAvailable",
								"offset": 0,
								"slot": "0",
								"type": "t_uint256"
							},
							{
								"astId": 5,
								"contract": "workspace/4_Energy.sol:EnergyTrading",
								"label": "pricePerUnit",
								"offset": 0,
								"slot": "1",
								"type": "t_uint256"
							},
							{
								"astId": 7,
								"contract": "workspace/4_Energy.sol:EnergyTrading",
								"label": "isActive",
								"offset": 0,
								"slot": "2",
								"type": "t_bool"
							},
							{
								"astId": 9,
								"contract": "workspace/4_Energy.sol:EnergyTrading",
								"label": "producerAddress",
								"offset": 1,
								"slot": "2",
								"type": "t_address"
							}
						],
						"numberOfBytes": "96"
					},
					"t_uint256": {
						"encoding": "inplace",
						"label": "uint256",
						"numberOfBytes": "32"
					}
				}
			},
			"userdoc": {
				"kind": "user",
				"methods": {},
				"version": 1
			}
		}
	}
}